:10000000803600209145000007CF000049450000E0
:100010004945000049450000494500000000000036
:100020000000000000000000000000008D3C000007
:100030004945000000000000353C000059D900008F
:10004000793D0000793D0000793D0000793D0000D8
:10005000793D0000793D0000793D0000793D0000C8
:10006000793D0000793D0000793D0000793D0000B8
:10007000793D0000793D0000793D0000793D0000A8
:10008000793D0000793D0000793D0000793D000098
:10009000793D0000793D0000793D0000793D000088
:1000A000793D0000793D0000793D0000793D000078
:1000B000793D0000793D0000793D0000793D000068
:1000C000793D0000793D0000793D0000793D000058
:1000D000793D0000793D0000793D0000793D000048
:1000E000793D0000793D0000793D0000793D000038
:1000F000793D0000793D0000793D0000793D000028
:1001000053B94AB9002908BF00281CBF4FF0FF317E
:100110004FF0FF3000F06CB9ADF1080C6DE904CE82
:1001200000F006F8DDF804E0DDE9022304B07047D2
:100130002DE9F047089E0D4604468E46002B40F000
:1001400082808A42174646D9B2FA82F24AB1C2F197
:10015000200105FA02F320FA01F1974041EA030E6B
:1001600094404FEA1748230CBEFBF8FCB9B208FBD9
:100170001CEE43EA0E430CFB01F098420AD9FB182F
:100180000CF1FF3580F01681984240F21381ACF1FA
:10019000020C3B441B1AA4B2B3FBF8F008FB10336B
:1001A00044EA034400FB01F1A14209D93C1900F1E2
:1001B000FF3380F00181A14240F2FE8002383C44CE
:1001C000641A40EA0C4000211EB1D4400023C6E965
:1001D0000043BDE8F08702B9FFDEB2FA82F2002ADE
:1001E0004FD1CB1B4FEA174E1FFA87F80121B3FB03
:1001F000FEFC250C0EFB1C3345EA034508FB0CF303
:10020000AB4207D97D190CF1FF3002D2AB4200F2AC
:10021000E7808446ED1AA3B2B5FBFEF00EFB105545
:1002200043EA054408FB00F8A04507D93C1900F152
:10023000FF3302D2A04500F2D7801846A4EB080491
:1002400040EA0C40C0E78B4208D9002E00F0AF8096
:100250000021C6E900050846BDE8F087B3FA83F13E
:1002600000294BD1AB4202D3824200F2B780841AFC
:1002700065EB030301209E46002EAAD0C6E9004E7E
:10028000A7E7C2F1200C01FA02F3974020FA0CF024
:100290004FEA174E21FA0CFC1843BCFBFEF1050C8B
:1002A0000EFB11CC1FFA87F845EA0C4501FB08F359
:1002B000AB4204FA02F409D97D1901F1FF3C80F048
:1002C0008B80AB4240F2888002393D44EB1A85B204
:1002D000B3FBFEF00EFB103345EA034500FB08F3C9
:1002E000AB4207D97D1900F1FF3C71D2AB426FD907
:1002F00002383D44EB1A40EA014178E7C1F1200C95
:100300008B4022FA0CF71F4320FA0CF405FA01F394
:100310004FEA174E25FA0CF51C43230CB5FBFEF9EA
:100320001FFA87F80EFB195543EA054509FB08FA41
:10033000AA4502FA01F200FA01F308D97D1909F180
:10034000FF3047D2AA4545D9A9F102093D44A5EBA2
:100350000A05A4B2B5FBFEF00EFB105544EA0544B5
:1003600000FB08F8A04507D93C1900F1FF352DD254
:10037000A0452BD902383C4440EA0940A4EB0804CC
:10038000A0FB02894C45C6464D4619D316D05EB136
:10039000B3EB0E0264EB050404FA0CFCCA404CEA11
:1003A0000202CC40C6E900240021BDE8F0873146B6
:1003B00030460EE7AC46EDE6184601E74345E6D287
:1003C000B8EB020E69EB07050138E0E72846D3E7F2
:1003D00060468FE78146BAE7614677E708464BE714
:1003E000ACF1020C3D4415E702383C4426E700BF5F
:1003F000704700BF10B590B004460DE01F480BF0E9
:10040000EEFE024621E0002228E0002226E0A3685A
:100410005B6A0BB120469847A3685B6C13B120461A
:10042000984740B3A3681B6C13B12046984710B39C
:10043000A3685B6B1BB1204698470028E7D00F48A4
:100440000BF0CDFE3F28D9D94022A3689B69002B31
:10045000D9D0694620469847021ED6DB6946074830
:100460000BF0FEFE0028D2D0A368DB69002BCED0B3
:1004700020469847CBE710B010BD00BF380C0020D5
:1004800010B582B02A482B4B1860002300930DF062
:10049000A6FB18B1002002F02FFA08B102B010BD7F
:1004A000254C1C22002120460CF0EBFD4FF480630C
:1004B0002361224B636140F2FF33A3611C4B9B68B5
:1004C0001B6D1BB16A46042119489847009B2BB944
:1004D00040F6CD4000210AF049FBEFE7144B9B6842
:1004E000DB6C1BB10122082111489847104B9B6817
:1004F000DB6C1BB1012210210D48984710480DF00C
:1005000027FF0B4B9C68236D1BB101AA01210848F2
:1005100098472CB1A36C1BB100220A4904489847A4
:10052000034B9B689B6A002BB8D001489847B5E7FE
:10053000D0E50000540C0020380C002038080020C2
:1005400040420F00F503000008B50B6801330B6053
:10055000014B1B68984708BD00000020014B186044
:10056000704700BF0000002000B583B002460B4674
:100570000021019101A9034800F0C8F803B05DF81B
:1005800004FB00BF4905000010B584B0044601908B
:1005900002910021039101A9054800F0B7F8039BDF
:1005A000029A934201DA0022E254039804B010BD8B
:1005B00089B500002DE9F04383B00446084615468E
:1005C000238B13F0080F05D103F0070600230093D7
:1005D000019369E0012909D043F02003238385F3C7
:1005E0001188BFF36F8F03B0BDE8F08343F01003B1
:1005F0002383F4E720460BF022F857E0D4F8149058
:100600004A46694620460BF033F800275AE0236932
:100610001F68062120460AF0EBFF4FF0000951E069
:1006200023695F68042120460AF0E2FF4FF00009C9
:1006300048E023699F68052120460AF0D9FF4FF062
:1006400000093FE0002246E0002244E043F00803B6
:10065000238385F31188BFF36F8F002944D1009B5A
:100660002BB14B464246694620460BF077F817B14E
:1006700025492046B8474FF02003EFF3118583F357
:100680001288BFF36F8F238B23F008032383238B00
:1006900013F0100F2ED023F0100323830120268B9C
:1006A00006F0070600289AD00228A3D0002896D08A
:1006B0000128A3D00328AAD00428B1D00528B8D097
:1006C0000027B946238B03F00708B045BAD0A268CB
:1006D000002AB9D001221146002AB7D1009A002A77
:1006E000B4D1002FB2D1D2E74A46414620460AF0A3
:1006F00087FFB4E713F0200F04D023F020032383F7
:100700000220CCE70020CAE78BB700002DE9F04FAC
:1007100093B006460D469246039300249AF80000D3
:10072000002800F0D684252808D00AF1010A2946BD
:10073000B0470028C0F2CE840134EFE700230693CF
:1007400007930B93089309930A930AF101089AF807
:100750000130252B01D001272CE00AF102088DF889
:100760002330A8E19DF8203043F004038DF82030B9
:10077000FFB108F101081CE09DF8203043F00803A8
:100780008DF82030F4E79DF8203043F010038DF809
:100790002030EDE79DF8203043F020038DF8203025
:1007A000E6E79DF8203043F040038DF82030DFE786
:1007B00000274FB398F80030203B102BF8D801A247
:1007C00052F823F087070000B1070000B1070000CE
:1007D00095070000B1070000B1070000B107000055
:1007E000B1070000B1070000B1070000B107000029
:1007F00079070000B107000065070000B10700009D
:10080000B1070000A30700009DF8203003F0440367
:10081000442B6DD0CDF814809DF8203043F0800338
:100820008DF8203098F800302A2B68D005A80BF0FE
:1008300009FC059B984512D09DF8203043F08003B9
:100840008DF820300990C3F34003002860DB0022BC
:1008500013439DF8202063F341028DF82020059B6F
:1008600005931B782E2B14BF002301239DF8212014
:1008700063F341028DF82120002B4BD0059B5A1CBD
:1008800005925B782A2B48D005A80BF0DBFB0A9079
:100890009DF82030C3F34003002847DB00221343B8
:1008A0009DF8202063F341028DF82020DDF81480AC
:1008B00098F800304C3B2E2B00F2DC80DFE803F090
:1008C000CADADADADADADADADADADADADADADADA98
:1008D000DADADADADADADADADADADADA38DA6ADA8A
:1008E00051DADADADADADADAC0DADADADADAB60009
:1008F0009DF820306FF386138DF820308AE79DF83D
:10090000213043F001038DF8213043460133A7E73E
:1009100001229DE7DDF81480CAE79DF8213043F0FD
:1009200004038DF8213002F10108C1E70122B6E786
:1009300008F1010298F80130682B08D09DF82130A9
:10094000022161F3C6038DF8213090462BE09DF81B
:100950002130012262F3C6038DF8213008F102082C
:1009600021E008F1010298F801306C2B08D09DF8C5
:100970002130032161F3C6038DF82130904612E047
:100980009DF82130042262F3C6038DF8213008F16E
:10099000020808E09DF82130052262F3C6038DF8B5
:1009A000213008F1010818F8013B8DF82330A3F13C
:1009B0004102372A00F25081DFE812F026014E0191
:1009C0004E014E012601260126014E014E014E0127
:1009D0004E014E014E014E014E014E014E014E019F
:1009E0004E014E014E014E014E0113014E014E01CA
:1009F0004E014E014E014E014E014E0126014E01A7
:100A0000130163002601260126014E0163004E01F9
:100A10004E014E014E012F0113013F014E014E01C7
:100A20003F014E0113014E014E0113019DF821308B
:100A3000062262F3C6038DF8213008F10108B2E7FF
:100A40009DF82130072262F3C6038DF8213008F1AA
:100A50000108A8E79DF82130082262F3C6038DF84B
:100A6000213008F101089DF8203043F002038DF891
:100A7000203098E79DF821306FF3C6038DF82130C0
:100A800091E79DF82220012161F302028DF82220D6
:100A90009DF8212002F07802402A00F0AA80632B02
:100AA00000F0AE809DF82030C3F34002174367F397
:100AB00041038DF820309DF8213013F0010F00F034
:100AC000DA80039B1A1D03921F68002FC0F2CB80AF
:100AD0009DF8213013F0040F00F0DF80039B1A1DF6
:100AE0000392D3F800B0BBF1000FC0F2CD80002319
:100AF00009930A939DF8223003F007039DF8211013
:100B0000C1F3C301012B00F0D180022B00F016814C
:100B1000042B00F06781032B00F07E819DF820906C
:100B200019F00303029340F07D819DF82330253BAB
:100B3000532B00F23382DFE813F0810131023102DE
:100B4000310231023102310231023102310231020D
:100B500031023102310231023102310231023102FD
:100B600031023102310231023102310231023102ED
:100B700031023102310231023102310231023102DD
:100B800031023102310231023102310231023102CD
:100B900031023102310231023102310231023102BD
:100BA000C701310231023102310231023102310218
:100BB000310231023102A101AB01310231023102B5
:100BC0003102AB0131023102310231020802C701A8
:100BD000EA01310231028F013102C70131023102D3
:100BE000C7019DF82220022161F302028DF8222024
:100BF0004EE79DF8201041F001018DF820104EE7DE
:100C0000171E18BF01274DE79DF82230042262F31A
:100C100002038DF82230012744E79DF82230032299
:100C200062F302038DF822309DF8213003F078033F
:100C3000402B7FF437AF012734E79DF822300322A1
:100C400062F302038DF822309DF8213013F0780F03
:100C50003FF428AF012725E79DF8203043F001033A
:100C60008DF820301EE79DF8203043F004038DF806
:100C700020307F422CE79DF92030002B02DB4FF023
:100C8000FF3725E7099F23E79DF821306FF34103E4
:100C90008DF821304FF0FF3B29E713F0020F02D00F
:100CA000DDF828B023E74FF0FF3B20E7CB1E042BF5
:100CB00004D8DFE803F00B1D29353500039B1A1D0E
:100CC00003921A68D317CDE9062306E0039B1A1D89
:100CD00003921A68D317CDE90623012928D00229E7
:100CE0007FF41CAFBDF91820D317CDE9062315E713
:100CF000039B073323F0070303F108020392D3E9B0
:100D00000023CDE90623E8E7039B073323F007031D
:100D100003F108020392D3E90023CDE90623DCE7BF
:100D2000039B1A1D03921A68D317CDE90623D4E753
:100D30009DF81830069300230793EFE6CB1E042B93
:100D400004D8DFE803F00B1F35414100039B1A1D57
:100D500003921B680693002307931EE09DF823303F
:100D6000632B07D0039B1A1D03921B680693002375
:100D7000079312E0039B1A1D03921B68069300233E
:100D800007930AE0039B073323F0070303F10802EC
:100D90000392D3E90023CDE9062301291CD00229BF
:100DA0007FF4BCAEBDF81830069300230793B5E678
:100DB000039B073323F0070303F108020392D3E9EF
:100DC0000023CDE90623E8E7039B1A1D03921B6865
:100DD000069300230793E0E79DF81830069300235D
:100DE00007939BE608290BD0039B073323F00703E7
:100DF00003F108020392D3E90023CDE906238DE62F
:100E0000039B073323F0070303F108020392D3E99E
:100E10000023CDE9062381E6039B1A1D03921B687C
:100E200006937BE643465246294630460BF087F947
:100E30000028C0F24F810444C2466FE429462520B1
:100E4000B0470028C0F246810134DDF808900DF16A
:100E5000460B4FF0000AA7E0DDF818A0BBF1000F29
:100E600008DB594650460CF0DEF80AEB000BDDF8C3
:100E7000089099E050460CF0CEF8F6E7069B8DF806
:100E80003030DDF808900DF1310B0DF1300A8BE0B8
:100E900019F0080F05D119F0100904D04FF02009FE
:100EA00001E04FF02B09DDE90623002A73F1000170
:100EB00002DBCDE9062309E0524263EB4303CDE9AF
:100EC00006234FF02D0901E0DDF808900DF14603EF
:100ED00000930CAB08AADDE906010BF0C6F88246C8
:100EE000BBF1000FC0F290800DF14603A3EB0A03A3
:100EF0009DF820206FF386128DF820209B4540F24C
:100F00008680ABEB030309930DF1460B4CE006988A
:100F100030B9DDF80890DFF8C4B1ABF1050A43E061
:100F20000DF1460300930CAB08AA00210BF09DF8CD
:100F300082469DF8223043F010038DF8223078234A
:100F40008DF82330DDF80890CAE7069A9DF8213025
:100F5000C3F3C303072B06D8DFE803F0040C0E101D
:100F600012171C1E1460DDF808900DF1460B4FF0AF
:100F7000000A19E01470F6E71480F4E71460F2E751
:100F80002046E117C2E90001EDE72046E117C2E97A
:100F90000001E8E71460E6E71460E4E7DDF8089094
:100FA0000DF1460B4FF0000ABAF1000F00F08E80F1
:100FB000ABEB0A02B9F1000F00D001329DF822100C
:100FC00011F0100F26D00232099B134411F0400F8C
:100FD00001D00A9A1344002F32DDFF1A9DF8203009
:100FE00013F0040F2CD113F0400F18D0B9F1000FFB
:100FF00018D029464846B04700286BDB0134DDF89D
:101000000890302302930FE00DF1460BCCE70DF171
:10101000460BC9E711F0080FD6D00132D4E72023E0
:10102000029301E0302302933B465F1E002B07DD55
:1010300029460298B04700284CDB01343B46F4E7D0
:10104000B9F1000F05D029464846B047002841DBDA
:1010500001349DF82230C3F30012C3F3C0031343DD
:1010600005D029463020B047002833DB01349DF8F5
:10107000223013F0100F06D029469DF82300B04708
:10108000002827DB0134099B03F1FF39002B07DD22
:1010900029463020B04700281CDB01344B46F3E7DB
:1010A0005B465246294630460BF049F8002811DBD2
:1010B0000444002F07DD29462020B047002809DB23
:1010C0000134013FF5E7C246FFF728BBC246FFF7F0
:1010D00025BB204613B0BDE8F08F00BFEDE800004F
:1010E00008B504464FF02002EFF3118382F3128813
:1010F000BFF36F8F0CF032FC204603F0C9FB0348AE
:101100000AF05AFA02F0ACFCFCE700BFF0E800007D
:10111000054B984204D3054B984203D300207047F7
:10112000002070470120704740E500009CFA000055
:1011300008B5064B186018B1054B1B68092B00DC7D
:1011400008BD044808F0D4FFFAE700BF880C00206F
:10115000580C00205002002008B5024808F0C8FFD3
:1011600008BD00BF5002002008B503480BF014F979
:10117000003818BF012008BD640C002030B589B0CC
:1011800000220F490F480DF019F90F4D00220023DE
:10119000CDE90623002404940E23039302940194C2
:1011A00000940A4B4FF44072094928460CF09EFD0A
:1011B0000849284608F0AEFD204609B030BD00BF02
:1011C000591100005803002090030020251800004A
:1011D000202700201CE9000008B500230B4A1370EB
:1011E0000B4A13600B4B0C4A1A604FF4004000F09E
:1011F00099FD00F07DFB09480BF0C0F8042328227C
:10120000074908480CF00FFD08BD00BF3925002034
:101210005C0C002004000020B1C30000640C00201E
:10122000404400206C0C0020184BBFF35B8F53E848
:10123000002F511C43E800100028F8D1BFF35B8F4A
:101240001ABB70B5002409E0114B03EB06135B6871
:1012500004221968284600F029FB01340D4B0C4A82
:101260009B1AB4EB231F0FDA2646094D05EB041534
:101270002B7B002BF1D02301054AD3589B69002B0F
:10128000E2D028469847DFE770BD7047600C002029
:1012900048E8000068E8000010B54FF02003EFF3C5
:1012A000118483F31288BFF36F8F04480BF076F834
:1012B00084F31188BFF36F8F10BD00BF640C002052
:1012C00008B5054B1B781BB1034B01221A7008BDF2
:1012D000024808F00DFFF7E73825002050020020F3
:1012E0000C4BBFF35B8F53E8002F013243E8002122
:1012F0000029F8D1BFF35B8F074BBFF35B8F53E837
:10130000002F013A43E800210029F8D1BFF35B8F99
:10131000704700BF5C0C0020580C0020064B0020DA
:101320000246BFF35B8F53E8000F43E8002100291A
:10133000F9D1BFF35B8F70475C0C002038B5FFF725
:10134000EDFF0546002400E001340B4B0B4A9B1ACD
:10135000B4EB231F0FDA094800EB041043685B79F4
:10136000002BF1D02301054AD3581B69002BEBD089
:1013700029469847E8E738BD68E8000048E80000DB
:10138000034B18680028D4BF00200120704700BF1D
:101390005C0C002010B582B00446FFF7B9FE10BB0C
:1013A0000022002301A9114808F05EFC08B1104C8E
:1013B00019E0019B0122BFF35B8F53E8001F43E854
:1013C00000200028F9D1BFF35B8F1F22214601982E
:1013D00004300BF006FE019C7E2384F823300023AA
:1013E00084F824300434204602B010BD6C0C002078
:1013F00024E9000038B1074A904206D3A032904257
:1014000005D300207047002070470020704701205E
:10141000704700BF40440020037A13F0010F00D052
:1014200070472DE9F04383B006460BF07BF8074682
:1014300030460BF062F8014638460AF0BDFF05461B
:1014400004E0012303FA04F425EA04056DB3B5FAB8
:1014500085F4C4F11F04214630460BF051F8814653
:10146000FFF756FE0028ECD14846FFF7C3FF0028DF
:10147000E7D10F4B9945E4D07189C1F3891100F090
:1014800005FA02460B4B0C495B1ADB08012161F39C
:1014900002086FF3C50863F38F18ADF800803B4670
:1014A0002146064800F0B2F8CBE703B0BDE8F08370
:1014B00024E90000F0E70000E0E7000040E9000058
:1014C000F8B5064619BB144B1B780BB1002403E09A
:1014D000FFF7A2FFFAE70134104B114A9B1AB4EB55
:1014E000231F14DA0E4D05EB04156B685B79002B96
:1014F000F1D0314628460AF059FF0028EBD02701E9
:10150000074BDB595B68314628469847E3E730468E
:101510000BF00AF8F8BD00BF3925002068E800008C
:1015200048E8000010B50446104B1B7803B9C8B159
:10153000FFF7B2FE024678B10D4BBFF35B8F53E865
:10154000001F013943E800100028F8D1BFF35B8F7A
:1015500021461046FFF7B4FF14B9FFF711FF10B989
:10156000FFF702FE10BDFFF7E9FEF9E7382500207E
:10157000580C002010B582B01F4BBFF35B8F53E8AF
:10158000002F013243E800210029F8D1BFF35B8F1F
:101590001A4B1B7863B91A4B1B681BB1164A1268A9
:1015A000012A15D0144A12680A2A1CD002B010BDB4
:1015B0004FF02003EFF3118483F31288BFF36F8F92
:1015C0000020FFF7AFFF84F31188BFF36F8FEDE7C3
:1015D00000220023CDE900234FF4004200230948F4
:1015E00009F00AFDE2E7002BE0D006480CF0F2FE1D
:1015F000054808F07DFDD9E7580C0020392500206A
:10160000880C002058030020500200202DE9F041F2
:1016100080460F4616461D4600F08EF9044640B13E
:1016200001234360002202814FF0000362F30003B4
:1016300003724CB1C4F81080637A032262F307137B
:1016400063726761A661E561C4B1BDF8183063815A
:101650000B4B1B689847E0604FF02003EFF31185B8
:1016600083F31288BFF36F8F214606480AF08AFE83
:1016700085F31188BFF36F8FFFF77CFFBDE8F08122
:1016800004000020640C0020F8B506460D461746FD
:1016900000F052F9044640B101234360002101816A
:1016A0004FF0000361F30003037234B12661637AE3
:1016B000012262F3071363726561B4B167810B4B5A
:1016C0001B689847E0604FF02003EFF3118583F328
:1016D0001288BFF36F8F214605480AF053FE85F349
:1016E0001188BFF36F8FFFF745FFF8BD040000209E
:1016F000640C00202DE9F04107460E461546984639
:1017000000F01AF9044640B101234360002202812F
:101710004FF0000362F3000303723CB12761637A68
:10172000022262F3071363726661A561BCB1A4F87B
:101730000A800C4B1B689847E0604FF02003EFF3E2
:10174000118583F31288BFF36F8F214606480AF094
:1017500019FE85F31188BFF36F8FFFF70BFFBDE80C
:10176000F08100BF04000020640C002070B5054625
:101770000E4600F0E1F8044640B101234360002228
:1017800002814FF0000362F30003037204B125618C
:10179000B4B166810B4B1B689847E0604FF02003A3
:1017A000EFF3118583F31288BFF36F8F214606484C
:1017B0000AF0E8FD85F31188BFF36F8FFFF7DAFEBB
:1017C00070BD00BF04000020640C0020124B1B7889
:1017D00003B1704710B5FFF727FD002400E0013486
:1017E0000E4B0F4A9B1AB4EB231F0CDA0C4800EB8C
:1017F000041043685B79002BF1D02301084AD358C9
:101800005B699847EBE70020FFF78CFE0028FAD1D0
:10181000014B01221A7010BD3925002068E8000034
:1018200048E8000008B5FFF7FFFC09F0CBF9FFF727
:101830007FFC06E04FF0FF324FF0FF33044808F022
:101840007BFC0020FFF76EFE0028FAD1F2E700BF14
:101850005002002000B583B004380190BFF35B8FC5
:1018600050E8003F5A1E40E800210029F8D1BFF39C
:101870005B8F012B02D003B05DF804FB01A9024885
:101880000CF0DFF9F7E700BF6C0C0020054B064AAF
:101890009B1AB1EBD30F02D252F8310070470020EF
:1018A000704700BF48E80000E0E7000008B5074BBC
:1018B000C31A1B11013342681371436819604368EE
:1018C00001225A71FFF7FCFC08BD00BF48E8000088
:1018D00010B582B00190019B33B11C6801A9034887
:1018E0000CF0AFF90194F6E702B010BD8C0C0020AB
:1018F00008B520231A46024902480CF094F908BDA5
:10190000E04400208C0C002010B582B0002301932D
:101910000120FFF707FE0446FFF7E2FC0022002348
:1019200001A9044808F0A0F908B1002CF0D10198F1
:1019300002B010BD8C0C002000B583B000230193D1
:101940000AF05BFD50B10022002301A9074808F00E
:101950008BF930B9019803B05DF804FB0022002335
:10196000F3E7FFF7D1FF0190F4E700BF8C0C0020F4
:10197000F0B583B0019004460AF0BFFD237A13F05E
:10198000010F01D1064650BB019B1A7A12F0020FDB
:1019900028D101A915480CF054F903B0F0BD019805
:1019A0000AF0C0FD31460AF007FD074688B9EBE7AB
:1019B0002846FFF74FFF0134B442E5D22146019893
:1019C0000AF09EFD0546FFF715FD0028F3D0002F15
:1019D000E5D027FA04F313F0010FECD0E8E7002775
:1019E0003C46E9E75869FFF773FFD2E78C0C00200B
:1019F0000EB400B582B0014603AB53F8042B01933B
:101A00000348FEF783FE02B05DF804EB03B07047B5
:101A1000C7C80000F0B585B011F0440F05D01A4BCF
:101A20001C6834B9002005B0F0BD1849FFF7E0FF8D
:101A3000F9E7174B1968B2FBF1F1B1FBF4F5154A60
:101A4000A2FB0532D20A4FF4616606FB1256124B16
:101A5000A3FB06735B0904FB15114FF47A7505FBB4
:101A600001F1B1FBF4F707FB141105FB01F1B1FB28
:101A7000F4F402940197C3EB0311A6EB81010091EA
:101A80000649FFF7B5FFCEE7A80C002084E9000067
:101A9000AC0C0020C5B3A2918988888890E9000029
:101AA00061B108B52AB1064A52F8232012B9054A95
:101AB00000E0044A0449FFF79BFF08BD704700BFE0
:101AC00004EA0000ACE90000B4E9000011F0100FD6
:101AD0000BD108B511F0200F03D00449FFF788FFA0
:101AE00008BD0349FFF784FFFAE7704718F40000C8
:101AF00078FA00002DE9F04105460F461646984653
:101B00000699FFF7E3FF0024444505DA23492846F8
:101B1000FFF76EFF0134F7E7002409E01F4928466C
:101B2000FFF766FF0BE01E492846FFF761FF01340F
:101B30000F2C0CDC002C02DD14F0070FEED0B442A9
:101B4000F1D23A5D17492846FFF752FFEFE71649F1
:101B50002846FFF74DFF002409E010492846FFF70B
:101B600047FF0BE011492846FFF742FF01340F2CD5
:101B700012DC002C02DD14F0070FEED0B44206D2C6
:101B80003A5DA2F120035E2BECD92E22EAE703494D
:101B90002846FFF72DFFE9E7BDE8F081DCE900000A
:101BA000C0E90000B8E90000C4E90000C8E900008D
:101BB0002DE9F041804616461D46BDF9187059B909
:101BC0000024002F1CDB86B10123079A934013F0F9
:101BD000100F18D10D4E09E00D4B079A53F8222033
:101BE0000C49FFF705FF0446EBE7084E3946284647
:101BF000FFF74CFE024631464046FFF7F9FE04442B
:101C00002046BDE8F081044EF0E700BFCCE90000BB
:101C100040EA0000D8E90000D4E900002DE9F043D3
:101C200089B007460E46914698460AF07BFC02466C
:101C30000E493046FFF7DCFE0024102503952346AD
:101C400003AA0DEB050138460AF081FC039A52B154
:101C5000CDF800804B460DEB05013046FFF74AFFFB
:101C6000039D2C44E9E709B0BDE8F083B4E9000026
:101C7000F0B583B006460C4600273D460DE0A2684D
:101C8000134413F8017C0A2F14BF002701272046B4
:101C90000AF00CFE019B1D4473B1E36801932B46CF
:101CA00001AAA16830460AF052FC6368019A1A60E2
:101CB000019B002BEBD0E2E70FB903B0F0BD024966
:101CC0002046FFF795FEF8E7E0E9000070B582B026
:101CD0000446056842F20F738B4228BF0B460E4A3A
:101CE0000521684609F076FC064663685B680B22AE
:101CF0000A4928460AF033FC63685B683246694645
:101D000028460AF02CFC63685B681B2204492846BD
:101D10000AF025FC02B070BD70F5000034EA000046
:101D200018EA0000074B01221A60074B984205D9B8
:101D30004008044A13685B001360F6E7034B186021
:101D4000704700BFAC0C002040420F00A80C0020E0
:101D500070B506460D460024AC4207D2044B186805
:101D6000315D83685B6898470134F5E7284670BDAC
:101D7000C40C0020014B024A1A607047C40C0020BA
:101D800000E6000008B502480AF090FD08BD00BF5B
:101D900084EA000008B50248FFF798FF08BD00BFBD
:101DA00084EA000010B50C4608460AF099FB0F22A1
:101DB000214603480AF0A3FD20460AF0B5FB10BDFA
:101DC00084EA0000014B01221A7070473B25002075
:101DD00008B518B9084B00221A7008BD074B1B78CC
:101DE00023B141F288300CF0B3FAF6E7A4200021C9
:101DF00008F0BCFEF1E700BF3B2500203C25002099
:101E000038B504460A4B01221A700A4B1B7803B9F5
:101E100038BD002007F03EFD0028F9D0044B1B78A8
:101E2000002BF5D0651E2046FFF7D2FF2C46F0E7C9
:101E30003B2500203C2500202DE9F04106460D46BB
:101E400004270DE02A463146002007F0BFFC044677
:101E50001CE03846FFF7D4FF1CBB164B1B7803B3BE
:101E6000154B1B78002BEDD1DFF850804FF0FF327F
:101E70004FF0FF33404608F031F82A463146002043
:101E800007F0A4FC0446404608F0B2F8002CE0D16C
:101E9000084B1B78002BDFD0013F3846FFF798FF37
:101EA000DAE714B9034B1B7803B92C462046BDE88A
:101EB000F08100BF3B2500203C25002014020020BB
:101EC00008B5034B01221A7002480AF0EFFC08BD66
:101ED0003C250020C0EA000008B50248FFF7F6FEE6
:101EE00008BD00BFC0EA000010B50C4608460AF065
:101EF000F7FA0F22214603480AF001FD20460AF0B6
:101F000013FB10BDC0EA0000072801D9002070476C
:101F1000024B184480F8BB1001207047EC0C0020E5
:101F2000072801D900207047024B184490F8BB00E5
:101F3000704700BFEC0C002010B50378C3F34113C9
:101F40000A33064C54F8233023B19847002803DBAA
:101F5000012010BD0020FCE70020FAE7EC0C002077
:101F60000A30024B43F82010704700BFEC0C0020F1
:101F7000014B5862704700BFEC0C0020F0B447885A
:101F80003D0A2B1FDBB2012B1ED9FFB2072D1ED835
:101F9000104B5B6A002600E00344187838B15C7887
:101FA000AC42F9D1B74201D00136F5E7012060B16A
:101FB0001360022D02D01B780B6006E09A78DB7864
:101FC00042EA03230B6000E00020F0BC70470020D1
:101FD000FBE700BFEC0C0020F8B584460E460C4B26
:101FE0005B6A176800E013441A7872B15C78042CBD
:101FF000F9D1987885B2BCF80440A542F3D1FFF737
:102000008FFF38700120306000E00020F8BD00BF75
:10201000EC0C0020034B93F8BA00003818BF0120E5
:10202000704700BFEC0C0020074B5B6A00E01344D4
:102030001A783AB159780229F9D119798142F6D939
:102040000120704700207047EC0C002070B4164B44
:10205000164A9B1A9B10164E06FB03F630F08003BF
:102060001DD00024B44218D204EBC4020F4B03EB82
:102070008202156A002304EBC4020C4901EB8202C0
:10208000127F9A4207D905EBC3021279824208D027
:102090000133DBB2EFE70134E4E7002002E0012086
:1020A00000E0012070BC7047540300203003002082
:1020B000398EE338014B9861704700BFEC0C00206B
:1020C000014BD861704700BFEC0C00202DE9F041B6
:1020D0000646144B144AA3EB02084FEAA803134A1E
:1020E00002FB03F80025454518D205EBC5030E4A4F
:1020F00002EB83031F6A002405EBC5030A4A02EBC7
:1021000083031B7FA34207D907EBC400B047002815
:1021100005DB0134E4B2EFE70135E4E70020BDE878
:10212000F08100BF5403002030030020398EE338D3
:10213000F8B5134F134BFF1ABB10134F07FB03F7F0
:10214000002300E00133BB4216D203EBC3040D4D64
:1021500005EB840466680D4C646AA642F2D303EB77
:10216000C30405EB84042469002CEBD0B678057910
:10217000AE42E7D1A04701E06FF08500F8BD00BF97
:102180005403002030030020398EE338EC0C00208B
:102190002DE9F843074688469146194E194BF61A21
:1021A000B310194E06FB03F6002405E04A464146EB
:1021B0003846A84721E00134A6421CD904EBC403E9
:1021C000104D05EB83035B68104A526A9342F2D3C9
:1021D00004EBC40205EB82029569002DEBD09978DF
:1021E0003A799142E2D05B79012BE4D14A464146EB
:1021F0003846A847DFE76FF08500BDE8F88300BFE9
:102200005403002030030020398EE338EC0C00200A
:102210002DE9F843814688461746104E104BF61AB2
:10222000B310104E06FB03F6002400E00134A64272
:102230000FD904EBC4030A4D05EB83035B69002B44
:10224000F4D03A4641464846984703460028EDD127
:1022500001E06FF085031846BDE8F88354030020C1
:1022600030030020398EE33870B582B00D46047912
:102270008DF807402046FFF7E9FE064630B134F0FE
:10228000800306D0FFF7C6FE18B90646304602B0F6
:1022900070BD5DB1204603F08FFB0A4BDB69002B5C
:1022A000F4D00DF1070108209847EFE7204603F02E
:1022B000C9FB044BDB69002BE8D00DF107010920B5
:1022C0009847E3E7EC0C002000B583B083788DF8E5
:1022D00000308388ADF80230C37803F003038DF833
:1022E0000430684603F02AFB10F1780F00D070B973
:1022F0009DF8000003F0F0FB10F1780F00D0D0B98A
:102300000120174B83F8B90003B05DF804FB154BAF
:10231000154A9B1ADB084FF00002012161F302020B
:102320006FF3C50263F38F129DF800100F48FFF79B
:10233000ABF90020E8E70B4B0B4A9B1ADB084FF088
:102340000002012161F302026FF3C50263F38F12F1
:102350009DF800100648FFF797F90020D4E700BF6A
:10236000EC0C002030E80000E0E70000D0EA0000BC
:10237000F4EA000008B50822002102480AF081FEB4
:1023800008BD00BFA70D00202DE9F0410546234BF5
:102390005C6A43881BB10027FF26B04610E0FFF7B8
:1023A000E9FF6A881D4B83F8BA20DB6913B11C4929
:1023B00003209847012720E094F8038023781C44E9
:1023C0002378CBB16378042BF6D0052B08D0022BF1
:1023D000F4D16679B2B26B889A42EFD10127EDE76A
:1023E000B3B26A889342E9D1B8F1000FE6D1204632
:1023F000FFF76AFF0746E1E717B93846BDE8F08105
:10240000FFF7B8FF6A88054B83F8BA20DB69002B19
:10241000F3D0034903209847EFE700BFEC0C0020FE
:10242000A60D002010B5146890F90030002B06DBD3
:102430004378052B18D0092B1DD0002010BD437800
:10244000062B07D0082B08D00BB10020F6E70AF0C6
:1024500095FAF3E7FFF792FDF0E7084B93F8BA30EF
:10246000237001200860E9E7807803F011FAB0FAE0
:1024700080F04009E2E7FFF787FFDFE7EC0C002080
:1024800010B58478204600F0CBFD204603F052FBC7
:1024900010F1780F15D008B9012010BD0A4B0B4A76
:1024A0009B1ADB084FF00002012161F302026FF377
:1024B000C50263F38F1221460548FFF7E5F80020B7
:1024C000EBE70120E9E700BF30E80000E0E70000AB
:1024D00018EB00002DE9F84306461B4B5C6A002709
:1024E000FF25A846B94608E094F80380A578ABB26A
:1024F000B088834213D023781C442378DBB16378FF
:10250000042BF1D0052BF6D1ABB2B2889342F2D1B5
:10251000B278414620460AF03BFA0746EBE71FFA3D
:1025200088F371888B42E6D1C9B2C0B2FFF7ECFCE8
:102530000746A146DFE7044BDB6913B14946072094
:1025400098473846BDE8F883EC0C002070B5044687
:102550000D461646184B9B690BB1984748B1237836
:1025600003F01F03012B0DD0022B13D013B16FF01A
:10257000150070BD324629462046FFF753FF88B14B
:102580000020F6E73246294620460AF00AFA60B1F2
:102590000020EEE73246294620460AF04FFA38B1CD
:1025A0000020E6E76FF01500E3E76FF01500E0E7C5
:1025B0006FF01500DDE700BFEC0C0020F8B5154FFB
:1025C000154BFF1ABB10154F07FB03F70025AF4251
:1025D0001BD905EBC503104A02EB83031E6A0024D6
:1025E00005EBC5030C4A02EB83031B7F9C420AD216
:1025F00006EBC40356F83410187903F0B7FC30B971
:102600000134E4B2ECE70135E1E7002001E04FF0EE
:10261000FF30F8BD5403002030030020398EE3382A
:10262000F8B506460F461C4D1C4BED1AAB101C4D61
:1026300005FB03F5042805D0331FDBB2012B04D9B9
:10264000002414E0FFF796FEF6E7164B93F8B93036
:10265000002BF5D000F004FD042EF1D11248FFF755
:1026600035FD104B002283F8B920E9E70134AC4274
:102670000BD204EBC400094B03EB8000C368002BB2
:10268000F4D03A4631469847F0E7064B1B6A13B13F
:10269000394630469847F8BD5403002030030020E7
:1026A000398EE338EC0C0020FDC9000010B582B073
:1026B000134B1B7DCBB9124CE268019201ABA168B0
:1026C00080200AF0DEF90199A2680A44A260E3685A
:1026D0005B1AE3608BB9E28823699A420DDD13F03F
:1026E0003F0F0AD10122227507E00021044B197522
:1026F0000B460A46802003F047FA02B010BD00BF27
:10270000EC0C002010B584B000230393044600B9FC
:1027100031B3002C40F09480504BDA68002A77DD0A
:1027200003AB4E49896800200AF079FD00287CDB64
:1027300003984A4A916801449160D3681B1AD36098
:10274000002B7FD1104602F1380342F8083F00F118
:102750001001FFF7F1FB00286ED0FFF7A7FF71E033
:10276000082201A90AF05BFD00282EDB9DF8040079
:102770003A4B18709DF805205A70BDF806205A8013
:10278000BDF808209A80BDF80A10D98003F13802FC
:102790009A6000221A751A61DA6010F0800F02D177
:1027A000802916D861BB2D4800F1080200F1100104
:1027B000FFF7C2FB40B3294BDA8819698A42A8BFE8
:1027C0000A46DA60FFF772FF3CE0802003F0F4F87D
:1027D00038E0234B234A9B1ADB084FF0000101220B
:1027E00062F302016FF3C50163F38F111E48FEF718
:1027F000BDFF802003F0E0F8002003F0DDF821E0C9
:10280000164B1961D9601DE0802003F0D5F819E05E
:1028100003AB00221149896810460AF000FD002828
:1028200010DA802003F0C8F80CE0802003F0C4F830
:10283000002003F0C1F805E0802003F0BDF801E0BE
:10284000802C01D004B010BD044BDB681BB9034BD6
:102850001B7D002BF6D0FFF729FFF3E7EC0C0020DF
:1028600030E80000E0E700003CEB000008B5FFF7AF
:102870007FFB08490020FFF773FB07490120FFF7A2
:102880006FFB06490220FFF76BFB0548FFF712FCC0
:10289000002008BD4D25000031210000112200005C
:1028A0009121000008B5104B93F8B8300BB100200F
:1028B00008BD00F0D7F918B1FFF7D8FF0020F7E7FF
:1028C0000A4B0B4A9B1ADB084FF00001012262F30E
:1028D00002016FF3C50163F38F110648FEF746FF4F
:1028E0004FF0FF30E4E700BFEC0C002030E80000C0
:1028F000E0E7000058EB000030B583B005464FF02C
:10290000FF324FF0FF332D4807F0E8FA2C4B93F8D5
:10291000B830002B4AD101200AF038F8041E46DBFB
:10292000274B1D62274C2046FFF7CAFB204603F0C9
:1029300031FB02F065FF041E39DB00F0BDFB041E15
:1029400035DB4023ADF8023000238DF804308DF8DC
:102950000030684602F0F2FF041E28DB80238DF869
:102960000030684602F0EAFF041E20DB1649002012
:1029700003F0FCFA041E1ADB1349802003F0F6FA78
:10298000041E14DBFFF71AFE041E10DB002003F008
:10299000A3F8041E0BDB802003F09EF8041E06DB68
:1029A000074B012283F8B820002400E000240348EC
:1029B00007F01EFB204603B030BD00BF3C020020E4
:1029C000EC0C0020212600000527000010B40E4C5E
:1029D0000E4BE41AA3100E4C04FB03F40023A34295
:1029E0000ED203EBC302094901EB82025268824214
:1029F00001D00133F3E703EBC30301EB830000E0F5
:102A0000002010BC704700BF54030020300300209A
:102A1000398EE33830B58BB001AC1B4D0FCD0FC4F0
:102A20002B6823701022002106A80AF02AFB12222C
:102A3000002116480AF025FB102106A80AF02FFDF8
:102A400000281DDD083820EAE074002216E0A318F3
:102A50000AA90B4413F8103C51000AA800EB13100C
:102A600010F8245C094800F8125003F00F030131FC
:102A70000AAD2B4413F8243C43540132072AE6DD07
:102A800002480BB030BD00BF8CEB0000B00D002041
:102A900070B50446FFF7BEFF20B105460AF0BBFA49
:102AA000064600B970BD0E480AF0B5FA864210D04D
:102AB0000C4B0D4A9B1ADB084FF00001012262F318
:102AC00002016FF3C50163F38F110848FEF74EFE54
:102AD000E8E732462946A01C0AF0AFFAE2E700BF59
:102AE0008CEB000028E80000E0E70000A0EB00000D
:102AF0002DE9F04182B004464FF001130193002507
:102B00002F46A8462E4662E0E378002B5DD1A378DD
:102B10004BB92046FFF75AFF804638B1836813B19E
:102B20003946204698470137FFB24EE0464B474AA8
:102B30009B1ADB084FF00002012161F302026FF3E0
:102B4000C50263F38F1221464148FEF79DFD4FF009
:102B5000FF3073E0B8F1000F18D001AA41462046BB
:102B600009F0C2FF88B3384B384A9B1ADB084FF094
:102B70000001012262F302016FF3C50163F38F11BB
:102B80003448FEF7F3FD4FF0FF3057E02E4B2F4A4D
:102B90009B1ADB084FF00001012262F302016FF380
:102BA000C50163F38F112C48FEF7E0FD4FF0FF30B5
:102BB00044E0032D20D01DBB36B3A31BB370C3F379
:102BC0000723F37037710135EDB223781C44237865
:102BD0007BB36378052BF8D801A252F823F000BF2D
:102BE000B32B0000CB2B00002F2C0000B32B0000D8
:102BF000092B0000552B00002046FFF749FFDAE7BC
:102C0000204609F05DFFDEE70F4B104A9B1ADB08F8
:102C10004FF00001012262F302016FF3C50163F37B
:102C20008F110E48FEF7A2FD4FF0FF3006E026465A
:102C3000CBE7A01C0A4B984203D1002002B0BDE8AC
:102C4000F081FFF755FFF9E728E80000E0E7000012
:102C5000ECEB000050EC00000CEC000070EC00000D
:102C60002F03002008B50C48FFF742FF08B90A48B7
:102C700008BD0A4B0A4A9B1ADB084FF000010122EB
:102C800062F302016FF3C50163F38F110548FEF78C
:102C90006DFD0020ECE700BF7002002028E8000076
:102CA000E0E7000090EC0000002300E00133032B7C
:102CB0000CDC9A0106498A5C8242F7D101EB83124F
:102CC0005268002AF2D001EB831070470020704751
:102CD000C40D00202DE9F04182B0044610F82C5CB0
:102CE00050F8283C13F1100F0CD1036913F0020FB8
:102CF00062D050F8202C82BB13F0040F26D00023A2
:102D000044F8283C54F8283C13F1100F1BD054F819
:102D1000186CC6B154F81C7C54F8148C0AF0CFFF20
:102D2000002840F08F80002344F8183CA4F11000E4
:102D300007F0DEF954F8283C13F18C0F03D042461B
:102D400039462846B04702B0BDE8F08100231A4654
:102D50001946284609F095FED1E701AB50F8241C2E
:102D6000284609F08EFE014680B954F8243C019AA9
:102D7000134444F8243C54F8203C9B1A44F8203C6B
:102D800054F81C3C134444F81C3CBBE7304A314B1C
:102D9000D21AD2084FF00003012060F302036FF350
:102DA000C50362F38F132A462B48FEF7A3FC6FF08E
:102DB000150344F8283CA5E701AB50F8202C50F847
:102DC000241C284602F090FF0146A0B954F8243C88
:102DD000019E334444F8243C54F8203C9B1B44F8A7
:102DE000203C54F81C3C334444F81C3CCEB900232E
:102DF00044F8283C86E7164A164BD21AD2084FF000
:102E00000003012060F302036FF3C50362F38F1325
:102E10002A461148FEF76EFC6FF0150344F8283C73
:102E200070E7284603F0BCF8B6FBF0F300FB136034
:102E30000028DCD154F8203C002BD8D0284602F0E2
:102E4000CDFF5FE7214605480BF03FF87BE700BF69
:102E500040E80000E0E70000C0EC00004004002073
:102E600070B582B006460C46FFF71EFF631EDBB24C
:102E7000012B0AD8054650B10AF021FF08B1012CF8
:102E800022D105F12C00FFF725FF02B070BD012C07
:102E9000FBD101AB01220DF10301304602F024FF0A
:102EA000019B002BF5D10B4B0B4A9B1ADB084FF013
:102EB0000001012262F302016FF3C50163F38F1178
:102EC0000648FEF753FCE0E705F12C0104480AF040
:102ED000FCFFDAE740E80000E0E70000E0EC00007B
:102EE000400400202DE9F0470546884617461E4657
:102EF00009F0A4FE002840F083804FF02003EFF398
:102F0000118983F31288BFF36F8F0024032C10DC28
:102F1000A00100F118033C481844043000220023AB
:102F200007F00AF908B10134F0E7374800EB8414E0
:102F300000E0002444B3D4F804A01AF1100F36D0F6
:102F40002570C4F80880E76000232361089B636153
:102F5000E663099BA3616FF00F036360284603F0EB
:102F60001FF8002839D116F0020F44D004F12C01CB
:102F700026480AF0AAFF4FF0000A89F31188BFF330
:102F80006F8F5046BDE8F087214B224A9B1ADB0821
:102F90004FF00001012262F302016FF3C50163F3F8
:102FA0008F111D48FEF7E2FB6FF00B0AE5E7184BA7
:102FB000184A9B1ADB084FF00002012161F302025C
:102FC0006FF3C50263F38F1229461448FEF75CFBCA
:102FD00004F11C0007F08CF8CFE7284602F0E0FF70
:102FE000B7FBF0F300FB13700028BCD0E36B43F099
:102FF0000403E363B7E7284602F0F0FE8246BCE72D
:103000006FF00F0ABDE700BFC40D00204004002090
:1030100040E80000E0E70000FCEC000018ED0000D4
:1030200010B54FF02003EFF3118483F31288BFF340
:103030006F8FFFF739FE20B10146436813F1100F7F
:1030400004D084F31188BFF36F8F10BD6FF08B0332
:1030500043602C3101480AF038FFF2E740040020B9
:1030600038B5002411E0124BA10103EB84126FF07C
:103070008B0050602831194404310E480AF025FFB6
:1030800085F31188BFF36F8F0134032C0FDC4FF0F1
:103090002003EFF3118583F31288BFF36F8F044B86
:1030A00003EB84135B6813F1100FE9D1DBE738BD44
:1030B000C40D00204004002070B5002611E00B4C28
:1030C000B50105F128002044094904300AF0F7FE53
:1030D00005F1180020440430012211460AF0E0FEF8
:1030E0000136032EEBDD002070BD00BFC40D0020B3
:1030F000D52C000070B504460E46154601791E48D1
:1031000009F068FD58B194F90020002A27DB6278A5
:10311000202A18D0222A1DD06FF0850028E0174BF6
:10312000174A9B1ADB084FF00002022161F30202EA
:103130006FF3C50263F38F12A1881248FEF7A4FA59
:103140006FF0120014E0072229680C3809F075FFAF
:1031500000200DE0A27800F8052C002008E062783D
:10316000212A06D1A0F10C032B6007233360002035
:1031700070BD6FF08500FBE7C40E002020E8000062
:10318000E0E7000054ED000010B5044601460D488C
:1031900009F034FD18B1012200F8032C10BD0A4BD0
:1031A0000A4A9B1ADB084FF00002022161F3020277
:1031B0006FF3C50263F38F1221460548FEF764FAE8
:1031C000ECE700BFC40E002020E80000E0E70000AC
:1031D0007CED000008B50169012381F82B300B68F4
:1031E00013B191F8293003B908BD083101480AF03C
:1031F0006CFEF9E74004002008B50169012381F85D
:103200002A300B6813B191F8283003B908BD083192
:1032100001480AF05AFEF9E74004002010B50346C1
:10322000002480F87E4080F87F4080F8294080F8B4
:1032300028400A4A92E803005867A3F87810090C5E
:1032400083F87A1083F87C4083F87B404022214643
:1032500003F12C0009F015FF10BD00BFD0E80000FD
:1032600070B51446066996F87E3013B196F87F3033
:1032700093B11A4B1A4A9B1ADB084FF00002022145
:1032800061F302026FF3C50263F38F122146154802
:10329000FEF7FAF9002070BD002386F82830306F61
:1032A00008F0DEFF0546844206D806F118010E48F4
:1032B0000AF00BFE2846EEE7084B094A9B1ADB088A
:1032C0004FF00002022161F302026FF3C50263F3C3
:1032D0008F12211A0548FEF7D7F9E6E720E800002B
:1032E000E0E70000A4ED000040040020D8ED00005D
:1032F00070B582B0064614460D1E0FDD2A4604F155
:103300002C01E06E08F0ACFF854213D8012384F84D
:103310002930236813B194F82B30EBB90194114B89
:1033200000930123402204F12C013046FFF7DAFD1F
:1033300002B070BD0C4B0D4A9B1ADB084FF0000227
:10334000012161F302026FF3C50263F38F12291AA0
:103350000748FEF799F9D9E704F1080105480AF092
:10336000B4FDDBE7F132000020E80000E0E70000F8
:10337000D8ED00004004002038B50446D0F8803075
:103380005D680139052906D8DFE801F00305063735
:103390004B5FFFF743FF38BD454B464A9B1ADB089E
:1033A0004FF00001032262F302016FF3C50163F3E2
:1033B0008F114148FEF7DAF994F87E309BB194F80A
:1033C0002830002BE7D1012384F828302368002B14
:1033D000E1D094F82A30002BDDD004F10801374801
:1033E0000AF073FDD7E72B6A22460021187BFFF70E
:1033F0007FFF012384F87E30E1E72D4B2D4A9B1A95
:10340000DB084FF00001032262F302016FF3C501F4
:1034100063F38F112A48FEF7A9F92046FFF7FEFE55
:10342000B9E7234B234A9B1ADB084FF00001032224
:1034300062F302016FF3C50163F38F112148FEF7B8
:1034400095F9012384F87F30A5E7194B194A9B1A97
:10345000DB084FF00001032262F302016FF3C501A4
:1034600063F38F111848FEF781F994F87F30002B31
:1034700091D00F4B0F4A9B1ADB084FF0000103223B
:1034800062F302016FF3C50163F38F110F48FEF77A
:103490006DF9002384F87F3094F87E30002B3FF4E0
:1034A0007AAF2B6A22460021187BFFF721FF72E7D3
:1034B00020E80000E0E70000FCED000040040020F0
:1034C00010EE000024EE000038EE000048EE000090
:1034D00070B504460D46164601460E4809F068FBD5
:1034E00028B1324629468038FFF746FF70BD0A4BA7
:1034F0000A4A9B1ADB084FF00002022161F3020224
:103500006FF3C50263F38F1221460548FEF7BCF83E
:10351000ECE700BFC40E002020E80000E0E7000058
:1035200058EE000030B585B005694368A1228DF8DA
:10353000042020228DF805200024ADF80640ADF8C7
:1035400008400222ADF80A20ADF80C1085F87D4045
:10355000186A23460A2201A9007909F092FA95F81F
:103560007D304BB901200AF0F3FE0134044B9C423C
:10357000F5D96FF0040000E0002005B030BD00BFB9
:10358000A086010010B582B08DF80710046994F888
:103590007E3013B194F87F308BB1284B284A9B1AA8
:1035A000DB084FF00001032262F302016FF3C50153
:1035B00063F38F112348FEF7D9F802B010BD002342
:1035C00084F8283001220DF10701206F08F048FE31
:1035D000E0B91A4B1A4A9B1ADB084FF0000103228C
:1035E00062F302016FF3C50163F38F111648FEF712
:1035F000BDF801220021206F08F09CFE60B101227D
:103600000DF10701206F08F02BFE28B104F118011D
:103610000E480AF05AFCD0E7084B094A9B1ADB080F
:103620004FF00001012262F302016FF3C50163F361
:103630008F110748FEF79AF8BFE700BF20E80000A7
:10364000E0E700007CEE00009CEE0000400400205B
:10365000BCEE000010B51446012382F82830136830
:1036600013B192F82A3023B9206F08F095FD30B1DC
:1036700010BD02F1080105480AF027FCF4E704F147
:10368000180102480AF021FCF2E700BF40040020C4
:1036900010B50469C4F8800004F184030022C4F862
:1036A00084200B4A526872B11360094A5360094979
:1036B00004F108000AF003FC074904F118000AF0BD
:1036C000FEFB002010BD024A53601360EFE700BF0D
:1036D000C40E00206DCC0000DD360000F0B585B0D2
:1036E0000446A0F11807836E5B681B6A1D7D28469F
:1036F00009F0A4FA08B105B0F0BD4FF4806203A947
:10370000A06D08F0CDFD06460028F4D010F03F0F64
:1037100000D1461E0197064B0093022332460399BF
:103720002846FFF7DFFB3146A06D08F0E5FDE2E734
:103730005536000030B583B0084D002400944FF09A
:10374000FF334FF480620649284606F03FFE0549E4
:10375000284606F0DFFA204603B030BD40040020C2
:10376000402A002040EF00001B4B1B68002B32D189
:1037700030B585B0184B01221A60184B93E807004A
:1037800004AB03E90700164B63B109F0ADFC4FF041
:103790002003EFF3118583F31288BFF36F8F114B72
:1037A0001C680AE0002383F31188BFF36F8FEEE7F4
:1037B00023460CB1236843B11C4634B1A368002BE7
:1037C000F6D0064A10789847F2E785F31188BFF3E0
:1037D0006F8F05B030BD7047E0000020D40E002090
:1037E000E9D00000CC0E002070B588B006462A4C07
:1037F0006D460146284609F065FB95E8070084E818
:1038000007002078002845D0244B00221A60B6F12A
:10381000FF3F0CD106F096FE4FF02003EFF3118529
:1038200083F31288BFF36F8F1D4B1C6816E0A368EB
:10383000590CD8031B4C1C4A002300194FF00004FC
:1038400044EB0101FCF75CFC0121301A0AF051FD48
:10385000E0E723460CB1236843B11C4634B16368EA
:10386000002BF6D00C4A10789847F2E785F31188C0
:10387000BFF36F8F084B93E8070008AB03E907001D
:103880000A4B0BB109F01DFCFFF76EFF07F058F86B
:10389000014B187808B070BDD40E0020E000002065
:1038A000CC0E00203F420F0040420F00C3D000006A
:1038B00008B5024807F0ACFC08BD00BF54EF00009B
:1038C000D0B108B54268042A05D0D2B1006806F02C
:1038D0008FFB002008BD03680022BFF35B8F53E815
:1038E000001F012903D143E800200028F7D1BFF3CE
:1038F0005B8F04D11046EDE76FF4E040704702485B
:10390000E8E70248E6E700BFE98FFFFFEA8FFFFF25
:1039100020B308B54268042A02D092B911480FE0DA
:1039200003680122BFF35B8F53E8001F002903D116
:1039300043E800200028F7D1BFF35B8F0CD10020B3
:1039400008BD00684FF0FF324FF0FF3306F0C6FAB3
:103950000028F5D00448F3E70348F1E76FF4E040AE
:10396000704700BFEA8FFFFFE98FFFFF10B50446E5
:1039700088B16368042B0DD0082B0BD053B113F022
:10398000020F0DD0214609480AF05BF9002323609D
:103990000023636010BD064B5B6806489847E8E764
:1039A00014220021206809F06CFBF1E7E00E0020F2
:1039B000400100205CEF000010B5044678B1636858
:1039C000042B0BD0082B09D00BB9236863B12068F6
:1039D0000AF0D6F9636843F00103636010BD0F4B32
:1039E0005B680F489847EAE74FF0FF324FF0FF332C
:1039F00021460C4806F038F908B923681BB9074B73
:103A00005B680948984714220021206809F039FBB7
:103A1000636843F002036360D9E700BF4001002000
:103A20005CEF0000E00E002084EF000008B54023AA
:103A30001422044904480AF0F6F80449044807F03F
:103A400049FC08BDFC0E0020E00E0020C4EF000081
:103A5000B4EF0000014910220A60704710ED00E049
:103A600072B6404080F31188BFF36F8FBFF34F8F62
:103A700030BF62B6BFF36F8F704700BF72B6494068
:103A800081F3118820BF80F3118862B6704700BFB0
:103A900070B582B004461F4D1F4BED1AED0801268C
:103AA0004FF0000366F302036FF3C50365F38F1352
:103AB000ADF800308368426801681848FDF7A6FD3C
:103AC0004FF0000366F302036FF3C50365F38F1332
:103AD000ADF8003063692269E1681148FDF796FD91
:103AE0004FF0000266F302026FF3C50265F38F1216
:103AF000E1690C48FDF7C8FD4FF0000266F30202D1
:103B00006FF3C50265F38F12A1690748FDF7BCFD8D
:103B100002B070BD00E80000E0E70000D8EF000050
:103B200008F0000038F0000048F0000043B2002B1D
:103B300008DB00F01F005B09012202FA00F0024AD4
:103B400042F82300704700BF00E100E043B2002BC1
:103B50000DDB00F01F005B09012202FA00F02033A8
:103B6000034A42F82300BFF34F8FBFF36F8F7047B4
:103B700000E100E04209054B53F8222000F01F004D
:103B8000012303FA00F01040704700BF00E100E09D
:103B9000013143B2002B08DB4901C9B203F1604394
:103BA00003F5614383F80013704700F00F004901EB
:103BB000C9B2014B1954704714ED00E030BFFFF754
:103BC000FDBF00BF08B50B4B0B4A22F07F029A6085
:103BD000BFF34F8FBFF36F8FD3F8882022F47002AA
:103BE000C3F8882005F0DEFF07F03CF800F0B6FCD3
:103BF00005F0E4FF00ED00E0000000000A4A9368D1
:103C0000C3F8A80009490968C3F8AC1008494B6813
:103C100043F080534B60002383F31188BFF36F8F11
:103C20009368D3F8AC007047DC240020ECF8000067
:103C300000ED00E013498A684FF030001044EFF3C4
:103C4000098C80E8F01F202080F31288BFF36F8F6B
:103C50000D4F4FF00066CA698A603E60D2F8A80036
:103C60000023C2F8A83080F3118804B5104600F094
:103C700017FDBDE8044002F1300090E8F01F8CF31E
:103C800009887047DC24002004ED00E01EF0040FDA
:103C90000CBFEFF30880EFF30980816911F8021C73
:103CA0000229FFD001B509F022F901BD10B4A2F13B
:103CB00020040D4921F0010142F8081C42F8203C83
:103CC000019B42F81C3C029B42F8183C039B42F8C3
:103CD000143C4FF0807342F8043C04650023C0F8A4
:103CE000A83010BC704700BF57B90000164B9A6847
:103CF000DAB110F1160F1AD010B4D2F89830A3F13F
:103D00002004844205D8834208D98B4208D8002178
:103D100000E0002131B9002010BC70470021F9E714
:103D20000121F7E7D2F89800F6E700207047D2F8B3
:103D300098308B4294BF0021012109B900207047BF
:103D4000D2F89800704700BFDC24002008B50D466B
:103D50001446084B986000F0A3FC204685F30988C0
:103D6000002163B681F31188BFF36F8F0022002317
:103D700007F0F1FDDC24002001B572B60B4A906912
:103D800000281EBF0021916109F0D2FF62B6EFF357
:103D90000580A0F110004FEAC0000549014409C99F
:103DA0009847BDE80140034908470000DC24002093
:103DB00060E60000B93D0000044B9968D86988426C
:103DC00003D003494FF080520A607047DC24002082
:103DD00004ED00E008B54E4B4E4A9B1ADB084FF04D
:103DE0000001012262F302016FF3C50163F38F1139
:103DF0004948FDF7BBFC494B9B6A13F0007F21D17A
:103E0000464B9B6A13F0807F2DD1444B9B6A13F481
:103E1000002F39D1414B9B6A13F4802F45D13F4B82
:103E20009B6A13F4003F51D13C4B9B6A13F4803FD3
:103E30005DD13A4A936A6FEA03436FEA1343936290
:103E4000002008BD324B334A9B1ADB084FF00001BB
:103E5000012262F302016FF3C50163F38F11304851
:103E6000FDF784FCCCE72A4B2A4A9B1ADB084FF06B
:103E70000001012262F302016FF3C50163F38F11A8
:103E80002848FDF773FCC0E7214B224A9B1ADB0848
:103E90004FF00001012262F302016FF3C50163F3E9
:103EA0008F112148FDF762FCB4E7194B194A9B1AA0
:103EB000DB084FF00001012262F302016FF3C5013C
:103EC00063F38F111948FDF751FCA8E7104B114A15
:103ED0009B1ADB084FF00001012262F302016FF32D
:103EE000C50163F38F111248FDF740FC9CE7084BB6
:103EF000084A9B1ADB084FF00001012262F302011D
:103F00006FF3C50163F38F110A48FDF72FFC90E7AB
:103F100000E80000E0E7000078F0000000ED00E0BD
:103F200090F00000A4F00000C0F00000E0F00000FD
:103F300008F1000024F1000008B500220A70084BC7
:103F400008495B1ADB084FF00001012060F3020111
:103F500062F3C50163F38F110348FDF707FC08BD49
:103F600000E80000E0E7000050F1000070B50546F1
:103F70000E4614465E4B5F4A9B1ADB084FF0000169
:103F8000012262F302016FF3C50163F38F115A48F6
:103F9000FDF7ECFB594B9B6A13F4805F24D1574B20
:103FA0009B6A13F4006F30D1544B9B6A13F4007F6B
:103FB0003CD1524B9B6A13F4806F65D14F4B9B6A87
:103FC00013F4807F71D14D4B9B6A13F4005F7DD158
:103FD0004A4A936A43F47F4393620121284608F0DA
:103FE00098FF2070002070BD414B424A9B1ADB08AD
:103FF0004FF00001012262F302016FF3C50163F388
:104000008F113F48FDF7B2FBC9E7394B394A9B1A7C
:10401000DB084FF00001012262F302016FF3C501DA
:1040200063F38F113748FDF7A1FBBDE7304B314AF1
:104030009B1ADB084FF00001012262F302016FF3CB
:10404000C50163F38F113048FDF790FB2B4B996B43
:104050009B6A13F4004FACD0254B264A9B1ADB0811
:104060004FF00002012060F302026FF3C50263F318
:104070008F122648FDF708FB002E9AD01F4A936A3C
:1040800023F40043936294E7194B1A4A9B1ADB0806
:104090004FF00001012262F302016FF3C50163F3E7
:1040A0008F111B48FDF762FB88E7114B114A9B1AE1
:1040B000DB084FF00001012262F302016FF3C5013A
:1040C00063F38F111348FDF751FB81E7084B094A51
:1040D0009B1ADB084FF00001012262F302016FF32B
:1040E000C50163F38F110C48FDF740FB70E700BF7B
:1040F00000E80000E0E7000074F1000000ED00E0DF
:104100008CF10000A0F10000B4F10000D0F100003B
:10411000E8F1000004F200001CF20000F8B50546CA
:104120000C461646644B654A9B1ADB084FF00001AB
:10413000012262F302016FF3C50163F38F1160483E
:10414000FDF714FB5F4B9B6A13F0100F32D15D4BF0
:104150009B6A13F0080F3ED15A4B9B6A13F0020F73
:104160004AD16FF01507574B9B6A13F0010F75D1B9
:10417000544B9B6A13F0200F40F08180514B9B6A97
:1041800013F0100F04D14F4B9C6A14F0020405D0B9
:104190004C4B5C6814F4006440F08280494A936A96
:1041A00043F0FF0393620121284608F0B2FE30700D
:1041B0002046F8BD404B414A9B1ADB084FF00001F6
:1041C000012262F302016FF3C50163F38F113E48D0
:1041D000FDF7CCFABBE7384B384A9B1ADB084FF0A7
:1041E0000001012262F302016FF3C50163F38F1135
:1041F0003648FDF7BBFAAFE72F4B304A9B1ADB0876
:104200004FF00001012262F302016FF3C50163F375
:104210008F112F48FDF7AAFA2A4B5F6B9B6A13F0A8
:10422000800F02D16FF015079DE7234B234A9B1A9D
:10423000DB084FF00002012161F302026FF3C502B7
:1042400063F38F1239462348FDF71EFA002C8AD0FB
:104250001C4A936A23F08003936284E7164B174A43
:104260009B1ADB084FF00001012262F302016FF399
:10427000C50163F38F111848FDF778FA78E70E4B04
:104280000E4A9B1ADB084FF00001012262F3020183
:104290006FF3C50163F38F111048FDF767FA6DE7FF
:1042A00029463846FFF722FD044600283FF476AF42
:1042B00080F30988022471E700E80000E0E70000CD
:1042C0004CF2000000ED00E064F20000A0F10000FC
:1042D00098F20000B0F20000C8F200001CF20000EA
:1042E00070B505460C46474B474A9B1ADB084FF012
:1042F0000001012262F302016FF3C50163F38F1124
:104300004248FDF733FA00232370414BDE6A16F072
:10431000020609D13E4BDB6A002B17DB3C4BD86A07
:1043200010F0804024D170BD364B374A9B1ADB0811
:104330004FF00001012262F302016FF3C50163F344
:104340008F113448FDF712FA0020ECE72D4B2E4A6E
:104350009B1ADB084FF00001012262F302016FF3A8
:10436000C50163F38F112C48FDF700FA3046DAE7F8
:10437000244B254A9B1ADB084FF00001012262F30F
:1043800002016FF3C50163F38F112448FDF7EEF9C5
:10439000AB6933F8022C4DF602739A420ED003F14A
:1043A000604303F626631B78DBB91D4B1B78F3B91A
:1043B0001C4B1B889BB203BB3046B4E7114B124A1F
:1043C0009B1ADB084FF00002012161F302026FF338
:1043D000C50263F38F1229681348FDF755F9286861
:1043E000A1E7224601212846FFF798FE9BE72246D7
:1043F00001212846FFF7BAFD95E72846FFF7EAFCBA
:1044000091E700BF00E80000E0E70000E8F20000EC
:1044100000ED00E000F3000024F3000034F300009E
:1044200029ED00E02AED00E054F3000008B50A464B
:104430000B480C4BC01AC0084FF00003012161F378
:1044400002036FF3C50360F38F130F2A05DC0649DF
:10445000103A0648FDF74EF908BD0549F8E700BFD8
:1044600000E80000E0E7000070F30000A4F30000A3
:1044700088F3000070B58AB02B4B5D68C5F3080562
:10448000002383F31188BFF36F8F02F07F43B3F1F2
:104490007F4F2AD102F00C03082B10D012F0080F26
:1044A00020D00C4600260DF127022946204608F0B0
:1044B00032FD05469DF82730D3B10AB070BD1B4BC5
:1044C0001B4A9B1ADB084FF00001012262F3020134
:1044D0006FF3C50163F38F111648FDF747F9002606
:1044E0003446E0E704460126DDE700263446DAE7F5
:1044F0002022214601A808F0A0FD4EB1089BC3F37D
:1045000008025AB96FEA53236FEA4323089305E080
:10451000089B23F4FF7323F00103089301A92846A5
:1045200008F0D9FCC9E700BF00ED00E000E800009A
:10453000E0E70000B8F30000024A536943F01003BB
:104540005361704700ED00E0EFF30880EFF309815D
:1045500001B57246FFF78EFF01BD00BF002206E0E5
:1045600002F00F01094B0B442021197601322F2A4A
:104570000ADC53B2002BF3DB03F1604303F5614324
:10458000202183F80013F1E7704700BFFCEC00E046
:10459000002080F31488BFF36F8F09F0CBFF002059
:1045A0000D490860BFF34F8F0C4880F3088800F076
:1045B00029F8202080F3118809484FF4026140183F
:1045C00080F30988EFF314800221084380F31488F4
:1045D000BFF36F8FFFF7F6FA94ED00E0803600200E
:1045E00000380020064B1868C0F3072000238342E0
:1045F00005DA034A9360002111610133F7E7704740
:1046000090ED00E010B572B6002484F31388FFF734
:10461000E9FF234608E003F120010E4A4FF0FF3086
:1046200042F821000133DBB2072BF4D9002308E064
:1046300003F16001074A4FF0FF3042F821000133D7
:10464000DBB2072BF4D962B6BFF34F8FBFF36F8F86
:1046500010BD00BF00E100E008B5084B9B68834235
:1046600002D006F0C5FA08BDEFF30583002BF8D0A1
:10467000034A536843F080535360F2E7DC24002080
:1046800000ED00E008B5034B034A0121034808F0A0
:1046900097FC08BD0000042000000020E8F30000A3
:1046A00008B5D0F89830203B0448036020234360CD
:1046B000034B8360012108F087FC08BDFC13002038
:1046C00000000B15064A90600B6823F01F0303439C
:1046D00043F01003D3608B6843F00103136170470C
:1046E00090ED00E010B50446072803D8FFF7EAFF75
:1046F000204610BD094B0A4A9B1ADB084FF0000206
:10470000012161F302026FF3C50263F38F120146C8
:104710000448FCF7B9FF6FF01500EAE7F8E700007E
:10472000E0E70000F4F300002DE9F04780460F4673
:104730009A461646002409E02946F0B208F021FC0A
:10474000064610F1160F25D001360134BC4221DA9D
:1047500004EB440508EB85056A68002AF5D0BAF138
:10476000000FE9D0284608F0FBFB0028E4D10B4BF2
:104770000B4A9B1ADB084FF00002012161F3020291
:104780006FF3C50263F38F1221460648FCF77CFFE6
:104790006FF015063046BDE8F08700BFF8E700006F
:1047A000E0E700001CF4000010B5034C0123227860
:1047B000FFF7BAFF207010BD3D25002008B500238B
:1047C000084A1278FFF7B0FF10F1160F08D0034621
:1047D000072B05DC044A9360002111610133F7E7E0
:1047E00008BD00BF3D25002090ED00E0034B0522F1
:1047F0005A60BFF34F8FBFF36F8F704790ED00E0AB
:10480000BFF35F8F014B00225A60704790ED00E0CC
:1048100038B50E4B1D68082D15D8FFF7F1FF0024A1
:10482000A5420AD9094B596804EB44029300194484
:104830002046FFF747FF0134F2E7054B1D70FFF7F5
:10484000D5FF002038BD4FF0FF30FBE750F40000EB
:104850003D250020014B1860704700BF0401002077
:104860004FF02003EFF3118283F31288BFF36F8FB1
:1048700001230649C1F840354FF08041C1F8783531
:1048800082F31188BFF36F8F0020704700E0014072
:10489000C0B24FF08043C3F81C05BFF34F8F0549EA
:1048A000CA6802F4E062044B1343CB60BFF34F8F3E
:1048B00000BFFDE700ED00E00400FA0530B108B5E7
:1048C0008001034B43F00103984708BD704700BFC8
:1048D000E0E8000000F07F0342B2002A12DB082B60
:1048E00002D010F0780F1DD100F00F03002A10DB6A
:1048F00010F0080F1AD109335B0148330C48034408
:10490000181D7047082BEFD010F0780FECD0002066
:10491000704710F0080F07D15B0148330448034487
:10492000181D7047002070470248704702487047C2
:10493000081A0020541B0020741C002010B500240D
:1049400005E0E0B208F0DBFB08F0E3FB0134072CE4
:10495000F7D9002406E0104B03EB8413036108F041
:10496000D8FB0134072C06D8E0B208F0CEFB03696F
:10497000002BF4D1EFE7882008F0C1FB08F0C9FB59
:10498000082008F0C2FB03691BB108F0C2FB00203D
:1049900010BD024B0361F8E708180020081400203E
:1049A00010B582B00B4802F01DFF0B4802F05EFF0D
:1049B000002400944FF0FF334FF480620749084809
:1049C00005F004FD0749084809F079FA204602B0CD
:1049D00010BD00BF94F6000098F60000602E002085
:1049E00010050020614C0000301A002030B583B063
:1049F00005460022002301A92E4805F035F980B9AB
:104A0000019C64605CB100232374257221462A480E
:104A100009F03AFA294B93F82430002B44D103B023
:104A200030BD274B274A9B1ADB084FF000010122BB
:104A300062F302016FF3C50163F38F112248FCF7A3
:104A400095FE04E0011D1B4809F0FBF844B100226B
:104A50000023194805F010FB04460028F2D1F5E7C1
:104A60000022002301A9134805F0FEF880B1144B81
:104A7000144A9B1ADB084FF00001012262F3020185
:104A80006FF3C50163F38F111048FCF76FFEB9E7B0
:104A90000199496004230B74074809F0F5F90C49A2
:104AA0000C4809F012FAADE709490A4809F00DFA75
:104AB000B5E700BFBC01002060020020081A0020FA
:104AC00038E80000E0E7000074F4000094F400000F
:104AD000301A00201005002008B5012814D0022843
:104AE00015D098B10B4B0C4A9B1ADB084FF0000213
:104AF000012161F302026FF3C50263F38F120146D5
:104B00000648FCF7C1FD04E0002000E00120FFF7AB
:104B10006DFF08BD38E80000E0E70000B0F40000D9
:104B200030B583B00820FFF7D5FE20B10546037AE3
:104B300093B903B030BD404B404A9B1ADB084FF09D
:104B40000001012262F302016FF3C50163F38F11CB
:104B50003B48FCF70BFEECE7012343770377002289
:104B6000002301A9374805F07FF880B9019C6460F3
:104B7000002C4FD0012323742373A56021463248B3
:104B800009F082F93149324809F09FF9D1E72A4BFF
:104B90002A4A9B1ADB084FF00001012262F302014E
:104BA0006FF3C50163F38F112A48FCF7DFFD00E0C6
:104BB00064B100220023244805F05EFA0446002870
:104BC000F6D0011D1F4809F03CF8F1E70022002350
:104BD00001A91C4805F048F880B1174B174A9B1AE9
:104BE000DB084FF00001012262F302016FF3C501FF
:104BF00063F38F111848FCF7B9FDB9E701994960D3
:104C000004230B74104809F03FF91049104809F0CB
:104C10005CF9ADE7084B094A9B1ADB084FF000012D
:104C2000012262F302016FF3C50163F38F110B4898
:104C3000FCF79CFD7DE700BF38E80000E0E70000DE
:104C4000CCF40000BC01002060020020301A0020DB
:104C50001005002074F4000094F40000E0F400005B
:104C60002DE9F04F85B005468FE1211DB54808F0CC
:104C7000E8FF8AE115F8043C4BB1D4F808A0237B87
:104C8000032B00F27E81DFE803F014619DA4AE4B9C
:104C9000AE4A9B1ADB08012262F302076FF3C507D5
:104CA00063F38F17A3683A46597AA948FCF7ECFCDE
:104CB000E3E7DAF814B008220021584608F0E1F9D9
:104CC000A44BD3F880248BF80020D3F884248BF8ED
:104CD0000120D3F8882492B2D3F88C14090289B247
:104CE0000A43ABF80220D3F8902492B2D3F894147C
:104CF000090289B20A43ABF80420D3F8982492B28F
:104D0000D3F89C341B029BB21343ABF80630082245
:104D1000CAF80C205946904808F08FF9DAF80030AC
:104D200000219AF8090098479BF90030002B02DB1C
:104D3000BBF8063023B9894B0022A3F88C2220E16E
:104D4000864AA2F88C3204F06DF81AE19AF81D3008
:104D5000002B00F016819AF81C30002B00F0118116
:104D60004FF0000B8AF81DB08AF81CB04FF0FF32EC
:104D70004FF0FF337A4805F0B1F8DAF814300193B8
:104D8000DAF804300293CDF80CB001A99AF80900C2
:104D900003F0FCFB0146734B984203D1704805F0C9
:104DA00027F9EEE0684B694A9B1ADB08012262F39F
:104DB00002086FF3C50863F38F1842466A48FCF790
:104DC00063FCEBE7DAF8003001219AF80900984714
:104DD000D7E09AF80A3013B99AF81F3033B1DAF8ED
:104DE000003002219AF809009847CAE0DFF870B154
:104DF0004FF0FF324FF0FF33584605F06FF804F0E4
:104E000063F8584605F0F4F8E9E7237A042B00F23A
:104E1000B880DFE803F022030E35440003F044FBC2
:104E2000002840F0AE8003F089FA4C4808F0D8F929
:104E3000A7E0DFF828A1504608F0A0F9012003F010
:104E400017FB01238AF82530DAF80030002B00F038
:104E5000988000210220984793E0DFF800A100230A
:104E60008AF8253004F0E6FA504608F066F9DAF8D8
:104E70000030002B00F0858000210420984780E05E
:104E8000364B93F82530002B7BD004F0F5FA334BEA
:104E90001B68002B75D000210520984771E02F4B2F
:104EA0001B68002B6DD02D4A92F82520002A68D06F
:104EB00000210620984764E005F1100A4FF0FF3208
:104EC0004FF0FF33504605F009F8FFF737FD504625
:104ED00005F08EF855F8283C002B52D00021012017
:104EE00098474EE0FFF71CFE55F8283C002B48D0B1
:104EF00000210A20984744E0134B144A9B1ADB0810
:104F0000012262F302066FF3C50663F38F16314682
:104F10001648FCF72BFC08F0BFFD04F08BFA03F0F9
:104F200003FA06E0011D074808F08BFEBAF1000FF6
:104F300020D0002200230E4805F09EF8824600286B
:104F4000F0D1F3E7BC01002038E80000E0E7000002
:104F5000F4F40000007002400C1A0020081A00202F
:104F6000401A00200000AD0B1CF5000044F50000C5
:104F700060020020FFF7E2FC08F087FD1C4803F008
:104F8000ADFA211D1B4808F05CFE002200231A48E0
:104F900005F072F8044638B3184B93F825301BB966
:104FA000237C002B7FF461AE217C04290CD801A363
:104FB00053F821F00B4E0000754C0000B94E000074
:104FC000E54E0000F94E00000D4B0E4A9B1ADB081F
:104FD000012262F302096FF3C50963F38F194A4690
:104FE0000948FCF751FBCCE705B0BDE8F08F00BFE6
:104FF00069560000BC01002060020020081A002051
:1050000038E80000E0E700005CF5000070B582B011
:10501000044686783046FFF75DFC054616F0800FA3
:1050200022D1E178002900F0D880012940F05C818C
:105030000022002301A9B64804F016FE002840F023
:105040008980019C6460002C00F05F8101236B77F4
:1050500023742373A5602146AE4808F015FFAE49BE
:10506000AE4808F032FF50E1E178A1B1032900F029
:105070004C81AB4AAB4BD21AD2084FF0000301204F
:1050800060F302036FF3C50362F38F133246A64841
:10509000FCF730FB39E10022002301A99C4804F011
:1050A000E3FDA0B9019C6460002C00F02E81002378
:1050B000AB770123237403232373A560214695480E
:1050C00008F0E2FE9449954808F0FFFE1DE1944B7C
:1050D000944A9B1ADB084FF00001012262F302019F
:1050E0006FF3C50163F38F119048FCF73FFB00E0BD
:1050F00064B100220023874804F0BEFF0446002864
:10510000F6D0011D824808F09CFDF1E70022002343
:1051100001A97F4804F0A8FD80B1814B814A9B1A08
:10512000DB084FF00001012262F302016FF3C501B9
:1051300063F38F117E48FCF719FBB5E701994960CD
:1051400004230B74734808F09FFE7349734808F0FA
:10515000BCFEA9E7724B734A9B1ADB084FF00001B3
:10516000012262F302016FF3C50163F38F116F48EF
:10517000FCF7FCFA04E0011D654808F062FD44B14B
:1051800000220023634804F077FF04460028F2D190
:10519000F5E70022002301A95D4804F065FD80B118
:1051A0005F4B604A9B1ADB084FF00001012262F35B
:1051B00002016FF3C50163F38F115D48FCF7D6FA66
:1051C00041E70199496004230B74524808F05CFEE2
:1051D0005149524808F079FE35E70022002301A921
:1051E0004B4804F041FD20BB019E7660002E00F08C
:1051F0008C800123337402233373B56005F10C01F5
:10520000A07803F059FA0146002855D1494BB3F86C
:105210008C32EA68934260D8464B0022A3F88C2275
:1052200031463C4808F030FE3B493C4808F04DFE12
:105230006BE03B4B3B4A9B1ADB084FF0000101221D
:1052400062F302016FF3C50163F38F113748FCF776
:105250008DFA04E0011D2E4808F0F3FC46B100224F
:1052600000232C4804F008FF06460028F2D1F5E799
:105270000022002301A9264804F0F6FC80B1284B47
:10528000284A9B1ADB084FF00001012262F3020159
:105290006FF3C50163F38F112548FCF767FAA5E7A3
:1052A0000199496004230B741A4808F0EDFD1A496E
:1052B0001A4808F00AFE99E7194B1A4A9B1ADB08AC
:1052C0004FF00002012060F302026FF3C50263F3A6
:1052D0008F121948FCF7D8F998E79B1A154AA2F8DB
:1052E0008C3203F09FFD9BE70D4A0E4BD21AD20879
:1052F0004FF00003012060F302036FF3C50362F374
:105300008F1332460848FCF7F5F902B070BD00BFB4
:10531000BC01002060020020301A0020100500208F
:1053200038E80000E0E7000074F5000074F40000C5
:1053300094F40000081A0020A0F5000070B582B0B7
:10534000044686783046FFF7C5FA054616F0800F0A
:1053500022D1E178002900F0D880012940F05D8158
:105360000022002301A9B64804F07EFC002840F08A
:105370008980019C6460002C00F0608101236B77C0
:1053800023742373A5602146AE4808F07DFDAE4925
:10539000AE4808F09AFD51E1E178A1B1032900F08F
:1053A0004D81AB4AAB4BD21AD2084FF0000301201B
:1053B00060F302036FF3C50362F38F133246A6480E
:1053C000FCF798F93AE10022002301A99C4804F077
:1053D0004BFCA0B9019C6460002C00F02F810023DD
:1053E000AB770123237403232373A56021469548DB
:1053F00008F04AFD9449954808F067FD1EE1944B7A
:10540000944A9B1ADB084FF00001012262F302016B
:105410006FF3C50163F38F119048FCF7A7F900E023
:1054200064B100220023874804F026FE04460028C9
:10543000F6D0011D824808F004FCF1E700220023A9
:1054400001A97F4804F010FC80B1814B814A9B1A6E
:10545000DB084FF00001012262F302016FF3C50186
:1054600063F38F117E48FCF781F9B5E70199496034
:1054700004230B74734808F007FD7349734808F060
:1054800024FDA9E7724B734A9B1ADB084FF0000119
:10549000012262F302016FF3C50163F38F116F48BC
:1054A000FCF764F904E0011D654808F0CAFB44B14B
:1054B00000220023634804F0DFFD04460028F2D1F7
:1054C000F5E70022002301A95D4804F0CDFB80B17F
:1054D0005F4B604A9B1ADB084FF00001012262F328
:1054E00002016FF3C50163F38F115D48FCF73EF9CC
:1054F00041E70199496004230B74524808F0C4FC49
:105500005149524808F0E1FC35E70022002301A987
:105510004B4804F0A9FBF0B9019E7660002E00F024
:105520008D80A37894F90220002A57DB13F0080F2E
:1055300067D04C4BD3F8A837EB60012333740223B8
:105540003373B56031463F4808F09EFC3E493F4802
:1055500008F0BBFC72E03E4B3E4A9B1ADB084FF062
:105560000001012262F302016FF3C50163F38F11A1
:105570003A48FCF7FBF804E0011D314808F061FBF4
:1055800046B1002200232F4804F076FD064600288D
:10559000F2D1F5E70022002301A9294804F064FBB9
:1055A00080B12B4B2B4A9B1ADB084FF000010122E4
:1055B00062F302016FF3C50163F38F112848FCF712
:1055C000D5F8ABE70199496004230B741D4808F036
:1055D0005BFC1D491D4808F078FC9FE713F0080F9D
:1055E00003D0204BD3F8A836A6E703F00F0303EB54
:1055F00083039B0003F1804303F51C33D3F8083683
:105600009AE703F00F0303EB83039B0003F180434E
:1056100003F51C33D3F808378EE70D4A0D4BD21A29
:10562000D2084FF00003012060F302036FF3C503BB
:1056300062F38F1332460848FCF75CF802B070BD85
:10564000BC01002060020020301A0020100500205C
:1056500038E80000E0E7000074F5000074F4000092
:1056600094F400000070024010B588B0002303934A
:1056700004930593069307930378013B052B26D8E3
:10568000DFE803F03503272E533900238DF81C3053
:1056900003238DF814300022002301A9504804F0A0
:1056A000E3FA002859D1019C646084B19DF81C3054
:1056B000237404F108030699059883E80300214642
:1056C000484808F0E1FB4849484808F0FEFB08B0AC
:1056D00010BD00238DF81C3004238DF81430DAE758
:1056E00000238DF81C3004238DF81430D3E70223F7
:1056F0008DF81C30CFE704468078FFF7EBF8837A0B
:10570000012B0ED005D8002BE1D12046FFF77EFCFF
:10571000DDE7023BDBB2012BD9D82046FFF70EFEB6
:10572000D5E72046FFF70AFED1E701A803F04EFBBC
:105730009DF80530052B0AD00020FFF7CBF8012398
:105740008DF81C30059000238DF81830A3E79DF8E4
:10575000043013F0600FBAD0EEE7254B254A9B1AB0
:10576000DB084FF00001012262F302016FF3C50173
:1057700063F38F112048FBF7F9FF04E0011D18487F
:1057800008F05FFA44B100220023164804F074FCCC
:1057900004460028F2D1F5E70022002301A91048B1
:1057A00004F062FA80B1124B124A9B1ADB084FF0E8
:1057B0000001012262F302016FF3C50163F38F114F
:1057C0000E48FBF7D3FF70E70199496004230B747F
:1057D000044808F059FB0449044808F076FB64E7E4
:1057E000BC01002060020020301A002010050020BB
:1057F00038E80000E0E7000074F4000094F40000D2
:1058000010B51D4B93F8243013B10024204610BD71
:10581000194C04F1380008F0B3FA002000F036FD0E
:10582000E061002201212720FEF7B2F9134802F0BF
:1058300055FE134B98421BD108F027F9FFF77EF86D
:10584000044618B90C4B012283F824200D4B1B6829
:105850001BB10D490D4808F038FB4FF08043D3F8D9
:10586000383413F0010FD1D00020FFF735F9CDE720
:105870006FF00404CAE700BF081A00206956000050
:105880000000AD0B60020020301A0020100500203F
:10589000074B93F824302BB1054B93F8253023B1F7
:1058A000002070476FF0120070476FF012007047D1
:1058B000081A002008B5017801F00F02037903B936
:1058C0002AB9082A16D8012B27D0002008BD174B6B
:1058D000174A9B1ADB084FF00001012262F3020114
:1058E0006FF3C50163F38F111248FBF73FFF4FF0D1
:1058F000FF30EBE70D4B0E4A9B1ADB084FF000011F
:10590000012262F302016FF3C50163F38F110A48AC
:10591000FBF72CFF4FF0FF30D8E711F0080F01D054
:105920000020D3E74FF0FF30D0E700BF38E8000099
:10593000E0E70000C0F50000E0F5000038B51A4BC4
:1059400093F8243053B3044605782846FEF7C2FF87
:1059500038B345722279827262884260207810F0F2
:10596000080F03D163885A1E134204D1618802F0E4
:10597000A5FD002038BD0D4B0D4A9B1ADB084FF0EA
:105980000001012262F302016FF3C50163F38F117D
:105990000848FBF7EBFE6FF01500EBE76FF0120025
:1059A000E8E76FF01500E5E7081A002038E8000086
:1059B000E0E7000000F6000038B51E4B93F82430F5
:1059C0007BB304461B4B93F825306BB3FEF782FF85
:1059D000054660B3837A012B10D007D80BB903F0CA
:1059E0007BFA0020E8606B69AB6138BD023BDBB23B
:1059F000012BF6D8204603F0B5F9F2E70E4B0F4A1B
:105A00009B1ADB084FF00001012262F302016FF3E1
:105A1000C50163F38F110A48FBF7A8FE6FF015006C
:105A2000E3E76FF01200E0E76FF01200DDE76FF0E0
:105A30001500DAE7081A002038E80000E0E7000067
:105A400028F60000114B93F824309BB110B50446A2
:105A50000E4B93F8253083B1FEF73CFF80B114F074
:105A6000080F10D1204603F0A5F9204603F0ECFB07
:105A7000002010BD6FF0120070476FF01200F8E7C1
:105A80006FF01500F5E76FF01500F2E7081A002037
:105A900038B5104B93F824307BB104460D460D4BBE
:105AA00093F8253063B1FEF715FF60B175B120465C
:105AB00003F060F92870002038BD6FF01200FBE79A
:105AC0006FF01200F8E76FF01500F5E76FF01500C2
:105AD000F2E700BF081A002038B5154B93F82430C0
