:10000000603600208546000071D200003D460000A9
:100010003D4600003D4600003D4600000000000057
:10002000000000000000000000000000813D000012
:100030003D46000000000000293D00003D46000054
:100040006D3E00006D3E00006D3E00006D3E000004
:100050006D3E00006D3E00006D3E00006D3E0000F4
:100060006D3E00006D3E00006D3E00006D3E0000E4
:100070006D3E00006D3E00006D3E00006D3E0000D4
:100080006D3E00006D3E00006D3E00006D3E0000C4
:100090006D3E00006D3E00006D3E00006D3E0000B4
:1000A0006D3E00006D3E00006D3E00006D3E0000A4
:1000B0006D3E00006D3E00006D3E00006D3E000094
:1000C0006D3E00006D3E00006D3E00006D3E000084
:1000D0006D3E00006D3E00006D3E00006D3E000074
:1000E0006D3E00006D3E00006D3E00006D3E000064
:1000F0006D3E00006D3E00006D3E00006D3E000054
:1001000053B94AB9002908BF00281CBF4FF0FF317E
:100110004FF0FF3000F06CB9ADF1080C6DE904CE82
:1001200000F006F8DDF804E0DDE9022304B07047D2
:100130002DE9F047089E0D4604468E46002B40F000
:1001400082808A42174646D9B2FA82F24AB1C2F197
:10015000200105FA02F320FA01F1974041EA030E6B
:1001600094404FEA1748230CBEFBF8FCB9B208FBD9
:100170001CEE43EA0E430CFB01F098420AD9FB182F
:100180000CF1FF3580F01681984240F21381ACF1FA
:10019000020C3B441B1AA4B2B3FBF8F008FB10336B
:1001A00044EA034400FB01F1A14209D93C1900F1E2
:1001B000FF3380F00181A14240F2FE8002383C44CE
:1001C000641A40EA0C4000211EB1D4400023C6E965
:1001D0000043BDE8F08702B9FFDEB2FA82F2002ADE
:1001E0004FD1CB1B4FEA174E1FFA87F80121B3FB03
:1001F000FEFC250C0EFB1C3345EA034508FB0CF303
:10020000AB4207D97D190CF1FF3002D2AB4200F2AC
:10021000E7808446ED1AA3B2B5FBFEF00EFB105545
:1002200043EA054408FB00F8A04507D93C1900F152
:10023000FF3302D2A04500F2D7801846A4EB080491
:1002400040EA0C40C0E78B4208D9002E00F0AF8096
:100250000021C6E900050846BDE8F087B3FA83F13E
:1002600000294BD1AB4202D3824200F2B780841AFC
:1002700065EB030301209E46002EAAD0C6E9004E7E
:10028000A7E7C2F1200C01FA02F3974020FA0CF024
:100290004FEA174E21FA0CFC1843BCFBFEF1050C8B
:1002A0000EFB11CC1FFA87F845EA0C4501FB08F359
:1002B000AB4204FA02F409D97D1901F1FF3C80F048
:1002C0008B80AB4240F2888002393D44EB1A85B204
:1002D000B3FBFEF00EFB103345EA034500FB08F3C9
:1002E000AB4207D97D1900F1FF3C71D2AB426FD907
:1002F00002383D44EB1A40EA014178E7C1F1200C95
:100300008B4022FA0CF71F4320FA0CF405FA01F394
:100310004FEA174E25FA0CF51C43230CB5FBFEF9EA
:100320001FFA87F80EFB195543EA054509FB08FA41
:10033000AA4502FA01F200FA01F308D97D1909F180
:10034000FF3047D2AA4545D9A9F102093D44A5EBA2
:100350000A05A4B2B5FBFEF00EFB105544EA0544B5
:1003600000FB08F8A04507D93C1900F1FF352DD254
:10037000A0452BD902383C4440EA0940A4EB0804CC
:10038000A0FB02894C45C6464D4619D316D05EB136
:10039000B3EB0E0264EB050404FA0CFCCA404CEA11
:1003A0000202CC40C6E900240021BDE8F0873146B6
:1003B00030460EE7AC46EDE6184601E74345E6D287
:1003C000B8EB020E69EB07050138E0E72846D3E7F2
:1003D00060468FE78146BAE7614677E708464BE714
:1003E000ACF1020C3D4415E702383C4426E700BF5F
:1003F000704700BF10B590B004461BE026480CF0D3
:10040000D0F802462FE0002236E0002234E0A36854
:100410005B6A13B12046984760B1402269461E4886
:100420000CF06AF9024628B1A3685B6913B169460A
:1004300020469847A3685B6C13B12046984740B3A9
:10044000A3681B6C13B12046984710B3A3685B6B7D
:100450001BB1204698470028D9D00F480CF0A1F8CE
:100460003F28CBD94022A3689B69002BCBD069469B
:1004700020469847021EC8DB694607480CF0D2F8B0
:100480000028C4D0A368DB69002BC0D02046984761
:10049000BDE710B010BD00BFB00C002010B582B099
:1004A0000023009328480DF0E4FD18B1002002F06D
:1004B00031FA08B102B010BD244C1C2200212046A4
:1004C0000CF094FF4FF480632361214B636140F291
:1004D000FF33A3611C4B9B681B6D1BB16A46042153
:1004E00019489847009B2BB940F6CD4000210AF0EF
:1004F00095FEEFE7144B9B68DB6C1BB101220821D2
:1005000011489847104B9B68DB6C1BB101221021EE
:100510000D4898470F480EF05DF90B4B9C68236D12
:100520001BB101AA0121084898472CB1A36C1BB14B
:100530000022094904489847034B9B689B6A002B9B
:10054000B8D001489847B5E79CEA0000B00C0020FD
:10055000B008002040420F00F503000008B50B680A
:1005600001330B60014B1B68984708BD0000002059
:10057000014B1860704700BF0000002000B583B039
:1005800002460B460021019101A9034800F0C8F87A
:1005900003B05DF804FB00BF5D05000010B584B03A
:1005A0000446019002910021039101A9054800F041
:1005B000B7F8039B029A934201DA0022E2540398AF
:1005C00004B010BD55BC00002DE9F04383B00446D3
:1005D00008461546238B13F0080F05D103F00706D4
:1005E00000230093019369E0012909D043F020031F
:1005F000238385F31188BFF36F8F03B0BDE8F083C9
:1006000043F010032383F4E720460BF07EFB57E012
:10061000D4F814904A46694620460BF08FFB002719
:100620005AE023691F68062120460BF047FB4FF074
:10063000000951E023695F68042120460BF03EFB6E
:100640004FF0000948E023699F68052120460BF020
:1006500035FB4FF000093FE0002246E0002244E075
:1006600043F00803238385F31188BFF36F8F0029BC
:1006700044D1009B2BB14B464246694620460BF0C5
:10068000D3FB17B125492046B8474FF02003EFF3BD
:10069000118583F31288BFF36F8F238B23F0080338
:1006A0002383238B13F0100F2ED023F0100323830A
:1006B0000120268B06F0070600289AD00228A3D036
:1006C000002896D00128A3D00328AAD00428B1D0AE
:1006D0000528B8D00027B946238B03F00708B0459A
:1006E000BAD0A268002AB9D001221146002AB7D197
:1006F000009A002AB4D1002FB2D1D2E74A4641462F
:1007000020460BF0E3FAB4E713F0200F04D023F0F7
:10071000200323830220CCE70020CAE757BE000055
:100720002DE9F04F93B006460D4692460393002400
:100730009AF80000002800F0D684252808D00AF195
:10074000010A2946B0470028C0F2CE840134EFE701
:100750000023069307930B93089309930A930AF1D6
:1007600001089AF80130252B01D001272CE00AF16D
:1007700002088DF82330A8E19DF8203043F00403EF
:100780008DF82030FFB108F101081CE09DF8203001
:1007900043F008038DF82030F4E79DF8203043F053
:1007A00010038DF82030EDE79DF8203043F0200352
:1007B0008DF82030E6E79DF8203043F040038DF8B7
:1007C0002030DFE700274FB398F80030203B102B94
:1007D000F8D801A252F823F09B070000C5070000DB
:1007E000C5070000A9070000C5070000C5070000F5
:1007F000C5070000C5070000C5070000C5070000C9
:10080000C50700008D070000C5070000790700003C
:10081000C5070000C5070000B70700009DF820309D
:1008200003F04403442B6DD0CDF814809DF82030A4
:1008300043F080038DF8203098F800302A2B68D0E0
:1008400005A80BF0E1FD059B984512D09DF82030DE
:1008500043F080038DF820300990C3F34003002853
:1008600060DB002213439DF8202063F341028DF8E2
:100870002020059B05931B782E2B14BF00230123FA
:100880009DF8212063F341028DF82120002B4BD0ED
:10089000059B5A1C05925B782A2B48D005A80BF0C3
:1008A000B3FD0A909DF82030C3F34003002847DBD6
:1008B000002213439DF8202063F341028DF820208D
:1008C000DDF8148098F800304C3B2E2B00F2DC80D1
:1008D000DFE803F0CADADADADADADADADADADADA36
:1008E000DADADADADADADADADADADADADADADADA68
:1008F00038DA6ADA51DADADADADADADAC0DADADA0D
:10090000DADAB6009DF820306FF386138DF82030C8
:100910008AE79DF8213043F001038DF821304346EA
:100920000133A7E701229DE7DDF81480CAE79DF8AF
:10093000213043F004038DF8213002F10108C1E7B2
:100940000122B6E708F1010298F80130682B08D0BF
:100950009DF82130022161F3C6038DF821309046C5
:100960002BE09DF82130012262F3C6038DF821307F
:1009700008F1020821E008F1010298F801306C2B1F
:1009800008D09DF82130032161F3C6038DF8213092
:10099000904612E09DF82130042262F3C6038DF8E0
:1009A000213008F1020808E09DF82130052262F3A9
:1009B000C6038DF8213008F1010818F8013B8DF8C5
:1009C0002330A3F14102372A00F25081DFE812F010
:1009D00026014E014E014E012601260126014E013F
:1009E0004E014E014E014E014E014E014E014E018F
:1009F0004E014E014E014E014E014E014E011301BA
:100A00004E014E014E014E014E014E014E014E016E
:100A100026014E01130163002601260126014E0125
:100A200063004E014E014E014E012F0113013F01A3
:100A30004E014E013F014E0113014E014E011301C3
:100A40009DF82130062262F3C6038DF8213008F1AB
:100A50000108B2E79DF82130072262F3C6038DF842
:100A6000213008F10108A8E79DF82130082262F33F
:100A7000C6038DF8213008F101089DF8203043F0BD
:100A800002038DF8203098E79DF821306FF3C603FC
:100A90008DF8213091E79DF82220012161F30202B7
:100AA0008DF822209DF8212002F07802402A00F0E3
:100AB000AA80632B00F0AE809DF82030C3F3400283
:100AC000174367F341038DF820309DF8213013F070
:100AD000010F00F0DA80039B1A1D03921F68002F9C
:100AE000C0F2CB809DF8213013F0040F00F0DF80BE
:100AF000039B1A1D0392D3F800B0BBF1000FC0F2A4
:100B0000CD80002309930A939DF8223003F0070358
:100B10009DF82110C1F3C301012B00F0D180022BFD
:100B200000F01681042B00F06781032B00F07E811A
:100B30009DF8209019F00303029340F07D819DF809
:100B40002330253B532B00F23382DFE813F0810181
:100B500031023102310231023102310231023102FD
:100B600031023102310231023102310231023102ED
:100B700031023102310231023102310231023102DD
:100B800031023102310231023102310231023102CD
:100B900031023102310231023102310231023102BD
:100BA00031023102310231023102310231023102AD
:100BB00031023102C7013102310231023102310208
:100BC00031023102310231023102A101AB013102A5
:100BD000310231023102AB01310231023102310204
:100BE0000802C701EA01310231028F013102C70157
:100BF00031023102C7019DF82220022161F3020275
:100C00008DF822204EE79DF8201041F001018DF86B
:100C100020104EE7171E18BF01274DE79DF8223020
:100C2000042262F302038DF82230012744E79DF885
:100C30002230032262F302038DF822309DF8213026
:100C400003F07803402B7FF437AF012734E79DF89A
:100C50002230032262F302038DF822309DF8213006
:100C600013F0780F3FF428AF012725E79DF82030D7
:100C700043F001038DF820301EE79DF8203043F04B
:100C800004038DF820307F422CE79DF92030002BA3
:100C900002DB4FF0FF3725E7099F23E79DF821305E
:100CA0006FF341038DF821304FF0FF3B29E713F03C
:100CB000020F02D0DDF828B023E74FF0FF3B20E71A
:100CC000CB1E042B04D8DFE803F00B1D29353500BB
:100CD000039B1A1D03921A68D317CDE9062306E079
:100CE000039B1A1D03921A68D317CDE90623012925
:100CF00028D002297FF41CAFBDF91820D317CDE905
:100D0000062315E7039B073323F0070303F10802CB
:100D10000392D3E90023CDE90623E8E7039B0733D9
:100D200023F0070303F108020392D3E90023CDE97E
:100D30000623DCE7039B1A1D03921A68D317CDE93B
:100D40000623D4E79DF81830069300230793EFE6B7
:100D5000CB1E042B04D8DFE803F00B1F3541410004
:100D6000039B1A1D03921B680693002307931EE042
:100D70009DF82330632B07D0039B1A1D03921B6839
:100D800006930023079312E0039B1A1D03921B682E
:100D90000693002307930AE0039B073323F007031E
:100DA00003F108020392D3E90023CDE906230129C8
:100DB0001CD002297FF4BCAEBDF818300693002386
:100DC0000793B5E6039B073323F0070303F10802FB
:100DD0000392D3E90023CDE90623E8E7039B1A1D1C
:100DE00003921B68069300230793E0E79DF81830F1
:100DF0000693002307939BE608290BD0039B073338
:100E000023F0070303F108020392D3E90023CDE99D
:100E100006238DE6039B073323F0070303F1080243
:100E20000392D3E90023CDE9062381E6039B1A1D33
:100E300003921B6806937BE643465246294630469A
:100E40000BF05FFB0028C0F24F810444C2466FE400
:100E500029462520B0470028C0F246810134DDF83C
:100E600008900DF1460B4FF0000AA7E0DDF818A03E
:100E7000BBF1000F08DB594650460CF089FA0AEB2B
:100E8000000BDDF8089099E050460CF079FAF6E78F
:100E9000069B8DF83030DDF808900DF1310B0DF127
:100EA000300A8BE019F0080F05D119F0100904D0B1
:100EB0004FF0200901E04FF02B09DDE90623002A5D
:100EC00073F1000102DBCDE9062309E0524263EB36
:100ED0004303CDE906234FF02D0901E0DDF808902A
:100EE0000DF1460300930CAB08AADDE906010BF0F7
:100EF0009EFA8246BBF1000FC0F290800DF14603CE
:100F0000A3EB0A039DF820206FF386128DF82020B2
:100F10009B4540F28680ABEB030309930DF1460B32
:100F20004CE0069830B9DDF80890DFF8C4B1ABF1B9
:100F3000050A43E00DF1460300930CAB08AA00211B
:100F40000BF075FA82469DF8223043F010038DF8BD
:100F5000223078238DF82330DDF80890CAE7069A0E
:100F60009DF82130C3F3C303072B06D8DFE803F055
:100F7000040C0E1012171C1E1460DDF808900DF101
:100F8000460B4FF0000A19E01470F6E71480F4E7FE
:100F90001460F2E72046E117C2E90001EDE72046C0
:100FA000E117C2E90001E8E71460E6E71460E4E74E
:100FB000DDF808900DF1460B4FF0000ABAF1000F72
:100FC00000F08E80ABEB0A02B9F1000F00D00132C5
:100FD0009DF8221011F0100F26D00232099B134405
:100FE00011F0400F01D00A9A1344002F32DDFF1A8E
:100FF0009DF8203013F0040F2CD113F0400F18D0BF
:10100000B9F1000F18D029464846B04700286BDBDD
:101010000134DDF80890302302930FE00DF1460B08
:10102000CCE70DF1460BC9E711F0080FD6D001321D
:10103000D4E72023029301E0302302933B465F1E56
:10104000002B07DD29460298B04700284CDB01340D
:101050003B46F4E7B9F1000F05D029464846B047B2
:10106000002841DB01349DF82230C3F30012C3F3A2
:10107000C003134305D029463020B047002833DB96
:1010800001349DF8223013F0100F06D029469DF848
:101090002300B047002827DB0134099B03F1FF3907
:1010A000002B07DD29463020B04700281CDB013427
:1010B0004B46F3E75B465246294630460BF021FA91
:1010C000002811DB0444002F07DD29462020B0470B
:1010D000002809DB0134013FF5E7C246FFF728BBD2
:1010E000C246FFF725BB204613B0BDE8F08F00BF16
:1010F0005DED000008B54FF02002EFF3118382F39D
:101100001288BFF36F8F03F03DFC03480AF0BAFD6D
:1011100002F020FDFCE700BF60ED0000054B9842A7
:1011200004D3054B984203D300207047002070473A
:1011300001207047C4E9000020FF000008B5064BFD
:10114000186018B1054B1B68092B00DC08BD04486A
:1011500009F028FBFAE700BFFC0C0020CC0C0020B3
:10116000C802002008B5024809F01CFB08BD00BFFA
:10117000C802002008B503480BF0F0FA003818BF89
:10118000012008BDD80C002030B589B000220F49DD
:101190000F480DF055FB0F4D00220023CDE906232B
:1011A000002404940E2303930294019400940A4BA8
:1011B0004FF44072094928460CF0E2FF08492846DE
:1011C00009F0F8F8204609B030BD00BF65110000F5
:1011D000D003002008040020411800000027002050
:1011E0008CED0000184BBFF35B8F53E8002F511CB0
:1011F00043E800100028F8D1BFF35B8F1ABB70B52D
:10120000002409E0114B03EB06135B680422196804
:10121000284600F059FB01340D4B0C4A9B1AB4EBE5
:10122000231F0FDA2646094D05EB04152B7B002BF7
:10123000F1D02301054AD3589B69002BE2D0284600
:101240009847DFE770BD7047D40C0020BCEC00006D
:10125000DCEC000038B108B5044A1060084600F024
:10126000ABFD002008BD6FF01500704704000020A2
:1012700008B500230A4A13700A4A13604FF400416C
:101280000948FFF7E7FF00F041FB08480BF058FA68
:1012900004232822064907480CF00FFF08BD00BFB1
:1012A00035250020D00C002075C70000D80C002088
:1012B00020440020E00C002010B54FF02003EFF395
:1012C000118483F31288BFF36F8F04480BF048FA40
:1012D00084F31188BFF36F8F10BD00BFD80C0020BE
:1012E00008B5054B1B781BB1034B01221A7008BDD2
:1012F000024809F057FAF7E734250020C802002019
:101300000C4BBFF35B8F53E8002F013243E8002101
:101310000029F8D1BFF35B8F074BBFF35B8F53E816
:10132000002F013A43E800210029F8D1BFF35B8F79
:10133000704700BFD00C0020CC0C0020064B0020D2
:101340000246BFF35B8F53E8000F43E800210029FA
:10135000F9D1BFF35B8F7047D00C002038B5FFF791
:10136000EDFF0546002400E001340B4B0B4A9B1AAD
:10137000B4EB231F0FDA094800EB041043685B79D4
:10138000002BF1D02301054AD3581B69002BEBD069
:1013900029469847E8E738BDDCEC0000BCEC0000CB
:1013A000034B18680028D4BF00200120704700BFFD
:1013B000D00C002010B582B00446FFF7AFFE10BB82
:1013C0000022002301A9114808F09EFF08B1104C2B
:1013D00019E0019B0122BFF35B8F53E8001F43E834
:1013E00000200028F9D1BFF35B8F1F22214601980E
:1013F00004300BF0ABFF019C7E2384F823300023E4
:1014000084F824300434204602B010BDE00C0020E3
:1014100094ED000038B1074A904206D3A0329042C2
:1014200005D300207047002070470020704701203E
:10143000704700BF20440020037A13F0010F00D052
:1014400070472DE9F04383B006460BF04FFA07468C
:1014500030460BF036FA014638460BF08FF9054658
:1014600004E0012303FA04F425EA04056DB3B5FA98
:1014700085F4C4F11F04214630460BF025FA81465D
:10148000FFF74CFE0028ECD14846FFF7C3FF0028C9
:10149000E7D10F4B9945E4D07189C1F3891100F070
:1014A00003FA02460B4B0C495B1ADB08012161F37E
:1014B00002086FF3C50863F38F18ADF800803B4650
:1014C0002146064800F0B0F8CBE703B0BDE8F08352
:1014D00094ED00005CEC00004CEC0000B0ED00006E
:1014E000F8B5064619BB144B1B780BB1002403E07A
:1014F000FFF7A2FFFAE70134104B114A9B1AB4EB35
:10150000231F14DA0E4D05EB04156B685B79002B75
:10151000F1D0314628460BF02BF90028EBD02701FB
:10152000074BDB595B68314628469847E3E730466E
:101530000BF0DEF9F8BD00BF35250020DCEC000023
:10154000BCEC000010B50446114B1B7803B9D0B1B8
:10155000FFF7B2FE034680B15CB90E4ABFF35B8F62
:1015600052E8001F013942E800100028F8D1BFF30B
:101570005B8F21461846FFF7B3FF14B9FFF710FF42
:1015800010B9FFF7F7FD10BDFFF7E8FEF9E700BF60
:1015900034250020CC0C002010B582B01D4BBFF3C9
:1015A0005B8F53E8002F511C43E800100028F8D14E
:1015B000BFF35B8F184B1B783BB9184B1B6803B10B
:1015C0009AB10A2A1CD002B010BD4FF02003EFF3ED
:1015D000118483F31288BFF36F8F0020FFF7B2FFEF
:1015E00084F31188BFF36F8FEDE700220023CDE96C
:1015F00000234FF40042002309480AF063F8E2E7B1
:10160000002BE0D006480DF027F9064809F0CAF88B
:10161000D9E700BFCC0C002035250020FC0C0020B1
:10162000D0030020C80200202DE9F04180460F467B
:1016300016461D4600F08EF9044640B10123436072
:10164000002202814FF0000362F3000303724CB1E9
:10165000C4F81080637A032262F307136372676130
:10166000A661E561C4B1BDF8183063810B4B1B68FE
:101670009847E0604FF02003EFF3118583F3128861
:10168000BFF36F8F214606480BF05EF885F3118893
:10169000BFF36F8FFFF780FFBDE8F08104000020EB
:1016A000D80C0020F8B506460D46174600F052F952
:1016B000044640B101234360002101814FF0000343
:1016C00061F30003037234B12661637A012262F38D
:1016D000071363726561B4B167810B4B1B68984750
:1016E000E0604FF02003EFF3118583F31288BFF31E
:1016F0006F8F214605480BF027F885F31188BFF35B
:101700006F8FFFF749FFF8BD04000020D80C0020C0
:101710002DE9F04107460E461546984600F01AF9A5
:10172000044640B101234360002202814FF00003D0
:1017300062F3000303723CB12761637A022262F311
:10174000071363726661A561BCB1A4F80A800C4BF3
:101750001B689847E0604FF02003EFF3118583F397
:101760001288BFF36F8F214606480AF0EDFF85F31C
:101770001188BFF36F8FFFF70FFFBDE8F08100BF47
:1017800004000020D80C002070B505460E4600F07D
:10179000E1F8044640B101234360002202814FF08A
:1017A000000362F30003037204B12561B4B16681E2
:1017B0000B4B1B689847E0604FF02003EFF3118557
:1017C00083F31288BFF36F8F214606480AF0BCFFEF
:1017D00085F31188BFF36F8FFFF7DEFE70BD00BF8A
:1017E00004000020D80C0020124B1B7803B1704776
:1017F00010B5FFF7F7FC002400E001340E4B0F4A50
:101800009B1AB4EB231F0CDA0C4800EB041043685E
:101810005B79002BF1D02301084AD3585B699847C4
:10182000EBE70020FFF78EFE0028FAD1014B0122E2
:101830001A7010BD35250020DCEC0000BCEC000067
:1018400008B5FFF7CFFC09F015FDFFF777FC06E0C0
:101850004FF0FF324FF0FF33044808F0C7FF00207D
:10186000FFF770FE0028FAD1F2E700BFC80200209F
:1018700000B583B004380190BFF35B8F50E8003FA0
:101880005A1E40E800210029F8D1BFF35B8F012BDD
:1018900002D003B05DF804FB01A902480CF01BFC68
:1018A000F7E700BFE00C0020054B064A9B1AB1EB9E
:1018B000D30F02D252F8310070470020704700BFAA
:1018C000BCEC00004CEC000008B5074BC31A1B1120
:1018D00001334268137143681960436801225A71E9
:1018E000FFF7FEFC08BD00BFBCEC000010B582B0E5
:1018F0000190019B33B11C6801A903480CF0EBFB7C
:101900000194F6E702B010BD000D002008B52023B9
:101910001A46024902480CF0D0FB08BDC044002022
:10192000000D002010B582B0002301930120FFF7C5
:1019300009FE0446FFF7E4FC0022002301A9044845
:1019400008F0E2FC08B1002CF0D1019802B010BD03
:10195000000D002000B583B0002301930AF031FF91
:1019600050B10022002301A9074808F0CDFC30B98E
:10197000019803B05DF804FB00220023F3E7FFF7B2
:10198000D1FF0190F4E700BF000D0020F0B583B057
:10199000019004460AF095FF237A13F0010F01D15C
:1019A000064650BB019B1A7A12F0020F28D101A9FA
:1019B00015480CF090FB03B0F0BD01980AF096FFBB
:1019C00031460AF0DBFE074688B9EBE72846FFF709
:1019D0004FFF0134B442E5D2214601980AF074FF6A
:1019E0000546FFF717FD0028F3D0002FE5D027FAB2
:1019F00004F313F0010FECD0E8E700273C46E9E7D9
:101A00005869FFF773FFD2E7000D00200EB400B550
:101A100082B0014603AB53F8042B01930348FEF751
:101A20007FFE02B05DF804EB03B0704741CC0000CC
:101A3000F0B585B011F0440F05D01A4B1C6834B9CD
:101A4000002005B0F0BD1849FFF7E0FFF9E7174B9C
:101A50001968B2FBF1F1B1FBF4F5154AA2FB0532AE
:101A6000D20A4FF4616606FB1256124BA3FB0673B3
:101A70005B0904FB15114FF47A7505FB01F1B1FB0D
:101A8000F4F707FB141105FB01F1B1FBF4F4029428
:101A90000197C3EB0311A6EB810100910649FFF703
:101AA000B5FFCEE71C0D0020F4ED0000200D002056
:101AB000C5B3A2918988888800EE000061B108B59D
:101AC0002AB1064A52F8232012B9054A00E0044A16
:101AD0000449FFF79BFF08BD704700BF78EE000088
:101AE0001CEE000024EE000011F0100F0BD108B521
:101AF00011F0200F03D00449FFF788FF08BD034908
:101B0000FFF784FFFAE7704794F80000FCFE00003E
:101B10002DE9F04105460F46164698460699FFF70F
:101B2000E3FF0024444505DA23492846FFF76EFF0A
:101B30000134F7E7002409E01F492846FFF766FF54
:101B40000BE01E492846FFF761FF01340F2C0CDC27
:101B5000002C02DD14F0070FEED0B442F1D23A5D52
:101B600017492846FFF752FFEFE716492846FFF7C7
:101B70004DFF002409E010492846FFF747FF0BE01E
:101B800011492846FFF742FF01340F2C12DC002CCC
:101B900002DD14F0070FEED0B44206D23A5DA2F196
:101BA00020035E2BECD92E22EAE703492846FFF7F3
:101BB0002DFFE9E7BDE8F0814CEE000030EE0000BB
:101BC00028EE000034EE000038EE00002DE9F04170
:101BD000804616461D46BDF9187059B90024002FDD
:101BE0001CDB86B10123079A934013F0100F18D124
:101BF0000D4E09E00D4B079A53F822200C49FFF7D0
:101C000005FF0446EBE7084E39462846FFF74CFE31
:101C1000024631464046FFF7F9FE04442046BDE83F
:101C2000F081044EF0E700BF3CEE0000B4EE00008F
:101C300048EE000044EE00002DE9F04F85B0054667
:101C40000C46164603939DF8388001F0020B01F014
:101C5000010AC1F3C0090AF0B2FDE8B10246134916
:101C60002846FFF7D3FE0746BBF1000F16D14246C8
:101C7000514628460AF064FECDF80480BDF9403094
:101C800000939DF83C30324649462846FFF79EFFB8
:101C9000384405B0BDE8F08F0027E5E7039A2146F8
:101CA0002846FFF7C5FE0744E1E700BF50EE0000FD
:101CB0002DE9F04389B007460E46914698460AF052
:101CC00015FE02460E493046FFF7A0FE00241025FF
:101CD0000395234603AA0DEB050138460AF01BFEC7
:101CE000039A52B1CDF800804B460DEB050130460A
:101CF000FFF70EFF039D2C44E9E709B0BDE8F08330
:101D000024EE0000F0B583B006460C4600273D46A1
:101D10000DE0A268134413F8017C0A2F14BF0027BA
:101D2000012720460AF07FFF019B1D4473B1E36841
:101D300001932B4601AAA16830460AF0ECFD6368C6
:101D4000019A1A60019B002BEBD0E2E70FB903B0B8
:101D5000F0BD02492046FFF759FEF8E754EE0000B7
:101D600070B582B00446056842F20F738B4228BFFB
:101D70000B460E4A0521684609F092FF0646636845
:101D80005B680B220A4928460AF0CDFD63685B6850
:101D90003246694628460AF0C6FD63685B681B2226
:101DA000044928460AF0BFFD02B070BDECF90000FE
:101DB000A8EE00008CEE0000074B01221A60074BD2
:101DC000984205D94008044A13685B001360F6E79F
:101DD000034B1860704700BF200D002040420F00E9
:101DE0001C0D002070B506460D460024AC4207D2FB
:101DF000044B1868315D83685B6898470134F5E7E8
:101E0000284670BD380D0020014B024A1A60704709
:101E1000380D0020B4EA000008B5034B01221A7007
:101E200002480AF000FF08BD3625002004EF00003C
:101E300008B50248FFF794FF08BD00BF04EF00009B
:101E400010B50C4608460AF02FFD0F222146034824
:101E50000AF012FF20460AF04BFD10BD04EF00000F
:101E6000014B01221A7070473725002008B518B9B8
:101E7000084B00221A7008BD074B1B7823B141F2B2
:101E800088300CF0A7FCF6E7A420002109F0C6F981
:101E9000F1E700BF372500203825002038B504467B
:101EA0000A4B01221A700A4B1B7803B938BD002077
:101EB00008F040F80028F9D0044B1B78002BF5D02F
:101EC000651E2046FFF7D2FF2C46F0E7372500209D
:101ED000382500202DE9F04106460D4604270DE087
:101EE0002A463146002007F0C1FF04461CE0384670
:101EF000FFF7D4FF1CBB164B1B7803B3154B1B78A5
:101F0000002BEDD1DFF850804FF0FF324FF0FF3360
:101F1000404608F03DFB2A463146002007F0A6FF68
:101F20000446404608F0BEFB002CE0D1084B1B786D
:101F3000002BDFD0013F3846FFF798FFDAE714B9EE
:101F4000034B1B7803B92C462046BDE8F08100BF47
:101F500037250020382500208C02002008B5034BCF
:101F600001221A7002480AF05EFE08BD38250020E2
:101F700040EF000008B50248FFF7F2FE08BD00BFC1
:101F800040EF000010B50C4608460AF08DFC0F2209
:101F9000214603480AF070FE20460AF0A9FC10BD55
:101FA00040EF0000072801D900207047024B184479
:101FB00080F8BB1001207047640D0020072801D96C
:101FC00000207047024B184490F8BB00704700BFD8
:101FD000640D002010B50378C3F341130A33064C97
:101FE00054F8233023B19847002803DB012010BDAB
:101FF0000020FCE70020FAE7640D00200A30024BC5
:1020000043F82010704700BF640D0020014B586258
:10201000704700BF640D0020136800225A7001222F
:102020001A70074A92F8C3203AB1022242F0010224
:102030001A7002230B60012070470022F6E700BFF0
:10204000640D0020F0B447883D0A2B1FDBB2012B42
:102050001ED9FFB2072D1ED8104B5B6A002600E088
:102060000344187838B15C78AC42F9D1B74201D05A
:102070000136F5E7012060B11360022D02D01B7814
:102080000B6006E09A78DB7842EA03230B6000E0FD
:102090000020F0BC70470020FBE700BF640D00206B
:1020A000F8B584460E460C4B5B6A176800E0134493
:1020B0001A7872B15C78042CF9D1987885B2BCF8A2
:1020C0000440A542F3D1FFF779FF3870012030605A
:1020D00000E00020F8BD00BF640D0020034B93F822
:1020E000BA00003818BF0120704700BF640D0020FF
:1020F000074B5B6A00E013441A783AB15978022919
:10210000F9D119798142F6D9012070470020704732
:10211000640D002030F0800318D01049104B994214
:1021200019D210B403E024310D4B99420CD20C6A41
:1021300000230A7F9A42F6D904EBC3021279824245
:1021400006D00133DBB2F4E7002002E00120704743
:10215000012010BC70470020704700BFA80300207A
:10216000CC030020014B9861704700BF640D002034
:10217000014BD861704700BF640D0020F8B50646DA
:102180000A4D0B4B9D420ED22F6A00242B7FA34297
:1021900007D907EBC400B047002805DB0134E4B2DF
:1021A000F4E72435EDE70020F8BD00BFA8030020C8
:1021B000CC03002070B50B4B00E024330A4CA34243
:1021C0000DD25C68094D6D6AAC42F6D31D69002DD5
:1021D000F3D0A6780479A642EFD1A84701E06FF0CA
:1021E000850070BDA8030020CC030020640D0020F2
:1021F0002DE9F04106460F469046114C05E0424657
:1022000039463046A84719E024340E4B9C4213D27D
:1022100063680D4D6D6AAB42F6D3A569002DF3D00E
:10222000997832799142EAD05B79012BECD1424620
:1022300039463046A847E7E76FF08500BDE8F081F2
:10224000A8030020CC030020640D0020F8B5074649
:102250000E4615460A4C00E024340A4B9C420AD232
:102260006369002BF8D02A46314638469847034622
:102270000028F1D101E06FF085031846F8BD00BFDA
:10228000A8030020CC03002070B582B00D4604796D
:102290008DF807402046FFF73DFF064630B134F089
:1022A000800306D0FFF71AFF18B90646304602B081
:1022B00070BD5DB1204603F0F9FB0A4BDB69002BD2
:1022C000F4D00DF1070108209847EFE7204603F00E
:1022D00033FC044BDB69002BE8D00DF1070109202A
:1022E0009847E3E7640D002000B583B083788DF84C
:1022F00000308388ADF80230C37803F003038DF813
:102300000430684603F094FB10F1780F00D070B9E8
:102310009DF8000003F05AFC10F1780F00D0D0B9FE
:102320000120174B83F8B90003B05DF804FB154B8F
:10233000154A9B1ADB084FF00002012161F30202EB
:102340006FF3C50263F38F129DF800100F48FFF77B
:10235000A9F90020E8E70B4B0B4A9B1ADB084FF06A
:102360000002012161F302026FF3C50263F38F12D1
:102370009DF800100648FFF795F90020D4E700BF4C
:10238000640D0020A4EC00004CEC000050EF0000B5
:1023900074EF000008B50822002102480BF026F86F
:1023A00008BD00BF1F0E00202DE9F0410546234B5C
:1023B0005C6A43881BB10027FF26B04610E0FFF798
:1023C000E9FF6A881D4B83F8BA20DB6913B11C4909
:1023D00003209847012720E094F8038023781C44C9
:1023E0002378CBB16378042BF6D0052B08D0022BD1
:1023F000F4D16679B2B26B889A42EFD10127EDE74A
:10240000B3B26A889342E9D1B8F1000FE6D1204611
:10241000FFF76AFF0746E1E717B93846BDE8F081E4
:10242000FFF7B8FF6A88054B83F8BA20DB69002BF9
:10243000F3D0034903209847EFE700BF640D002065
:102440001E0E002010B5146890F90030002B0ADB36
:102450004378013B082B3AD8DFE803F024392F39C1
:102460001A39393921004378062B07D0082B08D0B8
:102470000BB1002010BDFFF7CFFDFBE7FFF7E2FD3A
:10248000F8E7144B93F8BA30237001200860F1E7A5
:10249000807803F077FAB0FA80F04009EAE7FFF7B6
:1024A00083FFE7E74388012B01D00020E2E7094BD7
:1024B000002283F8C3200120DCE74388012B01D0F0
:1024C0000020D7E70120034B83F8C300D2E70020A8
:1024D000D0E700BF640D002010B58478204600F0DE
:1024E00099FD204603F0A0FB10F1780F15D008B934
:1024F000012010BD0A4B0B4A9B1ADB084FF000026B
:10250000012161F302026FF3C50263F38F122146CA
:102510000548FFF7C7F80020EBE70120E9E700BF17
:10252000A4EC00004CEC000098EF00002DE9F8430B
:1025300006461B4B5C6A0027FF25A846B94608E003
:1025400094F80380A578ABB2B088834213D0237887
:102550001C442378DBB16378042BF1D0052BF6D132
:10256000ABB2B2889342F2D1B278414620460AF02B
:10257000C4FB0746EBE71FFA88F371888B42E6D16C
:10258000C9B2C0B2FFF70EFD0746A146DFE7044B14
:10259000DB6913B14946072098473846BDE8F88300
:1025A000640D002070B504460D461646184B9B6915
:1025B0000BB1984748B1237803F01F03012B0DD0CE
:1025C000022B13D013B16FF0150070BD32462946AF
:1025D0002046FFF737FF88B10020F6E7324629464C
:1025E00020460AF093FB60B10020EEE73246294610
:1025F00020460AF0D8FB38B10020E6E76FF015005E
:10260000E3E76FF01500E0E76FF01500DDE700BFCE
:10261000640D002070B50D4E0D4B9E4211D2356AEF
:102620000024337F9C420AD205EBC40355F83410D2
:10263000187903F015FD30B90134E4B2F1E724361E
:10264000EAE7002001E04FF0FF3070BDA803002052
:10265000CC03002070B505460E46042805D02B1F7C
:10266000DBB2012B04D9144C14E0FFF793FEF6E71C
:10267000124B93F8B930002BF5D000F0EBFC042D91
:10268000F1D10F48FFF77AFD0C4B002283F8B920F7
:10269000E9E724340B4B9C4207D2E368002BF8D0C7
:1026A0003246294620469847F3E7044B1B6A13B18C
:1026B00031462846984770BDA8030020640D0020CD
:1026C00067CD0000CC03002010B582B0134B1B7DFA
:1026D000CBB9124CE268019201ABA16880200AF0EC
:1026E00085FB0199A2680A44A260E3685B1AE36073
:1026F0008BB9E28823699A420DDD13F03F0F0AD1AE
:102700000122227507E00021044B19750B460A4689
:10271000802003F0B3FA02B010BD00BF640D0020AA
:1027200010B584B000230393044600B931B3002CE4
:1027300040F09480504BDA68002A77DD03AB4E49B5
:10274000896800200AF020FF00287CDB03984A4AB1
:10275000916801449160D3681B1AD360002B7FD12C
:10276000104602F1380342F8083F00F11001FFF76C
:1027700031FC00286ED0FFF7A7FF71E0082201A905
:102780000AF002FF00282EDB9DF804003A4B187077
:102790009DF805205A70BDF806205A80BDF8082023
:1027A0009A80BDF80A10D98003F138029A6000229D
:1027B0001A751A61DA6010F0800F02D1802916D8DC
:1027C00061BB2D4800F1080200F11001FFF702FC87
:1027D00040B3294BDA8819698A42A8BF0A46DA60F1
:1027E000FFF772FF3CE0802003F060F938E0234BF4
:1027F000234A9B1ADB084FF00001012262F3020119
:102800006FF3C50163F38F111E48FEF7BDFF8020F3
:1028100003F04CF9002003F049F921E0164B19614F
:10282000D9601DE0802003F041F919E003AB0022DC
:102830001149896810460AF0A7FE002810DA8020A6
:1028400003F034F90CE0802003F030F9002003F0AD
:102850002DF905E0802003F029F901E0802C01D05A
:1028600004B010BD044BDB681BB9034B1B7D002B70
:10287000F6D0FFF729FFF3E7640D0020A4EC000079
:102880004CEC0000BCEF000008B5FFF7BFFB0849A7
:102890000020FFF7B3FB07490120FFF7AFFB064914
:1028A0000220FFF7ABFB0548FFF75CFC002008BDEA
:1028B000A5250000B52100004D220000F1210000F7
:1028C00008B5104B93F8B8300BB1002008BD00F0EC
:1028D000C3F918B1FFF7D8FF0020F7E70A4B0B4AFE
:1028E0009B1ADB084FF00001012262F302016FF333
:1028F000C50163F38F110648FEF746FF4FF0FF3026
:10290000E4E700BF640D0020A4EC00004CEC0000E4
:10291000D8EF000030B583B005464FF0FF324FF0DE
:10292000FF332D4807F034FE2C4B93F8B830002BC2
:102930004AD101200AF0DFF9041E46DB274B1D6255
:10294000274C2046FFF714FC204603F09DFB02F0C5
:10295000D1FF041E39DB00F0A9FB041E35DB402348
:10296000ADF8023000238DF804308DF80030684651
:1029700003F05EF8041E28DB80238DF800306846E3
:1029800003F056F8041E20DB1649002003F068FB14
:10299000041E1ADB1349802003F062FB041E14DBC3
:1029A000FFF738FE041E10DB002003F00FF9041EB1
:1029B0000BDB802003F00AF9041E06DB074B012223
:1029C00083F8B820002400E00024034807F06AFEE2
:1029D000204603B030BD00BFB4020020640D0020CB
:1029E000552600002127000002460548054B984265
:1029F00004D24368934202D02430F7E700207047A6
:102A0000A8030020CC03002030B58BB001AC1B4DD7
:102A10000FCD0FC42B6823701022002106A80AF0E6
:102A2000E5FC1222002116480AF0E0FC102106A85D
:102A30000AF030FF00281DDD083820EAE07400228B
:102A400016E0A3180AA90B4413F8103C51000AA879
:102A500000EB131010F8245C094800F8125003F042
:102A60000F0301310AAD2B4413F8243C43540132C7
:102A7000072AE6DD02480BB030BD00BF0CF00000B5
:102A8000280E002070B50446FFF7BEFF20B10546B2
:102A90000AF076FC064600B970BD0E480AF070FCDC
:102AA000864210D00C4B0D4A9B1ADB084FF00001F8
:102AB000012262F302016FF3C50163F38F1108482D
:102AC000FEF762FEE8E732462946A01C0AF06AFCDF
:102AD000E2E700BF0CF000009CEC00004CEC0000B2
:102AE00020F000002DE9F04182B004464FF00113C0
:102AF000019300252F46A8462E4662E0E378002B7E
:102B00005DD1A3784BB92046FFF76EFF804638B100
:102B1000836813B13946204698470137FFB24EE02B
:102B2000464B474A9B1ADB084FF00002012161F334
:102B300002026FF3C50263F38F1221464148FEF78C
:102B4000B1FD4FF0FF3073E0B8F1000F18D001AACB
:102B5000414620460AF07DF988B3384B384A9B1A23
:102B6000DB084FF00001012262F302016FF3C5019F
:102B700063F38F113448FEF707FE4FF0FF3057E044
:102B80002E4B2F4A9B1ADB084FF00001012262F303
:102B900002016FF3C50163F38F112C48FEF7F4FDBA
:102BA0004FF0FF3044E0032D20D01DBB36B3A31BF4
:102BB000B370C3F30723F37037710135EDB2237897
:102BC0001C4423787BB36378052BF8D801A252F814
:102BD00023F000BFA72B0000BF2B0000232C000018
:102BE000A72B0000FD2A0000492B00002046FFF71C
:102BF00049FFDAE720460AF018F9DEE70F4B104AE2
:102C00009B1ADB084FF00001012262F302016FF30F
:102C1000C50163F38F110E48FEF7B6FD4FF0FF308C
:102C200006E02646CBE7A01C0A4B984203D10020C1
:102C300002B0BDE8F081FFF755FFF9E79CEC00001A
:102C40004CEC00006CF00000D0F000008CF00000B4
:102C5000F0F00000A703002008B50C48FFF742FF82
:102C600008B90A4808BD0A4B0A4A9B1ADB084FF00C
:102C70000001012262F302016FF3C50163F38F11BA
:102C80000548FEF781FD0020ECE700BFE8020020C8
:102C90009CEC00004CEC000010F10000002300E070
:102CA0000133032B0CDC9A0106498A5C8242F7D17E
:102CB00001EB83125268002AF2D001EB83107047B7
:102CC000002070473C0E00202DE9F04182B0044600
:102CD00010F82C5C50F8283C13F1100F0CD103694C
:102CE00013F0020F62D050F8202C82BB13F0040FB7
:102CF00026D0002344F8283C54F8283C13F1100F48
:102D00001BD054F8186CC6B154F81C7C54F8148CC1
:102D10000BF01FFA002840F08F80002344F8183C85
:102D2000A4F1100007F03EFD54F8283C13F18C0F7D
:102D300003D0424639462846B04702B0BDE8F0818C
:102D400000231A46194628460AF050F8D1E701AB8D
:102D500050F8241C28460AF049F8014680B954F876
:102D6000243C019A134444F8243C54F8203C9B1A18
:102D700044F8203C54F81C3C134444F81C3CBBE78A
:102D8000304A314BD21AD2084FF00003012060F3D1
:102D900002036FF3C50362F38F132A462B48FEF735
:102DA000B7FC6FF0150344F8283CA5E701AB50F8D9
:102DB000202C50F8241C284603F010F80146A0B936
:102DC00054F8243C019E334444F8243C54F8203CFD
:102DD0009B1B44F8203C54F81C3C334444F81C3CF6
:102DE000CEB9002344F8283C86E7164A164BD21A7F
:102DF000D2084FF00003012060F302036FF3C50314
:102E000062F38F132A461148FEF782FC6FF0150318
:102E100044F8283C70E7284603F03CF9B6FBF0F391
:102E200000FB13600028DCD154F8203C002BD8D0E4
:102E3000284603F04DF85FE7214605480BF083FA7A
:102E40007BE700BFB4EC00004CEC000040F1000058
:102E5000B804002070B582B006460C46FFF71EFF8E
:102E6000631EDBB2012B0AD8054650B10BF071F995
:102E700008B1012C22D105F12C00FFF725FF02B08B
:102E800070BD012CFBD101AB01220DF103013046D5
:102E900002F0A4FF019B002BF5D10B4B0B4A9B1AB0
:102EA000DB084FF00001012262F302016FF3C5015C
:102EB00063F38F110648FEF767FCE0E705F12C018C
:102EC00004480BF040FADAE7B4EC00004CEC0000E8
:102ED00060F10000B80400202DE9F047054688465F
:102EE00017461E460AF05FF8002840F083804FF036
:102EF0002003EFF3118983F31288BFF36F8F00244F
:102F0000032C10DCA00100F118033C4818440430E5
:102F10000022002307F06AFC08B10134F0E73748CB
:102F200000EB841400E0002444B3D4F804A01AF1A8
:102F3000100F36D02570C4F80880E76000232361A5
:102F4000089B6361E663099BA3616FF00F036360F5
:102F5000284603F09FF8002839D116F0020F44D01C
:102F600004F12C0126480BF0EEF94FF0000A89F32A
:102F70001188BFF36F8F5046BDE8F087214B224A7E
:102F80009B1ADB084FF00001012262F302016FF38C
:102F9000C50163F38F111D48FEF7F6FB6FF00B0AB6
:102FA000E5E7184B184A9B1ADB084FF00002012195
:102FB00061F302026FF3C50263F38F1229461448CE
:102FC000FEF770FB04F11C0007F0ECFBCFE728468E
:102FD00003F060F8B7FBF0F300FB13700028BCD0DF
:102FE000E36B43F00403E363B7E7284602F070FFA6
:102FF0008246BCE76FF00F0ABDE700BF3C0E002021
:10300000B8040020B4EC00004CEC00007CF100009F
:1030100098F1000010B54FF02003EFF3118483F313
:103020001288BFF36F8FFFF739FE20B10146436866
:1030300013F1100F04D084F31188BFF36F8F10BD0C
:103040006FF08B0343602C3101480BF07CF9F2E701
:10305000B804002038B5002411E0124BA10103EBA5
:1030600084126FF08B0050602831194404310E48EF
:103070000BF069F985F31188BFF36F8F0134032CCE
:103080000FDC4FF02003EFF3118583F31288BFF3B9
:103090006F8F044B03EB84135B6813F1100FE9D1BE
:1030A000DBE738BD3C0E0020B804002070B50026D8
:1030B00011E00B4CB50105F128002044094904300A
:1030C0000BF03BF905F118002044043001221146B1
:1030D0000BF024F90136032EEBDD002070BD00BF9C
:1030E0003C0E0020C92C000070B504460E46154663
:1030F00001791E4809F023FF58B194F90020002AF5
:1031000027DB6278202A18D0222A1DD06FF0850094
:1031100028E0174B174A9B1ADB084FF000020221E8
:1031200061F302026FF3C50263F38F12A1881248A4
:10313000FEF7B8FA6FF0120014E0072229680C3885
:103140000AF030F900200DE0A27800F8052C0020EC
:1031500008E06278212A06D1A0F10C032B60072336
:103160003360002070BD6FF08500FBE73C0F00204E
:1031700094EC00004CEC0000D4F1000010B50446C3
:1031800001460D4809F0EFFE18B1012200F8032CAA
:1031900010BD0A4B0A4A9B1ADB084FF000020221BD
:1031A00061F302026FF3C50263F38F1221460548F3
:1031B000FEF778FAECE700BF3C0F002094EC00002B
:1031C0004CEC0000FCF1000008B50169012381F816
:1031D0002B300B6813B191F8293003B908BD0831C1
:1031E00001480BF0B0F8F9E7B804002008B5016910
:1031F000012381F82A300B6813B191F8283003B904
:1032000008BD083101480BF09EF8F9E7B80400202A
:1032100010B50346002480F87E4080F87F4080F897
:10322000294080F828400A4A92E803005867A3F82A
:103230007810090C83F87A1083F87C4083F87B407F
:103240004022214603F12C000AF0D0F810BD00BF47
:1032500040ED000070B51446066996F87E3013B153
:1032600096F87F3093B11A4B1A4A9B1ADB084FF03D
:103270000002022161F302026FF3C50263F38F12B1
:1032800021461548FEF70EFA002070BD002386F88F
:103290002830306F09F0C6F90546844206D806F199
:1032A00018010E480BF04FF82846EEE7084B094A84
:1032B0009B1ADB084FF00002022161F302026FF358
:1032C000C50263F38F12211A0548FEF7EBF9E6E712
:1032D00094EC00004CEC000024F20000B804002044
:1032E00058F2000070B582B0064614460D1E0FDD80
:1032F0002A4604F12C01E06E09F094F9854213D8B6
:10330000012384F82930236813B194F82B30EBB9EA
:103310000194114B00930123402204F12C0130460B
:10332000FFF7DAFD02B070BD0C4B0D4A9B1ADB08AB
:103330004FF00002012161F302026FF3C50263F353
:103340008F12291A0748FEF7ADF9D9E704F10801F1
:1033500005480AF0F8FFDBE7E532000094EC0000D6
:103360004CEC000058F20000B804002038B50446C8
:10337000D0F880305D680139052906D8DFE801F012
:10338000030506374B5FFFF743FF38BD454B464A01
:103390009B1ADB084FF00001032262F302016FF376
:1033A000C50163F38F114148FEF7EEF994F87E30C2
:1033B0009BB194F82830002BE7D1012384F8283002
:1033C0002368002BE1D094F82A30002BDDD004F1E3
:1033D000080137480AF0B7FFD7E72B6A22460021D9
:1033E000187BFFF77FFF012384F87E30E1E72D4B48
:1033F0002D4A9B1ADB084FF00001032262F3020101
:103400006FF3C50163F38F112A48FEF7BDF920461B
:10341000FFF7FEFEB9E7234B234A9B1ADB084FF068
:103420000001032262F302016FF3C50163F38F1100
:103430002148FEF7A9F9012384F87F30A5E7194B4D
:10344000194A9B1ADB084FF00001032262F30201C4
:103450006FF3C50163F38F111848FEF795F994F8DF
:103460007F30002B91D00F4B0F4A9B1ADB084FF097
:103470000001032262F302016FF3C50163F38F11B0
:103480000F48FEF781F9002384F87F3094F87E30EE
:10349000002B3FF47AAF2B6A22460021187BFFF7FE
:1034A00021FF72E794EC00004CEC00007CF200007D
:1034B000B804002090F20000A4F20000B8F200006E
:1034C000C8F2000070B504460D46164601460E4887
:1034D00009F023FD28B1324629468038FFF746FF20
:1034E00070BD0A4B0A4A9B1ADB084FF0000202210A
:1034F00061F302026FF3C50263F38F1221460548A0
:10350000FEF7D0F8ECE700BF3C0F002094EC000081
:103510004CEC0000D8F2000030B585B00569436876
:10352000A1228DF8042020228DF805200024ADF87A
:103530000640ADF808400222ADF80A20ADF80C10A4
:1035400085F87D40186A23460A2201A9007909F00E
:103550004DFC95F87D304BB901200BF03BF901345F
:10356000044B9C42F5D96FF0040000E0002005B048
:1035700030BD00BFA086010010B582B08DF80710E5
:10358000046994F87E3013B194F87F308BB1284BE6
:10359000284A9B1ADB084FF00001032262F3020164
:1035A0006FF3C50163F38F112348FEF7EDF802B006
:1035B00010BD002384F8283001220DF10701206F8F
:1035C00009F030F8E0B91A4B1A4A9B1ADB084FF0A1
:1035D0000001032262F302016FF3C50163F38F114F
:1035E0001648FEF7D1F801220021206F09F084F877
:1035F00060B101220DF10701206F09F013F828B125
:1036000004F118010E480AF09EFED0E7084B094A63
:103610009B1ADB084FF00001012262F302016FF3F5
:10362000C50163F38F110748FEF7AEF8BFE700BF8F
:1036300094EC00004CEC0000FCF200001CF30000D5
:10364000B80400203CF3000010B51446012382F8B2
:103650002830136813B192F82A3023B9206F08F08C
:103660007DFF30B110BD02F1080105480AF06BFE84
:10367000F4E704F1180102480AF065FEF2E700BF22
:10368000B804002010B50469C4F8800004F1840374
:103690000022C4F884200B4A526872B11360094AB0
:1036A0005360094904F108000AF047FE074904F194
:1036B00018000AF042FE002010BD024A5360136059
:1036C000EFE700BF3C0F0020D7CF0000D13600004D
:1036D000F0B585B00446A0F11807836E5B681B6ADD
:1036E0001D7D284609F05FFC08B105B0F0BD4FF420
:1036F000806203A9A06D08F0B5FF06460028F4D04B
:1037000010F03F0F00D1461E0197064B0093022395
:10371000324603992846FFF7DFFB3146A06D08F0DB
:10372000CDFFE2E74936000030B583B0084D0024F4
:1037300000944FF0FF334FF480620649284607F0AB
:103740009FF90549284606F035FE204603B030BDF6
:10375000B8040020202A0020C0F3000070B584B017
:103760002C4B1C7D04F01F0301229A4061092A4B57
:1037700003EB8103D043BFF35B8F53E8001F01EAE3
:10378000000543E80056002EF7D1BFF35B8F0A42D5
:103790003DD004EB44039A00204B134493E8070008
:1037A00004AB03E907001E4B63B109F052FE4FF072
:1037B0002003EFF3118683F31288BFF36F8F194B49
:1037C0001D680AE0002383F31188BFF36F8FEEE7D3
:1037D0002B460DB12B686BB11D465DB1AA68002A5E
:1037E000F6D00C4B1B7D03EB430399000B4B585C4D
:1037F0009047EDE786F31188BFF36F8F074804EB1E
:103800004404A2008118002383504B608B6004B0F5
:1038100070BD00BFD82400204C0F0020500F0020A6
:1038200053D40000440F0020F0B589B00546554B35
:103830001C7D04F01F0301229A406109524B03EBE7
:103840008103BFF35B8F53E8001F41EA020043E8A6
:103850000006002EF7D1BFF35B8F0A4217D004EBAE
:1038600044034A4A12F82330002B00F08880B5F157
:10387000FF3F1CD107F0C0F94FF02003EFF3118692
:1038800083F31288BFF36F8F414B1D682AE004EB6E
:1038900044063E4B03EB86066F462A4621463846D1
:1038A00009F0C5FC97E8070086E80700D7E704EBB6
:1038B000440302EB83039B68590CD803354E364A08
:1038C000002380194FF0000646EB0101FCF718FCBD
:1038D0000121281A0AF04FFFCCE72B460DB12B68C7
:1038E0006BB11D465DB16A68002AF6D0254B1B7D81
:1038F00003EB4303254911F823009047EDE786F3D6
:103900001188BFF36F8F04F01F03012199406309F1
:10391000224A02EB8303BFF35B8F53E8002F0A4375
:1039200043E800200028F8D1BFF35B8F04EB440389
:10393000164A02EB830393E8070008AB03E907008C
:10394000174B0BB109F072FDFFF708FF07F052FBB0
:10395000012004F01F020123934064090A4A02EB8C
:103960008404DB43BFF35B8F54E8002F1A4044E824
:1039700000210029F8D1BFF35B8F09B0F0BD002012
:10398000E7E700BFD82400205C0F0020500F002084
:10399000440F00203F420F0040420F004C0F002018
:1039A0002DD4000008B5024807F098FF08BD00BFFD
:1039B000D0F30000D0B108B54268042A05D0D2B1D6
:1039C000006806F06FFE002008BD03680022BFF308
:1039D0005B8F53E8001F012903D143E80020002832
:1039E000F7D1BFF35B8F04D11046EDE76FF4E040F1
:1039F00070470248E8E70248E6E700BFE98FFFFFAB
:103A0000EA8FFFFF20B308B54268042A02D092B9BA
:103A100011480FE003680122BFF35B8F53E8001FDA
:103A2000002903D143E800200028F7D1BFF35B8FC2
:103A30000CD1002008BD00684FF0FF324FF0FF337B
:103A400006F0A6FD0028F5D00448F3E70348F1E7A7
:103A50006FF4E040704700BFEA8FFFFFE98FFFFF80
:103A600010B5044688B16368042B0DD0082B0BD029
:103A700053B113F0020F0DD0214609480AF02BFB79
:103A8000002323600023636010BD064B5B6806487B
:103A90009847E8E714220021206809F0A7FCF1E725
:103AA000600F0020BC010020D8F3000010B50446D0
:103AB00078B16368042B0BD0082B09D00BB92368AD
:103AC00063B120680AF09AFB636843F00103636006
:103AD00010BD0F4B5B680F489847EAE74FF0FF3285
:103AE0004FF0FF3321460C4806F00EFC08B923685E
:103AF0001BB9074B5B6809489847142200212068CE
:103B000009F074FC636843F002036360D9E700BF07
:103B1000BC010020D8F30000600F002000F400007A
:103B200008B540231422044904480AF0C6FA04499F
:103B3000044807F035FF08BD7C0F0020600F00200F
:103B400040F4000030F40000014910220A60704780
:103B500010ED00E072B6404080F31188BFF36F8F24
:103B6000BFF34F8F30BF62B6BFF36F8F704700BF98
:103B700072B6494081F3118820BF80F3118862B684
:103B8000704700BF70B582B004461F4D1F4BED1A41
:103B9000ED0801264FF0000366F302036FF3C5033F
:103BA00065F38F13ADF800308368426801681848E8
:103BB000FDF73AFD4FF0000366F302036FF3C50310
:103BC00065F38F13ADF8003063692269E16811482D
:103BD000FDF72AFD4FF0000266F302026FF3C50203
:103BE00065F38F12E1690C48FDF75CFD4FF00002B0
:103BF00066F302026FF3C50265F38F12A1690748ED
:103C0000FDF750FD02B070BD74EC00004CEC0000FC
:103C100054F4000084F40000B4F40000C4F4000084
:103C200043B2002B08DB00F01F005B09012202FAFF
:103C300000F0024A42F82300704700BF00E100E0B4
:103C400043B2002B0DDB00F01F005B09012202FADA
:103C500000F02033034A42F82300BFF34F8FBFF335
:103C60006F8F704700E100E04209054B53F82220B6
:103C700000F01F00012303FA00F01040704700BF5E
:103C800000E100E0013143B2002B08DB4901C9B279
:103C900003F1604303F5614383F80013704700F0BC
:103CA0000F004901C9B2014B1954704714ED00E0EF
:103CB00030BFFFF7FDBF00BF08B50B4B0B4A22F02A
:103CC0007F029A60BFF34F8FBFF36F8FD3F88820C6
:103CD00022F47002C3F8882006F0B4FA07F01AFB49
:103CE00000F0B6FC06F0BAFA00ED00E000000000BB
:103CF0000A4A9368C3F8A80009490968C3F8AC10D8
:103D000008494B6843F080534B60002383F31188CC
:103D1000BFF36F8F9368D3F8AC007047D8240020AE
:103D20006CFD000000ED00E013498A684FF03000A0
:103D30001044EFF3098C80E8F01F202080F31288F4
:103D4000BFF36F8F0D4F4FF00066CA698A603E6007
:103D5000D2F8A8000023C2F8A83080F3118804B577
:103D6000104600F017FDBDE8044002F1300090E875
:103D7000F01F8CF309887047D824002004ED00E080
:103D80001EF0040F0CBFEFF30880EFF30980816988
:103D900011F8021C0229FFD001B509F05DFA01BD3E
:103DA00010B4A2F120040D4921F0010142F8081CD1
:103DB00042F8203C019B42F81C3C029B42F8183C14
:103DC000039B42F8143C4FF0807342F8043C0465B6
:103DD0000023C0F8A83010BC704700BF23C000000B
:103DE000164B9A68DAB110F1160F1AD010B4D2F847
:103DF0009830A3F12004844205D8834208D98B422D
:103E000008D8002100E0002131B9002010BC704723
:103E10000021F9E70121F7E7D2F89800F6E7002042
:103E20007047D2F898308B4294BF0021012109B924
:103E300000207047D2F89800704700BFD8240020B7
:103E400008B50D461446084B986000F0A3FC2046C8
:103E500085F30988002163B681F31188BFF36F8F62
:103E60000022002308F0DDF8D824002001B572B646
:103E70000B4A906900281EBF002191610AF0A2F947
:103E800062B6EFF30580A0F110004FEAC0000549CB
:103E9000014409C99847BDE80140034908470000AB
:103EA000D8240020CCEA0000AD3E0000044B996805
:103EB000D869884203D003494FF080520A607047A6
:103EC000D824002004ED00E008B54E4B4E4A9B1A62
:103ED000DB084FF00001012262F302016FF3C5011C
:103EE00063F38F114948FDF74FFC494B9B6A13F070
:103EF000007F21D1464B9B6A13F0807F2DD1444B2C
:103F00009B6A13F4002F39D1414B9B6A13F4802F25
:103F100045D13F4B9B6A13F4003F51D13C4B9B6A08
:103F200013F4803F5DD13A4A936A6FEA03436FEA24
:103F300013439362002008BD324B334A9B1ADB08BF
:103F40004FF00001012262F302016FF3C50163F338
:103F50008F113048FDF718FCCCE72A4B2A4A9B1AF0
:103F6000DB084FF00001012262F302016FF3C5018B
:103F700063F38F112848FDF707FCC0E7214B224A65
:103F80009B1ADB084FF00001012262F302016FF37C
:103F9000C50163F38F112148FDF7F6FBB4E7194B18
:103FA000194A9B1ADB084FF00001012262F302015B
:103FB0006FF3C50163F38F111948FDF7E5FBA8E71F
:103FC000104B114A9B1ADB084FF00001012262F3EB
:103FD00002016FF3C50163F38F111248FDF7D4FBA3
:103FE0009CE7084B084A9B1ADB084FF000010122AE
:103FF00062F302016FF3C50163F38F110A48FDF705
:10400000C3FB90E774EC00004CEC0000F4F40000FB
:1040100000ED00E00CF5000020F500003CF500008C
:104020005CF5000084F50000A0F5000008B5002252
:104030000A70084B08495B1ADB084FF000010120A9
:1040400060F3020162F3C50163F38F110348FDF7CA
:104050009BFB08BD74EC00004CEC0000CCF50000AC
:1040600070B505460E4614465E4B5F4A9B1ADB0848
:104070004FF00001012262F302016FF3C50163F307
:104080008F115A48FDF780FB594B9B6A13F4805FF0
:1040900024D1574B9B6A13F4006F30D1544B9B6A69
:1040A00013F4007F3CD1524B9B6A13F4806F65D1AF
:1040B0004F4B9B6A13F4807F71D14D4B9B6A13F475
:1040C000005F7DD14A4A936A43F47F4393620121A2
:1040D000284609F0D3F82070002070BD414B424AB9
:1040E0009B1ADB084FF00001012262F302016FF31B
:1040F000C50163F38F113F48FDF746FBC9E7394B14
:10410000394A9B1ADB084FF00001012262F30201D9
:104110006FF3C50163F38F113748FDF735FBBDE73A
:10412000304B314A9B1ADB084FF00001012262F349
:1041300002016FF3C50163F38F113048FDF724FBD3
:104140002B4B996B9B6A13F4004FACD0254B264A3E
:104150009B1ADB084FF00002012060F302026FF3AC
:10416000C50263F38F122648FDF79CFA002E9AD001
:104170001F4A936A23F40043936294E7194B1A4A47
:104180009B1ADB084FF00001012262F302016FF37A
:10419000C50163F38F111B48FDF7F6FA88E7114B51
:1041A000114A9B1ADB084FF00001012262F3020161
:1041B0006FF3C50163F38F111348FDF7E5FA81E74B
:1041C000084B094A9B1ADB084FF00001012262F3F9
:1041D00002016FF3C50163F38F110C48FDF7D4FAA8
:1041E00070E700BF74EC00004CEC0000F0F500003C
:1041F00000ED00E008F600001CF6000030F60000BC
:104200004CF6000064F6000080F6000098F600000E
:10421000F8B505460C461646644B654A9B1ADB0802
:104220004FF00001012262F302016FF3C50163F355
:104230008F116048FDF7A8FA5F4B9B6A13F0100FCF
:1042400032D15D4B9B6A13F0080F3ED15A4B9B6AEB
:1042500013F0020F4AD16FF01507574B9B6A13F00A
:10426000010F75D1544B9B6A13F0200F40F08180F1
:10427000514B9B6A13F0100F04D14F4B9C6A14F002
:10428000020405D04C4B5C6814F4006440F082805A
:10429000494A936A43F0FF0393620121284608F0DC
:1042A000EDFF30702046F8BD404B414A9B1ADB08B9
:1042B0004FF00001012262F302016FF3C50163F3C5
:1042C0008F113E48FDF760FABBE7384B384A9B1A1E
:1042D000DB084FF00001012262F302016FF3C50118
:1042E00063F38F113648FDF74FFAAFE72F4B304A93
:1042F0009B1ADB084FF00001012262F302016FF309
:10430000C50163F38F112F48FDF73EFA2A4B5F6B0F
:104310009B6A13F0800F02D16FF015079DE7234BC6
:10432000234A9B1ADB084FF00002012161F30202CD
:104330006FF3C50263F38F1239462348FDF7B2F9D4
:10434000002C8AD01C4A936A23F08003936284E78E
:10435000164B174A9B1ADB084FF00001012262F34B
:1043600002016FF3C50163F38F111848FDF70CFAD2
:1043700078E70E4B0E4A9B1ADB084FF00001012232
:1043800062F302016FF3C50163F38F111048FDF76B
:10439000FBF96DE729463846FFF722FD0446002861
:1043A0003FF476AF80F30988022471E774EC0000D3
:1043B0004CEC0000C8F6000000ED00E0E0F6000064
:1043C0001CF6000014F700002CF7000044F7000072
:1043D00098F6000070B505460C46474B474A9B1AB5
:1043E000DB084FF00001012262F302016FF3C50107
:1043F00063F38F114248FDF7C7F900232370414B47
:10440000DE6A16F0020609D13E4BDB6A002B17DB91
:104410003C4BD86A10F0804024D170BD364B374AEF
:104420009B1ADB084FF00001012262F302016FF3D7
:10443000C50163F38F113448FDF7A6F90020ECE7BE
:104440002D4B2E4A9B1ADB084FF00001012262F32C
:1044500002016FF3C50163F38F112C48FDF794F946
:104460003046DAE7244B254A9B1ADB084FF000015F
:10447000012262F302016FF3C50163F38F11244837
:10448000FDF782F9AB6933F8022C4DF602739A42BC
:104490000ED003F1604303F626631B78DBB91D4B96
:1044A0001B78F3B91C4B1B889BB203BB3046B4E7A7
:1044B000114B124A9B1ADB084FF00002012161F3F5
:1044C00002026FF3C50263F38F1229681348FDF7E8
:1044D000E9F82868A1E7224601212846FFF798FE5F
:1044E0009BE7224601212846FFF7BAFD95E72846BB
:1044F000FFF7EAFC91E700BF74EC00004CEC000011
:1045000064F7000000ED00E07CF70000A0F7000079
:10451000B0F7000029ED00E02AED00E0D0F7000040
:1045200008B50A460B480C4BC01AC0084FF00003F0
:10453000012161F302036FF3C50360F38F130F2AA8
:1045400005DC0649103A0648FDF7E2F808BD0549C2
:10455000F8E700BF74EC00004CEC0000ECF7000042
:1045600020F8000004F8000070B58AB02B4B5D689D
:10457000C5F30805002383F31188BFF36F8F02F0A2
:104580007F43B3F17F4F2AD102F00C03082B10D0E8
:1045900012F0080F20D00C4600260DF12702294604
:1045A000204608F06DFE05469DF82730D3B10AB0CD
:1045B00070BD1B4B1B4A9B1ADB084FF00001012208
:1045C00062F302016FF3C50163F38F111648FDF723
:1045D000DBF800263446E0E704460126DDE7002646
:1045E0003446DAE72022214601A808F0DBFE4EB16E
:1045F000089BC3F308025AB96FEA53236FEA4323B7
:10460000089305E0089B23F4FF7323F0010308934C
:1046100001A9284608F014FEC9E700BF00ED00E03C
:1046200074EC00004CEC000034F80000024A5369BE
:1046300043F010035361704700ED00E0EFF3088092
:10464000EFF3098101B57246FFF78EFF01BD00BF90
:10465000002206E002F00F01094B0B4420211976DD
:1046600001322F2A0ADC53B2002BF3DB03F1604343
:1046700003F56143202183F80013F1E7704700BF81
:10468000FCEC00E0002080F31488BFF36F8F0AF089
:1046900093F900200D490860BFF34F8F0C4880F359
:1046A000088800F029F8202080F3118809484FF489
:1046B0000261401880F30988EFF314800221084357
:1046C00080F31488BFF36F8FFFF7F6FA94ED00E0E4
:1046D00060360020E0370020064B1868C0F3072042
:1046E0000023834205DA034A9360002111610133FC
:1046F000F7E7704790ED00E010B572B6002484F340
:104700001388FFF7E9FF234608E003F120010E4A72
:104710004FF0FF3042F821000133DBB2072BF4D910
:10472000002308E003F16001074A4FF0FF3042F830
:1047300021000133DBB2072BF4D962B6BFF34F8FF0
:10474000BFF36F8F10BD00BF00E100E008B5084B5C
:104750009B68834202D006F0A3FD08BDEFF30583FA
:10476000002BF8D0034A536843F080535360F2E7BC
:10477000D824002000ED00E008B5034B034A0121D6
:10478000034808F0D2FD08BD00000420000000200E
:1047900064F8000008B5D0F89830203B0448036066
:1047A00020234360034B8360012108F0C2FD08BD54
:1047B0007C14002000000B15064A90600B6823F063
:1047C0001F03034343F01003D3608B6843F00103DE
:1047D0001361704790ED00E010B50446072803D838
:1047E000FFF7EAFF204610BD094B0A4A9B1ADB0877
:1047F0004FF00002012161F302026FF3C50263F37F
:104800008F1201460448FCF74DFF6FF01500EAE7F0
:104810006CEC00004CEC000070F800002DE9F04753
:1048200080460F469A461646002409E02946F0B213
:1048300008F05CFD064610F1160F25D00136013454
:10484000BC4221DA04EB440508EB85056A68002ABE
:10485000F5D0BAF1000FE9D0284608F036FD00285F
:10486000E4D10B4B0B4A9B1ADB084FF000020121ED
:1048700061F302026FF3C50263F38F12214606480B
:10488000FCF710FF6FF015063046BDE8F08700BF5B
:104890006CEC00004CEC000098F8000010B5034CE4
:1048A00001232278FFF7BAFF207010BD39250020C0
:1048B00008B50023084A1278FFF7B0FF10F1160F71
:1048C00008D00346072B05DC044A936000211161E0
:1048D0000133F7E708BD00BF3925002090ED00E067
:1048E000034B05225A60BFF34F8FBFF36F8F7047A2
:1048F00090ED00E0BFF35F8F014B00225A607047DC
:1049000090ED00E038B50E4B1D68082D15D8FFF767
:10491000F1FF0024A5420AD9094B596804EB44026F
:10492000930019442046FFF747FF0134F2E7054B97
:104930001D70FFF7D5FF002038BD4FF0FF30FBE7BB
:10494000CCF8000039250020014B1860704700BFEB
:10495000000100204FF02003EFF3118283F312884F
:10496000BFF36F8F01230649C1F840354FF08041F6
:10497000C1F8783582F31188BFF36F8F002070473C
:1049800000E00140C0B24FF08043C3F81C05BFF304
:104990004F8F0549CA6802F4E062044B1343CB60B1
:1049A000BFF34F8F00BFFDE700ED00E00400FA0504
:1049B00030B108B58001034B43F00103984708BDAF
:1049C000704700BF50ED000000F07F0342B2002AA4
:1049D00012DB082B02D010F0780F1DD100F00F036E
:1049E000002A10DB10F0080F1AD109335B0148339D
:1049F0000C480344181D7047082BEFD010F0780FB7
:104A0000ECD00020704710F0080F07D15B0148334D
:104A100004480344181D704700207047024870473F
:104A200002487047881A0020D41B0020F41C002084
:104A300010B5002405E0E0B208F016FD08F01EFDF8
:104A40000134072CF7D9002406E0104B03EB841344
:104A5000036108F013FD0134072C06D8E0B208F01A
:104A600009FD0369002BF4D1EFE7882008F0FCFC76
:104A700008F004FD082008F0FDFC03691BB108F0F4
:104A8000FDFC002010BD024B0361F8E788180020F0
:104A90008814002010B582B00B4803F05BFA0B4875
:104AA00003F09CFA002400944FF0FF334FF480622F
:104AB0000749084805F0E4FF0749084809F03DFCAC
:104AC000204602B010BD00BF10FB000014FB000028
:104AD000402E002088050020554D0000B01A00200F
:104AE00030B583B005460022002301A92E4805F009
:104AF0000BFC80B9019C64605CB1002323742572B7
:104B000021462A4809F0FEFB294B93F82430002B5C
:104B100044D103B030BD274B274A9B1ADB084FF026
:104B20000001012262F302016FF3C50163F38F11EB
:104B30002248FCF729FE04E0011D1B4809F0CBFACE
:104B400044B100220023194805F0F0FD0446002876
:104B5000F2D1F5E70022002301A9134805F0D4FBA8
:104B600080B1144B144A9B1ADB084FF0000101225C
:104B700062F302016FF3C50163F38F111048FCF774
:104B800003FEB9E70199496004230B74074809F053
:104B9000B9FB0C490C4809F0D6FBADE709490A48B6
:104BA00009F0D1FBB5E700BF34020020D802002095
:104BB000881A0020ACEC00004CEC0000F0F800007B
:104BC00010F90000B01A00208805002008B501285F
:104BD00014D0022815D098B10B4B0C4A9B1ADB0855
:104BE0004FF00002012161F302026FF3C50263F38B
:104BF0008F1201460648FCF755FD04E0002000E056
:104C00000120FFF76DFF08BDACEC00004CEC00008C
:104C10002CF9000030B583B00820FFF7D5FE20B195
:104C20000546037A93B903B030BD404B404A9B1A06
:104C3000DB084FF00001012262F302016FF3C501AE
:104C400063F38F113B48FCF79FFDECE701234377AB
:104C500003770022002301A9374805F055FB80B9EE
:104C6000019C6460002C4FD0012323742373A56042
:104C70002146324809F046FB3149324809F063FBCE
:104C8000D1E72A4B2A4A9B1ADB084FF00001012288
:104C900062F302016FF3C50163F38F112A48FCF739
:104CA00073FD00E064B100220023244805F03EFDBE
:104CB00004460028F6D0011D1F4809F00CFAF1E760
:104CC0000022002301A91C4805F01EFB80B1174BF0
:104CD000174A9B1ADB084FF00001012262F3020120
:104CE0006FF3C50163F38F111848FCF74DFDB9E769
:104CF0000199496004230B74104809F003FB104923
:104D0000104809F020FBADE7084B094A9B1ADB0865
:104D10004FF00001012262F302016FF3C50163F35A
:104D20008F110B48FCF730FD7DE700BFACEC0000B5
:104D30004CEC000048F9000034020020D8020020AA
:104D4000B01A002088050020F0F8000010F90000DB
:104D50005CF900002DE9F04F85B005468FE1211D7B
:104D6000B54809F0B8F98AE115F8043C4BB1D4F81C
:104D700008A0237B032B00F27E81DFE803F014619F
:104D80009DA4AE4BAE4A9B1ADB08012262F30207D8
:104D90006FF3C50763F38F17A3683A46597AA9489A
:104DA000FCF780FCE3E7DAF814B00822002158464B
:104DB00008F01CFBA44BD3F880248BF80020D3F818
:104DC00084248BF80120D3F8882492B2D3F88C1471
:104DD000090289B20A43ABF80220D3F8902492B2B8
:104DE000D3F89414090289B20A43ABF80420D3F82B
:104DF000982492B2D3F89C341B029BB21343ABF8B5
:104E000006300822CAF80C205946904808F0CAFA21
:104E1000DAF8003000219AF8090098479BF9003031
:104E2000002B02DBBBF8063023B9894B0022A3F824
:104E30008C2220E1864AA2F88C3204F05FFB1AE152
:104E40009AF81D30002B00F016819AF81C30002BC8
:104E500000F011814FF0000B8AF81DB08AF81CB0E9
:104E60004FF0FF324FF0FF337A4805F091FBDAF84C
:104E700014300193DAF804300293CDF80CB001A994
:104E80009AF8090003F0EEFE0146734B984203D1F5
:104E9000704805F007FCEEE0684B694A9B1ADB0896
:104EA000012262F302086FF3C50863F38F184246CC
:104EB0006A48FCF7F7FBEBE7DAF8003001219AF8D3
:104EC00009009847D7E09AF80A3013B99AF81F30CA
:104ED00033B1DAF8003002219AF809009847CAE0A5
:104EE000DFF870B14FF0FF324FF0FF33584605F056
:104EF0004FFB04F055FB584605F0D4FBE9E7237A55
:104F0000042B00F2B880DFE803F022030E354400E2
:104F100003F036FE002840F0AE8003F07BFD4C48E5
:104F200008F013FBA7E0DFF828A1504608F0DBFAF1
:104F3000012003F009FE01238AF82530DAF8003059
:104F4000002B00F0988000210220984793E0DFF8C2
:104F500000A100238AF8253004F0C0FD504608F077
:104F6000A1FADAF80030002B00F08580002104203F
:104F7000984780E0364B93F82530002B7BD004F027
:104F8000CFFD334B1B68002B75D0002105209847BF
:104F900071E02F4B1B68002B6DD02D4A92F8252015
:104FA000002A68D000210620984764E005F1100A25
:104FB0004FF0FF324FF0FF33504605F0E9FAFFF7AC
:104FC00037FD504605F06EFB55F8283C002B52D0BB
:104FD0000021012098474EE0FFF71CFE55F8283CC1
:104FE000002B48D000210A20984744E0134B144A74
:104FF0009B1ADB08012262F302066FF3C50663F316
:105000008F1631461648FCF7BFFB08F092FF04F0FC
:1050100065FD03F0F5FC06E0011D074809F05BF8AB
:10502000BAF1000F20D0002200230E4805F07EFBCD
:1050300082460028F0D1F3E734020020ACEC0000F7
:105040004CEC000070F90000007002408C1A002047
:10505000881A0020C01A00200000AD0B98F900004B
:10506000C0F90000D8020020FFF7E2FC08F05AFF68
:105070001C4803F09FFD211D1B4809F02CF800225D
:1050800000231A4805F052FB044638B3184B93F836
:1050900025301BB9237C002B7FF461AE217C0429D1
:1050A0000CD801A353F821F0FF4E0000694D000019
:1050B000AD4F0000D94F0000ED4F00000D4B0E4AE0
:1050C0009B1ADB08012262F302096FF3C50963F33F
:1050D0008F194A460948FCF7E5FACCE705B0BDE868
:1050E000F08F00BF5D57000034020020D80200207E
:1050F000881A0020ACEC00004CEC0000D8F900004D
:1051000070B582B0044686783046FFF75DFC0546F0
:1051100016F0800F22D1E178002900F0D880012913
:1051200040F05C810022002301A9B64805F0ECF8AC
:10513000002840F08980019C6460002C00F05F81B1
:1051400001236B7723742373A5602146AE4809F0D1
:10515000D9F8AE49AE4809F0F6F850E1E178A1B1CE
:10516000032900F04C81AB4AAB4BD21AD2084FF066
:105170000003012060F302036FF3C50362F38F1392
:105180003246A648FCF7C4FA39E10022002301A9FF
:105190009C4805F0B9F8A0B9019C6460002C00F0AF
:1051A0002E810023AB770123237403232373A5608F
:1051B0002146954809F0A6F89449954809F0C3F8A6
:1051C0001DE1944B944A9B1ADB084FF00001012229
:1051D00062F302016FF3C50163F38F119048FCF78E
:1051E000D3FA00E064B100220023874805F09EFA5C
:1051F00004460028F6D0011D824808F06CFFF1E754
:105200000022002301A97F4805F07EF880B1814B80
:10521000814A9B1ADB084FF00001012262F3020170
:105220006FF3C50163F38F117E48FCF7ADFAB5E764
:105230000199496004230B74734809F063F87349BA
:10524000734809F080F8A9E7724B734A9B1ADB0890
:105250004FF00001012262F302016FF3C50163F315
:105260008F116F48FCF790FA04E0011D654808F0C3
:1052700032FF44B100220023634805F057FA044688
:105280000028F2D1F5E70022002301A95D4805F0CE
:105290003BF880B15F4B604A9B1ADB084FF000017E
:1052A000012262F302016FF3C50163F38F115D48C0
:1052B000FCF76AFA41E70199496004230B745248EC
:1052C00009F020F85149524809F03DF835E700222D
:1052D000002301A94B4805F017F820BB019E76601A
:1052E000002E00F08C800123337402233373B560E9
:1052F00005F10C01A07803F04BFD0146002855D1C3
:10530000494BB3F88C32EA68934260D8464B00228E
:10531000A3F88C2231463C4808F0F4FF3B493C4856
:1053200009F011F86BE03B4B3B4A9B1ADB084FF04E
:105330000001012262F302016FF3C50163F38F11D3
:105340003748FCF721FA04E0011D2E4808F0C3FE9F
:1053500046B1002200232C4805F0E8F90646002853
:10536000F2D1F5E70022002301A9264804F0CCFF82
:1053700080B1284B284A9B1ADB084FF0000101221C
:1053800062F302016FF3C50163F38F112548FCF747
:10539000FBF9A5E70199496004230B741A4808F04A
:1053A000B1FF1A491A4808F0CEFF99E7194B1A4A7B
:1053B0009B1ADB084FF00002012060F302026FF33A
:1053C000C50263F38F121948FCF76CF998E79B1A32
:1053D000154AA2F88C3204F091F89BE70D4A0E4B67
:1053E000D21AD2084FF00003012060F302036FF3DA
:1053F000C50362F38F1332460848FCF789F902B0FF
:1054000070BD00BF34020020D8020020B01A002076
:1054100088050020ACEC00004CEC0000F0F9000026
:10542000F0F8000010F90000881A00201CFA0000B3
:1054300070B582B0044686783046FFF7C5FA054657
:1054400016F0800F22D1E178002900F0D8800129E0
:1054500040F05D810022002301A9B64804F054FF0A
:10546000002840F08980019C6460002C00F060817D
:1054700001236B7723742373A5602146AE4808F09F
:1054800041FFAE49AE4808F05EFF51E1E178A1B1BD
:10549000032900F04D81AB4AAB4BD21AD2084FF032
:1054A0000003012060F302036FF3C50362F38F135F
:1054B0003246A648FCF72CF93AE10022002301A964
:1054C0009C4804F021FFA0B9019C6460002C00F00E
:1054D0002F810023AB770123237403232373A5605B
:1054E0002146954808F00EFF9449954808F02BFF97
:1054F0001EE1944B944A9B1ADB084FF000010122F5
:1055000062F302016FF3C50163F38F119048FCF75A
:105510003BF900E064B100220023874805F006F95A
:1055200004460028F6D0011D824808F0D4FDF1E7BA
:105530000022002301A97F4804F0E6FE80B1814BE0
:10554000814A9B1ADB084FF00001012262F302013D
:105550006FF3C50163F38F117E48FCF715F9B5E7CA
:105560000199496004230B74734808F0CBFE73491A
:10557000734808F0E8FEA9E7724B734A9B1ADB08F0
:105580004FF00001012262F302016FF3C50163F3E2
:105590008F116F48FCF7F8F804E0011D654808F02A
:1055A0009AFD44B100220023634805F0BFF8044689
:1055B0000028F2D1F5E70022002301A95D4804F09C
:1055C000A3FE80B15F4B604A9B1ADB084FF00001DD
:1055D000012262F302016FF3C50163F38F115D488D
:1055E000FCF7D2F841E70199496004230B74524853
:1055F00008F088FE5149524808F0A5FE35E7002220
:10560000002301A94B4804F07FFEF0B9019E7660AB
:10561000002E00F08D80A37894F90220002A57DB39
:1056200013F0080F67D04C4BD3F8A837EB60012379
:10563000337402233373B56031463F4808F062FE8D
:105640003E493F4808F07FFE72E03E4B3E4A9B1ABF
:10565000DB084FF00001012262F302016FF3C50184
:1056600063F38F113A48FCF78FF804E0011D3148CD
:1056700008F031FD46B1002200232F4805F056F80E
:1056800006460028F2D1F5E70022002301A92948A7
:1056900004F03AFE80B12B4B2B4A9B1ADB084FF0EB
:1056A0000001012262F302016FF3C50163F38F1160
:1056B0002848FCF769F8ABE70199496004230B74AB
:1056C0001D4808F01FFE1D491D4808F03CFE9FE7DD
:1056D00013F0080F03D0204BD3F8A836A6E703F049
:1056E0000F0303EB83039B0003F1804303F51C339B
:1056F000D3F808369AE703F00F0303EB83039B000C
:1057000003F1804303F51C33D3F808378EE70D4AC5
:105710000D4BD21AD2084FF00003012060F30203B0
:105720006FF3C50362F38F1332460848FBF7F0FFAF
:1057300002B070BD34020020D8020020B01A002050
:1057400088050020ACEC00004CEC0000F0F90000F3
:10575000F0F8000010F900000070024010B588B0A9
:105760000023039304930593069307930378013B67
:10577000052B26D8DFE803F03503272E5339002305
:105780008DF81C3003238DF814300022002301A96A
:10579000504804F0B9FD002859D1019C646084B1DF
:1057A0009DF81C30237404F108030699059883E8DA
:1057B00003002146484808F0A5FD4849484808F03C
:1057C000C2FD08B010BD00238DF81C3004238DF8F5
:1057D0001430DAE700238DF81C3004238DF81430E0
:1057E000D3E702238DF81C30CFE704468078FFF71B
:1057F000EBF8837A012B0ED005D8002BE1D120469F
:10580000FFF77EFCDDE7023BDBB2012BD9D8204657
:10581000FFF70EFED5E72046FFF70AFED1E701A805
:1058200003F040FE9DF80530052B0AD00020FFF75D
:10583000CBF801238DF81C30059000238DF818302B
:10584000A3E79DF8043013F0600FBAD0EEE7254BC4
:10585000254A9B1ADB084FF00001012262F3020186
:105860006FF3C50163F38F112048FBF78DFF04E050
:10587000011D184808F02FFC44B1002200231648EF
:1058800004F054FF04460028F2D1F5E7002200237B
:1058900001A9104804F038FD80B1124B124A9B1A3E
:1058A000DB084FF00001012262F302016FF3C50132
:1058B00063F38F110E48FBF767FF70E701994960AA
:1058C00004230B74044808F01DFD0449044808F043
:1058D0003AFD64E734020020D8020020B01A00200C
:1058E00088050020ACEC00004CEC0000F0F8000053
:1058F00010F9000010B51D4B93F8243013B10024AB
:10590000204610BD194C04F1380008F077FC002047
:1059100000F036FDE061002201212720FEF7B2F9F8
:10592000134803F047F9134B98421BD108F0FAFAD9
:10593000FFF77EF8044618B90C4B012283F82420A7
:105940000D4B1B681BB10D490D4808F0FCFC4FF0D6
:105950008043D3F8383413F0010FD1D00020FFF783
:1059600035F9CDE76FF00404CAE700BF881A0020BC
:105970005D5700000000AD0BD8020020B01A0020D7
:1059800088050020074B93F824302BB1054B93F882
:10599000253023B1002070476FF0120070476FF080
:1059A00012007047881A002008B5017801F00F0234
:1059B000037903B92AB9082A16D8012B27D0002069
:1059C00008BD174B174A9B1ADB084FF00001012254
:1059D00062F302016FF3C50163F38F111248FBF705
:1059E000D3FE4FF0FF30EBE70D4B0E4A9B1ADB085E
:1059F0004FF00001012262F302016FF3C50163F36E
:105A00008F110A48FBF7C0FE4FF0FF30D8E711F0C6
:105A1000080F01D00020D3E74FF0FF30D0E700BFE0
:105A2000ACEC00004CEC00003CFA00005CFA00001A
:105A300038B51A4B93F8243053B3044605782846FA
:105A4000FEF7C2FF38B345722279827262884260E3
:105A5000207810F0080F03D163885A1E134204D136
:105A6000618803F097F8002038BD0D4B0D4A9B1A52
:105A7000DB084FF00001012262F302016FF3C50160
:105A800063F38F110848FBF77FFE6FF01500EBE71B
:105A90006FF01200E8E76FF01500E5E7881A0020C4
:105AA000ACEC00004CEC00007CFA000038B51E4B5A
:105AB00093F824307BB304461B4B93F825306BB32B
:105AC000FEF782FF054660B3837A012B10D007D81A
:105AD0000BB903F06DFD0020E8606B69AB6138BD68
