:1000000000440020554D0000971301000D4D0000E5
:100010000D4D00000D4D00000D4D000000000000D2
:10002000000000000000000000000000514400003B
:100030000D4D000000000000F9430000F124010014
:100040003D4500003D4500003D4500003D450000A8
:100050003D4500003D4500003D4500003D45000098
:100060003D4500003D4500003D4500003D45000088
:100070003D4500003D4500003D4500003D45000078
:100080003D4500003D4500003D4500003D45000068
:100090003D4500003D4500003D4500003D45000058
:1000A0003D4500003D4500003D4500003D45000048
:1000B0003D4500003D4500003D4500003D45000038
:1000C0003D4500003D4500003D4500003D45000028
:1000D0003D4500003D4500003D4500003D45000018
:1000E0003D4500003D4500003D4500003D45000008
:1000F0003D4500003D4500003D4500003D450000F8
:1001000080F0004002E000BF81F0004142001FBFCC
:100110005FEA410392EA030F7FEA226C7FEA236CD5
:100120006AD04FEA1262D2EB1363C1BFD2184140CA
:1001300048404140B8BF5B42192B88BF704710F060
:10014000004F40F4000020F07F4018BF404211F003
:10015000004F41F4000121F07F4118BF494292EA6B
:10016000030F3FD0A2F1010241FA03FC10EB0C0097
:10017000C3F1200301FA03F100F0004302D5494224
:1001800060EB4000B0F5000F13D3B0F1807F06D3D1
:1001900040084FEA310102F10102FE2A51D2B1F1C9
:1001A000004F40EBC25008BF20F0010040EA0300BE
:1001B0007047490040EB0000013A28BFB0F5000F3E
:1001C000EDD2B0FA80FCACF1080CB2EB0C0200FAF4
:1001D0000CF0AABF00EBC25052421843BCBFD04043
:1001E0001843704792F0000F81F4000106BF80F4BD
:1001F00000000132013BB5E74FEA41037FEA226C80
:1002000018BF7FEA236C21D092EA030F04D092F04A
:10021000000F08BF0846704790EA010F1CBF00207E
:10022000704712F07F4F04D1400028BF40F00040DB
:10023000704712F100723CBF00F50000704700F0FB
:10024000004343F0FE4040F4000070477FEA226222
:1002500016BF08467FEA23630146420206BF5FEAF3
:10026000412390EA010F40F4800070474FF00003F3
:1002700004E000BF10F0004348BF40425FEA000CBA
:1002800008BF704743F0964301464FF000001CE062
:1002900050EA010208BF70474FF000030AE000BFB8
:1002A00050EA010208BF704711F0004302D54042F6
:1002B00061EB41015FEA010C02BF84460146002068
:1002C00043F0B64308BFA3F18053A3F50003BCFA83
:1002D0008CF2083AA3EBC25310DB01FA02FC634430
:1002E00000FA02FCC2F12002BCF1004F20FA02F237
:1002F00043EB020008BF20F00100704702F120022A
:1003000001FA02FCC2F1200250EA4C0021FA02F28A
:1003100043EB020008BF20EADC7070474FEA40025E
:10032000B2F1FE4F0FD34FF09E03B3EB12620DD923
:100330004FEA002343F0004310F0004F23FA02F08D
:1003400018BF404270474FF00000704712F1610F34
:1003500001D1420205D110F0004008BF6FF000400B
:1003600070474FF00000704753B94AB9002908BFE1
:1003700000281CBF4FF0FF314FF0FF3000F080B974
:10038000ADF1080C6DE904CE00F01AF8DDF804E0D8
:10039000DDE9022304B07047430803F05533C01A67
:1003A000830803F0333300F03330184400EB1010AF
:1003B00000F00F3000EB002000EB0040000E704713
:1003C0002DE9F047089E0D4604468E46002B40F06E
:1003D00082808A42174646D9B2FA82F24AB1C2F105
:1003E000200105FA02F320FA01F1974041EA030ED9
:1003F00094404FEA1748230CBEFBF8FCB9B208FB47
:100400001CEE43EA0E430CFB01F098420AD9FB189C
:100410000CF1FF3580F01681984240F21381ACF167
:10042000020C3B441B1AA4B2B3FBF8F008FB1033D8
:1004300044EA034400FB01F1A14209D93C1900F14F
:10044000FF3380F00181A14240F2FE8002383C443B
:10045000641A40EA0C4000211EB1D4400023C6E9D2
:100460000043BDE8F08702B9FFDEB2FA82F2002A4B
:100470004FD1CB1B4FEA174E1FFA87F80121B3FB70
:10048000FEFC250C0EFB1C3345EA034508FB0CF370
:10049000AB4207D97D190CF1FF3002D2AB4200F21A
:1004A000E7808446ED1AA3B2B5FBFEF00EFB1055B3
:1004B00043EA054408FB00F8A04507D93C1900F1C0
:1004C000FF3302D2A04500F2D7801846A4EB0804FF
:1004D00040EA0C40C0E78B4208D9002E00F0AF8004
:1004E0000021C6E900050846BDE8F087B3FA83F1AC
:1004F00000294BD1AB4202D3824200F2B780841A6A
:1005000065EB030301209E46002EAAD0C6E9004EEB
:10051000A7E7C2F1200C01FA02F3974020FA0CF091
:100520004FEA174E21FA0CFC1843BCFBFEF1050CF8
:100530000EFB11CC1FFA87F845EA0C4501FB08F3C6
:10054000AB4204FA02F409D97D1901F1FF3C80F0B5
:100550008B80AB4240F2888002393D44EB1A85B271
:10056000B3FBFEF00EFB103345EA034500FB08F336
:10057000AB4207D97D1900F1FF3C71D2AB426FD974
:1005800002383D44EB1A40EA014178E7C1F1200C02
:100590008B4022FA0CF71F4320FA0CF405FA01F302
:1005A0004FEA174E25FA0CF51C43230CB5FBFEF958
:1005B0001FFA87F80EFB195543EA054509FB08FAAF
:1005C000AA4502FA01F200FA01F308D97D1909F1EE
:1005D000FF3047D2AA4545D9A9F102093D44A5EB10
:1005E0000A05A4B2B5FBFEF00EFB105544EA054423
:1005F00000FB08F8A04507D93C1900F1FF352DD2C2
:10060000A0452BD902383C4440EA0940A4EB080439
:10061000A0FB02894C45C6464D4619D316D05EB1A3
:10062000B3EB0E0264EB050404FA0CFCCA404CEA7E
:100630000202CC40C6E900240021BDE8F087314623
:1006400030460EE7AC46EDE6184601E74345E6D2F4
:10065000B8EB020E69EB07050138E0E72846D3E75F
:1006600060468FE78146BAE7614677E708464BE781
:10067000ACF1020C3D4415E702383C4426E700BFCC
:10068000704700BF00B583B000F024F800F0F2F925
:1006900000F0E2FA019004220DEB0201684610F02E
:1006A0005DFF0421684600F077F806E000F084F969
:1006B00040F6CD4000210EF08FFB054B1868836893
:1006C0005B6B002BF2D098470028F1D0EEE700BF1B
:1006D0005C0E002010B582B02A482B4B1860002316
:1006E000009313F0A5F918B1002002F0BBFC08B18B
:1006F00002B010BD254C1C220021204610F052FFF4
:100700004FF480632361224B636140F2FF33A361A6
:100710001C4B9B681B6D1BB16A4604211948984706
:10072000009B2BB940F6CD4000210EF055FBEFE7C2
:10073000144B9B68DB6C1BB10122082111489847C0
:10074000104B9B68DB6C1BB1012210210D489847B0
:10075000104813F0AAFD0B4B9B681B6D1BB101AA3F
:10076000012108489847074B9B689B6A0BB10548D5
:100770009847044B9B68DB69002BB9D00148984728
:10078000B6E700BF604401005C0E0020400E002070
:10079000400A002040420F0010B5A0B00C460A46A7
:1007A00069460FF00BF8054B186883685B6913B155
:1007B000221D6946984720B010BD00BF5C0E002086
:1007C00000B583B040238DF8043043788DF80530B0
:1007D00083788DF80630032101A8FFF7DDFF03229F
:1007E000044B1A7001A9044810F0B8FE03B05DF87C
:1007F00004FB00BFD42E0020C009002000B583B048
:1008000050238DF8043043788DF8053083788DF8C7
:100810000630032101A8FFF7BFFF0322044B1A7023
:1008200001A9044810F09AFE03B05DF804FB00BF74
:10083000D42E0020C009002000B583B060238DF8BD
:10084000043043788DF8053083788DF80630032125
:1008500001A8FFF7A1FF0322044B1A7001A9044865
:1008600010F07CFE03B05DF804FB00BFD42E002026
:10087000C009002000B583B065238DF804304378AB
:100880008DF8053083788DF80630032101A8FFF735
:1008900083FF0322044B1A7001A9044810F05EFE86
:1008A00003B05DF804FB00BFD42E0020C009002077
:1008B00000B583B070238DF8043043788DF805308F
:1008C00083788DF80630032101A8FFF765FF032226
:1008D000044B1A7001A9044810F040FE03B05DF803
:1008E00004FB00BFD42E0020C009002000B583B057
:1008F00080238DF8043043788DF8053083788DF8A7
:100900000630032101A8FFF747FF0322044B1A70AA
:1009100001A9044810F022FE03B05DF804FB00BFFB
:10092000D42E0020C009002010B582B015238DF808
:10093000043043788DF805301A468DF80630037878
:10094000202B22D00AD8062B21D0152B24D1164BD0
:100950001B78FBB11548FFF7E7FF1BE0402B1BD1CD
:10096000114B1978B1B11148FFF716FF12E00133AE
:10097000DBB2042B0ED81C460D49C95C8A42F6D165
:100980000C4B53F82430984704E00023F1E7064B62
:1009900000221A7002B010BD032101A8FFF7FCFE6F
:1009A000014B00221A70F5E7D42E0020C009002068
:1009B000D0470100B847010030B597B02A480FF082
:1009C00066FD3F280ED94022284B186883689B6932
:1009D0006BB106A9984704469DF818307E2B09D0C4
:1009E00017B030BD20480FF052FD0246ECE76FF023
:1009F0005704F1E7631E16AA134413F8403CFF2B7B
:100A0000EED1062CECDD251F2A460DF1190102A8B6
:100A100010F0A4FDE11E022206AB194401A810F05B
:100A20009DFD294602A80EF0ABFE9DF804209DF81E
:100A3000053043EA0223984211D015238DF8003087
:100A40009DF809308DF801300A238DF8023003211A
:100A50006846FFF7A1FE064B00221A70C0E702A805
:100A6000FFF762FFBCE700BF400E00205C0E0020D5
:100A7000D42E002070B586B01C4C6569E3681C4A12
:100A8000FF211C4804F0ECFAE3681B4AFF211B48D5
:100A900004F0E6FA01A9E8B203F034FA002822DBF8
:100AA000019810F0D3FB204604F096FD00281ADBD5
:100AB00002A9E06804F030FD114B1C60114B0024CA
:100AC0001C605C609C60104E31460A4804F0BCFC1F
:100AD0000E4D28600E4B1C605C609C6031460748E0
:100AE00004F0B2FC686006B070BD00BF00000020DA
:100AF000D8470100AC110020E8470100AC100020ED
:100B00008C0F0020800F0020600E00209C0F002022
:100B1000740F0020F8B503282DD8DFE800F0021686
:100B20000C11154F01261549154D1322284604F0C6
:100B300063FB002415E0134F2B261349134DF4E7F4
:100B4000134F02261349144DEFE7144F2B26144977
:100B5000144DEAE7042207EB8401284604F020FC48
:100B60000134A642F6DC00221146284604F042FC7D
:100B7000284604F0BFFBF8BDAC130020AC110020E8
:100B8000800F002004150020AC120020900F0020E0
:100B900050140020AC0F0020680F002058140020D3
:100BA000AC100020740F0020F8B5032831D8DFE81E
:100BB00000F002180E131C4F01261C491C4D132275
:100BC000284604F019FB002810DB002417E0194F19
:100BD0002B261949194DF2E7194F022619491A4DCA
:100BE000EDE71A4F2B261A491A4DE8E7002418E0C2
:100BF000042207EB8401284604F0A8FB0134A64236
:100C0000F6DC00221146284604F0F4FB284604F0E6
:100C100071FBF8BD042207EB8401284604F0C0FBF9
:100C20000134A642F6DCECE7AC130020AC11002046
:100C3000800F002004150020AC120020900F00202F
:100C400050140020AC0F0020680F00205814002022
:100C5000AC100020740F002010B50020FFF7A4FF97
:100C60000D4C4FF07E512068FFF750FA20600020B5
:100C7000FFF750FF0120FFF797FF084C4FF07F511F
:100C80006068FFF743FA60600120FFF743FF606888
:100C9000FFF744FB10BD00BFAC1300205814002028
:100CA00008B50B6801330B60014B1B68984708BD02
:100CB00024010020014B1860704700BF2401002070
:100CC00000B583B002460B460021019101A90348FB
:100CD00000F0C8F803B05DF804FB00BFA10C0000F1
:100CE00010B584B00446019002910021039101A93E
:100CF000054800F0B7F8039B029A934201DA0022FC
:100D0000E254039804B010BD39F800002DE9F04317
:100D100083B0044608461546238B13F0080F05D10F
:100D200003F0070600230093019369E0012909D02D
:100D300043F02003238385F31188BFF36F8F03B043
:100D4000BDE8F08343F010032383F4E720460EF060
:100D5000CEFD57E0D4F814904A46694620460EF07E
:100D6000DFFD00275AE023691F68062120460EF0A8
:100D700097FD4FF0000951E023695F680421204688
:100D80000EF08EFD4FF0000948E023699F680521B1
:100D900020460EF085FD4FF000093FE0002246E0BE
:100DA000002244E043F00803238385F31188BFF356
:100DB0006F8F002944D1009B2BB14B4642466946B8
:100DC00020460EF023FE17B125492046B8474FF0C4
:100DD0002003EFF3118583F31288BFF36F8F238B0A
:100DE00023F008032383238B13F0100F2ED023F05E
:100DF000100323830120268B06F0070600289AD0D3
:100E00000228A3D0002896D00128A3D00328AAD076
:100E10000428B1D00528B8D00027B946238B03F0A9
:100E20000708B045BAD0A268002AB9D001221146FD
:100E3000002AB7D1009A002AB4D1002FB2D1D2E74C
:100E40004A46414620460EF033FDB4E713F0200F2A
:100E500004D023F0200323830220CCE70020CAE73C
:100E60003BFA00002DE9F04F93B006460D4692463E
:100E7000039300249AF80000002800F0D684252867
:100E800008D00AF1010A2946B0470028C0F2CE84F2
:100E90000134EFE70023069307930B93089309931C
:100EA0000A930AF101089AF80130252B01D0012795
:100EB0002CE00AF102088DF82330A8E19DF82030DB
:100EC00043F004038DF82030FFB108F101081CE065
:100ED0009DF8203043F008038DF82030F4E79DF8AA
:100EE000203043F010038DF82030EDE79DF82030DE
:100EF00043F020038DF82030E6E79DF8203043F0E2
:100F000040038DF82030DFE700274FB398F800301A
:100F1000203B102BF8D801A252F823F0DF0E00007E
:100F2000090F0000090F0000ED0E0000090F00007E
:100F3000090F0000090F0000090F0000090F000051
:100F4000090F0000090F0000D10E0000090F00007A
:100F5000BD0E0000090F0000090F0000FB0E00008D
:100F60009DF8203003F04403442B6DD0CDF814805D
:100F70009DF8203043F080038DF8203098F8003041
:100F80002A2B68D005A80FF0B5F9059B984512D01B
:100F90009DF8203043F080038DF820300990C3F392
:100FA0004003002860DB002213439DF8202063F3F8
:100FB00041028DF82020059B05931B782E2B14BF32
:100FC000002301239DF8212063F341028DF82120A5
:100FD000002B4BD0059B5A1C05925B782A2B48D0DE
:100FE00005A80FF087F90A909DF82030C3F340035D
:100FF000002847DB002213439DF8202063F34102C1
:101000008DF82020DDF8148098F800304C3B2E2B12
:1010100000F2DC80DFE803F0CADADADADADADADA08
:10102000DADADADADADADADADADADADADADADADA20
:10103000DADADADA38DA6ADA51DADADADADADADAAB
:10104000C0DADADADADAB6009DF820306FF3861308
:101050008DF820308AE79DF8213043F001038DF8A8
:10106000213043460133A7E701229DE7DDF81480D4
:10107000CAE79DF8213043F004038DF8213002F1D6
:101080000108C1E70122B6E708F1010298F8013032
:10109000682B08D09DF82130022161F3C6038DF83A
:1010A000213090462BE09DF82130012262F3C603E7
:1010B0008DF8213008F1020821E008F1010298F8CA
:1010C00001306C2B08D09DF82130032161F3C60359
:1010D0008DF82130904612E09DF82130042262F311
:1010E000C6038DF8213008F1020808E09DF8213090
:1010F000052262F3C6038DF8213008F1010818F8C3
:10110000013B8DF82330A3F14102372A00F25081D0
:10111000DFE812F026014E014E014E0126012601A4
:1011200026014E014E014E014E014E014E014E016F
:101130004E014E014E014E014E014E014E014E0137
:101140004E0113014E014E014E014E014E014E0162
:101150004E014E0126014E011301630026012601B6
:1011600026014E0163004E014E014E014E012F013A
:1011700013013F014E014E013F014E0113014E018B
:101180004E0113019DF82130062262F3C6038DF84B
:10119000213008F10108B2E79DF82130072262F3FF
:1011A000C6038DF8213008F10108A8E79DF8213029
:1011B000082262F3C6038DF8213008F101089DF87A
:1011C000203043F002038DF8203098E79DF821305D
:1011D0006FF3C6038DF8213091E79DF8222001219D
:1011E00061F302028DF822209DF8212002F078029E
:1011F000402A00F0AA80632B00F0AE809DF82030DA
:10120000C3F34002174367F341038DF820309DF884
:10121000213013F0010F00F0DA80039B1A1D0392B6
:101220001F68002FC0F2CB809DF8213013F0040F0F
:1012300000F0DF80039B1A1D0392D3F800B0BBF1CE
:10124000000FC0F2CD80002309930A939DF822304D
:1012500003F007039DF82110C1F3C301012B00F037
:10126000D180022B00F01681042B00F06781032B44
:1012700000F07E819DF8209019F00303029340F066
:101280007D819DF82330253B532B00F23382DFE82C
:1012900013F0810131023102310231023102310297
:1012A00031023102310231023102310231023102A6
:1012B0003102310231023102310231023102310296
:1012C0003102310231023102310231023102310286
:1012D0003102310231023102310231023102310276
:1012E0003102310231023102310231023102310266
:1012F0003102310231023102C701310231023102C1
:101300003102310231023102310231023102A101D6
:10131000AB013102310231023102AB013102310243
:10132000310231020802C701EA01310231028F01A4
:101330003102C70131023102C7019DF8222002218A
:1013400061F302028DF822204EE79DF8201041F053
:1013500001018DF820104EE7171E18BF01274DE739
:101360009DF82230042262F302038DF82230012717
:1013700044E79DF82230032262F302038DF8223005
:101380009DF8213003F07803402B7FF437AF01271D
:1013900034E79DF82230032262F302038DF82230F5
:1013A0009DF8213013F0780F3FF428AF012725E78F
:1013B0009DF8203043F001038DF820301EE79DF8A2
:1013C000203043F004038DF820307F422CE79DF954
:1013D0002030002B02DB4FF0FF3725E7099F23E782
:1013E0009DF821306FF341038DF821304FF0FF3B22
:1013F00029E713F0020F02D0DDF828B023E74FF001
:10140000FF3B20E7CB1E042B04D8DFE803F00B1DC5
:1014100029353500039B1A1D03921A68D317CDE9AD
:10142000062306E0039B1A1D03921A68D317CDE921
:101430000623012928D002297FF41CAFBDF918200A
:10144000D317CDE9062315E7039B073323F00703E2
:1014500003F108020392D3E90023CDE90623E8E76C
:10146000039B073323F0070303F108020392D3E938
:101470000023CDE90623DCE7039B1A1D03921A68BB
:10148000D317CDE90623D4E79DF81830069300233F
:101490000793EFE6CB1E042B04D8DFE803F00B1F05
:1014A00035414100039B1A1D03921B6806930023DC
:1014B00007931EE09DF82330632B07D0039B1A1D72
:1014C00003921B6806930023079312E0039B1A1DE7
:1014D00003921B680693002307930AE0039B0733DC
:1014E00023F0070303F108020392D3E90023CDE9B7
:1014F000062301291CD002297FF4BCAEBDF81830A8
:10150000069300230793B5E6039B073323F00703F5
:1015100003F108020392D3E90023CDE90623E8E7AB
:10152000039B1A1D03921B68069300230793E0E7B1
:101530009DF818300693002307939BE608290BD0EB
:10154000039B073323F0070303F108020392D3E957
:101550000023CDE906238DE6039B073323F0070321
:1015600003F108020392D3E90023CDE9062381E6C3
:10157000039B1A1D03921B6806937BE64346524663
:10158000294630460EF033FF0028C0F24F81044454
:10159000C2466FE429462520B0470028C0F24681A4
:1015A0000134DDF808900DF1460B4FF0000AA7E07A
:1015B000DDF818A0BBF1000F08DB594650460FF0CC
:1015C00087FF0AEB000BDDF8089099E050460FF01A
:1015D00077FFF6E7069B8DF83030DDF808900DF1C7
:1015E000310B0DF1300A8BE019F0080F05D119F01D
:1015F000100904D04FF0200901E04FF02B09DDE97C
:101600000623002A73F1000102DBCDE9062309E07D
:10161000524263EB4303CDE906234FF02D0901E06D
:10162000DDF808900DF1460300930CAB08AADDE944
:1016300006010EF072FE8246BBF1000FC0F29080F0
:101640000DF14603A3EB0A039DF820206FF38612E9
:101650008DF820209B4540F28680ABEB0303099375
:101660000DF1460B4CE0069830B9DDF80890DFF834
:10167000C4B1ABF1050A43E00DF1460300930CAB96
:1016800008AA00210EF049FE82469DF8223043F060
:1016900010038DF8223078238DF82330DDF8089080
:1016A000CAE7069A9DF82130C3F3C303072B06D877
:1016B000DFE803F0040C0E1012171C1E1460DDF896
:1016C00008900DF1460B4FF0000A19E01470F6E790
:1016D0001480F4E71460F2E72046E117C2E9000144
:1016E000EDE72046E117C2E90001E8E71460E6E70C
:1016F0001460E4E7DDF808900DF1460B4FF0000AA6
:10170000BAF1000F00F08E80ABEB0A02B9F1000FC6
:1017100000D001329DF8221011F0100F26D00232B5
:10172000099B134411F0400F01D00A9A1344002F73
:1017300032DDFF1A9DF8203013F0040F2CD113F086
:10174000400F18D0B9F1000F18D029464846B047CD
:1017500000286BDB0134DDF80890302302930FE0A2
:101760000DF1460BCCE70DF1460BC9E711F0080F60
:10177000D6D00132D4E72023029301E03023029334
:101780003B465F1E002B07DD29460298B047002824
:101790004CDB01343B46F4E7B9F1000F05D0294694
:1017A0004846B047002841DB01349DF82230C3F39E
:1017B0000012C3F3C003134305D029463020B047BD
:1017C000002833DB01349DF8223013F0100F06D0CF
:1017D00029469DF82300B047002827DB0134099BE8
:1017E00003F1FF39002B07DD29463020B0470028E0
:1017F0001CDB01344B46F3E75B4652462946304634
:101800000EF0F5FD002811DB0444002F07DD29460A
:101810002020B047002809DB0134013FF5E7C2462C
:10182000FFF728BBC246FFF725BB204613B0BDE833
:10183000F08F00BF05480100054B984204D3054BCB
:10184000984203D300207047002070470120704762
:10185000B8430100805F010008B5064B186018B15D
:10186000054B1B68092B00DC08BD04480CF076FD15
:10187000FAE700BFE0150020B0150020DC030020CF
:1018800008B502480CF06AFD08BD00BFDC0300206B
:1018900008B503480EF0D8FE003818BF012008BD77
:1018A000BC15002030B589B000220F490F4812F056
:1018B00032FD0F4D00220023CDE9062300240494BD
:1018C0000E2303930294019400940A4B4FF4407248
:1018D0000949284612F0B7F9084928460CF050FB90
:1018E000204609B030BD00BF81180000E004002090
:1018F00018050020911F0000A030002008480100BA
:1019000008B500230B4A13700B4A13600B4B0C4AAB
:101910001A604FF4004000F0BBFD00F09FFB094847
:101920000EF084FE042328220749084812F028F903
:1019300008BD00BFD62E0020B415002028010020CD
:1019400061060100BC15002020570020C4150020AE
:10195000184BBFF35B8F53E8002F511C43E8001076
:101960000028F8D1BFF35B8F1ABB70B5002409E0E3
:10197000114B03EB06135B6804221968284600F03C
:101980004BFB01340D4B0C4A9B1AB4EB231F0FDAAF
:101990002646094D05EB04152B7B002BF1D02301C6
:1019A000054AD3589B69002BE2D028469847DFE7C9
:1019B00070BD7047B81500200047010020470100A6
:1019C00010B54FF02003EFF3118483F31288BFF3B7
:1019D0006F8F04480EF03AFE84F31188BFF36F8FC7
:1019E00010BD00BFBC15002008B5054B1B781BB10E
:1019F000034B01221A7008BD02480CF0AFFCF7E758
:101A0000D52E0020DC0300200C4BBFF35B8F53E886
:101A1000002F013243E800210029F8D1BFF35B8F8A
:101A2000074BBFF35B8F53E8002F013A43E80021D7
:101A30000029F8D1BFF35B8F704700BFB4150020B9
:101A4000B0150020064B00200246BFF35B8F53E821
:101A5000000F43E800210029F9D1BFF35B8F7047E5
:101A6000B415002038B5FFF7EDFF0546002400E06F
:101A700001340B4B0B4A9B1AB4EB231F0FDA0948B6
:101A800000EB041043685B79002BF1D02301054A79
:101A9000D3581B69002BEBD029469847E8E738BD9F
:101AA0002047010000470100034B18680028D4BFFD
:101AB00000200120704700BFB415002010B582B08F
:101AC0000446FFF7B9FE10BB0022002301A911480C
:101AD0000CF000FA08B1104C19E0019B0122BFF391
:101AE0005B8F53E8001F43E800200028F9D1BFF3C3
:101AF0005B8F1F222146019804300FF0BBFC019C34
:101B00007E2384F82330002384F8243004342046D4
:101B100002B010BDC41500201048010038B1074ABA
:101B2000904206D3A032904205D300207047002097
:101B30007047002070470120704700BF20570020E9
:101B4000037A13F0010F00D070472DE9F04383B002
:101B500006460EF066FE074630460EF04DFE014684
:101B600038460EF081FD054604E0012303FA04F433
:101B700025EA04056DB3B5FA85F4C4F11F042146C6
:101B800030460EF03CFE8146FFF756FE0028ECD1B1
:101B90004846FFF7C3FF0028E7D10F4B9945E4D033
:101BA0007189C1F3891100F027FA02460B4B0C49E9
:101BB0005B1ADB08012161F302086FF3C50863F3C8
:101BC0008F18ADF800803B462146064800F0B2F879
:101BD000CBE703B0BDE8F08310480100A846010040
:101BE000884601002C480100F8B5064619BB144B85
:101BF0001B780BB1002403E0FFF7A2FFFAE70134E2
:101C0000104B114A9B1AB4EB231F14DA0E4D05EB4F
:101C100004156B685B79002BF1D0314628460EF035
:101C20001DFD0028EBD02701074BDB595B683146CF
:101C300028469847E3E730460EF0F5FDF8BD00BFB3
:101C4000D62E0020204701000047010010B50446B1
:101C5000104B1B7803B9C8B1FFF7B2FE024678B14A
:101C60000D4BBFF35B8F53E8001F013943E80010B1
:101C70000028F8D1BFF35B8F21461046FFF7B4FF71
:101C800014B9FFF711FF10B9FFF702FE10BDFFF7FF
:101C9000E9FEF9E7D52E0020B015002010B582B07E
:101CA0001F4BBFF35B8F53E8002F013243E8002145
:101CB0000029F8D1BFF35B8F1A4B1B7863B91A4B1D
:101CC0001B681BB1164A1268012A15D0144A126803
:101CD0000A2A1CD002B010BD4FF02003EFF311848C
:101CE00083F31288BFF36F8F0020FFF7AFFF84F3F9
:101CF0001188BFF36F8FEDE700220023CDE90023A9
:101D00004FF40042002309480DF0ACFAE2E7002B43
:101D1000E0D0064812F00BFB05480CF01FFBD9E79A
:101D2000B0150020D62E0020E0150020E004002091
:101D3000DC0300202DE9F04180460F4616461D4683
:101D400000F0B0F9044640B1012343600022028153
:101D50004FF0000362F3000303724CB1C4F810802B
:101D6000637A032262F3071363726761A661E56118
:101D7000C4B1BDF8183063810B4B1B689847E06015
:101D80004FF02003EFF3118583F31288BFF36F8FB9
:101D9000214606480EF04EFC85F31188BFF36F8F85
:101DA000FFF77CFFBDE8F08128010020BC15002072
:101DB000F8B506460D46174600F074F9044640B1E2
:101DC00001234360002101814FF0000361F3000310
:101DD000037234B12661637A012262F307136372DE
:101DE0006561B4B167810B4B1B689847E0604FF0A9
:101DF0002003EFF3118583F31288BFF36F8F214621
:101E000005480EF017FC85F31188BFF36F8FFFF7BD
:101E100045FFF8BD28010020BC1500202DE9F04148
:101E200007460E461546984600F03CF9044640B178
:101E300001234360002202814FF0000362F300039C
:101E400003723CB12761637A022262F30713637263
:101E50006661A561BCB1A4F80A800C4B1B68984769
:101E6000E0604FF02003EFF3118583F31288BFF396
:101E70006F8F214606480EF0DDFB85F31188BFF316
:101E80006F8FFFF70BFFBDE8F08100BF2801002036
:101E9000BC15002038B51C460EF009FDB8B105464A
:101EA00044810B4B1B689847E8604FF02003EFF329
:101EB000118483F31288BFF36F8F294605480EF013
:101EC000B9FB84F31188BFF36F8FFFF7E7FE38BDCE
:101ED00028010020BC15002070B505460E4600F014
:101EE000E1F8044640B101234360002202814FF033
:101EF000000362F30003037204B12561B4B166818B
:101F00000B4B1B689847E0604FF02003EFF31185FF
:101F100083F31288BFF36F8F214606480EF08AFBC9
:101F200085F31188BFF36F8FFFF7B8FE70BD00BF58
:101F300028010020BC150020124B1B7803B170470C
:101F400010B5FFF705FD002400E001340E4B0F4AE9
:101F50009B1AB4EB231F0CDA0C4800EB0410436807
:101F60005B79002BF1D02301084AD3585B6998476D
:101F7000EBE70020FFF76AFE0028FAD1014B0122AF
:101F80001A7010BDD62E0020204701000047010026
:101F900008B5FFF7DDFC0CF04BFFFFF75DFC06E03A
:101FA0004FF0FF324FF0FF3304480CF0FBF90020F4
:101FB000FFF74CFE0028FAD1F2E700BFDC03002057
:101FC00000B583B004380190BFF35B8F50E8003F49
:101FD0005A1E40E800210029F8D1BFF35B8F012B86
:101FE00002D003B05DF804FB01A9024811F0D6FD50
:101FF000F7E700BFC4150020054B064A9B1AB1EB5A
:10200000D30F02D252F8310070470020704700BF52
:10201000004701008846010008B5074BC31A1B1191
:1020200001334268137143681960436801225A7191
:10203000FFF7DAFC08BD00BF0047010010B582B011
:102040000190019B33B11C6801A9034811F0A6FD62
:102050000194F6E702B010BDE415002008B5202376
:102060001A460249024811F08BFD08BDC0570020F6
:10207000E415002010B582B0002301930120FFF782
:10208000E5FD0446FFF7C0FC0022002301A9044837
:102090000BF020FF08B1002CF0D1019802B010BD68
:1020A000E415002000B583B0002301930EF0FDFA83
:1020B00050B10022002301A907480BF00BFF30B9F3
:1020C000019803B05DF804FB00220023F3E7FFF75B
:1020D000D1FF0190F4E700BFE4150020F0B583B014
:1020E000019004460EF088FB237A13F0010F01D112
:1020F000064650BB019B1A7A12F0020F28D101A9A3
:10210000154811F04BFD03B0F0BD01980EF089FBAE
:1021100031460EF0A9FA074688B9EBE72846FFF7E3
:102120004FFF0134B442E5D2214601980EF067FB1F
:102130000546FFF7F3FC0028F3D0002FE5D027FA7F
:1021400004F313F0010FECD0E8E700273C46E9E781
:102150005869FFF773FFD2E7E41500200EB400B50D
:1021600082B0014603AB53F8042B01930348FEF7FA
:1021700079FE02B05DF804EB03B070474F0C01002C
:10218000F0B585B011F0440F05D01A4B1C6834B976
:10219000002005B0F0BD1849FFF7E0FFF9E7174B45
:1021A0001968B2FBF1F1B1FBF4F5154AA2FB053257
:1021B000D20A4FF4616606FB1256124BA3FB06735C
:1021C0005B0904FB15114FF47A7505FB01F1B1FBB6
:1021D000F4F707FB141105FB01F1B1FBF4F40294D1
:1021E0000197C3EB0311A6EB810100910649FFF7AC
:1021F000B5FFCEE70016002070480100041600204D
:10220000C5B3A291898888887C48010061B108B56E
:102210002AB1064A52F8232012B9054A00E0044ABE
:102220000449FFF79BFF08BD704700BFEC48010061
:10223000984801000456010011F0100F0BD108B5A9
:1022400011F0200F03D00449FFF788FF08BD0349B0
:10225000FFF784FFFAE77047685301005C5F0100F5
:102260002DE9F04105460F46164698460699FFF7B8
:10227000E3FF0024444505DA23492846FFF76EFFB3
:102280000134F7E7002409E01F492846FFF766FFFD
:102290000BE01E492846FFF761FF01340F2C0CDCD0
:1022A000002C02DD14F0070FEED0B442F1D23A5DFB
:1022B00017492846FFF752FFEFE716492846FFF770
:1022C0004DFF002409E010492846FFF747FF0BE0C7
:1022D00011492846FFF742FF01340F2C12DC002C75
:1022E00002DD14F0070FEED0B44206D23A5DA2F13F
:1022F00020035E2BECD92E22EAE703492846FFF79C
:102300002DFFE9E7BDE8F081C4480100A8480100BD
:10231000A0480100AC480100B04801002DE9F0419F
:10232000804616461D46BDF9187059B90024002F85
:102330001CDB86B10123079A934013F0100F18D1CC
:102340000D4E09E00D4B079A53F822200C49FFF778
:1023500005FF0446EBE7084E39462846FFF74CFEDA
:10236000024631464046FFF7F9FE04442046BDE8E8
:10237000F081044EF0E700BFB44801002849010095
:10238000C0480100BC4801002DE9F04389B0074670
:102390000E46914698460EF044FA02460E493046E3
:1023A000FFF7DCFE002410250395234603AA0DEB5E
:1023B000050138460EF08FFA039A52B1CDF800802D
:1023C0004B460DEB05013046FFF74AFF039D2C44B9
:1023D000E9E709B0BDE8F08304560100F0B583B029
:1023E00006460C4600273D460DE0A268134413F84C
:1023F000017C0A2F14BF0027012720460EF01AFC8B
:10240000019B1D4473B1E36801932B4601AAA168A7
:1024100030460EF060FA6368019A1A60019B002B47
:10242000EBD0E2E70FB903B0F0BD02492046FFF759
:1024300095FEF8E7C848010070B582B0044605680B
:1024400042F20F738B4228BF0B460E4A05216846A5
:102450000DF018FA064663685B680B220A492846A5
:102460000EF041FA63685B683246694628460EF012
:102470003AFA63685B681B22044928460EF033FA77
:1024800002B070BD545801001C4901000049010010
:10249000074B01221A60074B984205D94008044AAD
:1024A00013685B001360F6E7034B1860704700BFCA
:1024B0000416002040420F000016002070B50646AA
:1024C0000D460024AC4207D2044B1868315D836886
:1024D0005B6898470134F5E7284670BD1C1600205C
:1024E000014B024A1A6070471C16002090440100FC
:1024F00008B502480EF09EFB08BD00BF6C49010004
:1025000008B50248FFF798FF08BD00BF6C490100FD
:1025100010B50C4608460EF062F90F22214603481A
:102520000EF0B1FB20460EF07EF910BD6C490100A3
:10253000014B01221A707047D82E002008B518B937
:10254000084B00221A7008BD074B1B7823B141F2DB
:10255000883011F0AAFEF6E7A42000210CF03CFC24
:10256000F1E700BFD82E0020D92E002038B5044650
:102570000A4B01221A700A4B1B7803B938BD0020A0
:102580000BF056FA0028F9D0044B1B78002BF5D03D
:10259000651E2046FFF7D2FF2C46F0E7D82E00201C
:1025A000D92E00202DE9F04106460D4604270DE006
:1025B0002A46314600200BF0D7F904461CE0384685
:1025C000FFF7D4FF1CBB164B1B7803B3154B1B78CE
:1025D000002BEDD1DFF850804FF0FF324FF0FF338A
:1025E00040460BF0B1FD2A46314600200BF0BCF905
:1025F000044640460BF032FE002CE0D1084B1B781D
:10260000002BDFD0013F3846FFF798FFDAE714B917
:10261000034B1B7803B92C462046BDE8F08100BF70
:10262000D82E0020D92E0020A003002008B5034B8F
:1026300001221A7002480EF0FDFA08BDD92E0020C2
:10264000A849010008B50248FFF7F6FE08BD00BF23
:10265000A849010010B50C4608460EF0C0F80F223C
:10266000214603480EF00FFB20460EF0DCF810BDAB
:10267000A8490100072801D900207047024B1844DF
:1026800080F8BB100120704744160020072801D9AC
:1026900000207047024B184490F8BB00704700BF01
:1026A0004416002010B50378C3F341130A33064CD7
:1026B00054F8233023B19847002803DB012010BDD4
:1026C0000020FCE70020FAE7441600200A30024B05
:1026D00043F82010704700BF44160020014B586299
:1026E000704700BF44160020F0B447883D0A2B1FF6
:1026F000DBB2012B1ED9FFB2072D1ED8104B5B6A2F
:10270000002600E00344187838B15C78AC42F9D177
:10271000B74201D00136F5E7012060B11360022D08
:1027200002D01B780B6006E09A78DB7842EA03233C
:102730000B6000E00020F0BC70470020FBE700BF0A
:1027400044160020F8B584460E460C4B5B6A1768A9
:1027500000E013441A7872B15C78042CF9D19878AF
:1027600085B2BCF80440A542F3D1FFF78FFF387063
:102770000120306000E00020F8BD00BF44160020BA
:10278000034B93F8BA00003818BF0120704700BF10
:1027900044160020074B5B6A00E013441A783AB1F4
:1027A00059780229F9D119798142F6D90120704767
:1027B000002070474416002070B4164B164A9B1A2E
:1027C0009B10164E06FB03F630F080031DD000244C
:1027D000B44218D204EBC4020F4B03EB8202156A19
:1027E000002304EBC4020C4901EB8202127F9A42DF
:1027F00007D905EBC3021279824208D00133DBB25C
:10280000EFE70134E4E7002002E0012000E00120CE
:1028100070BC7047E0040020BC040020398EE3380F
:10282000014B9861704700BF44160020014BD861EE
:10283000704700BF441600202DE9F0410646144BB6
:10284000144AA3EB02084FEAA803134A02FB03F859
:102850000025454518D205EBC5030E4A02EB83035C
:102860001F6A002405EBC5030A4A02EB83031B7FA2
:10287000A34207D907EBC400B047002805DB0134A9
:10288000E4B2EFE70135E4E70020BDE8F08100BFE6
:10289000E0040020BC040020398EE338F8B5134F63
:1028A000134BFF1ABB10134F07FB03F7002300E085
:1028B0000133BB4216D203EBC3040D4D05EB840478
:1028C00066680D4C646AA642F2D303EBC30405EBC1
:1028D00084042469002CEBD0B6780579AE42E7D1A8
:1028E000A04701E06FF08500F8BD00BFE0040020C4
:1028F000BC040020398EE338441600202DE9F8434B
:10290000074688469146194E194BF61AB310194ED0
:1029100006FB03F6002405E04A4641463846A84730
:1029200021E00134A6421CD904EBC403104D05EB91
:1029300083035B68104A526A9342F2D304EBC402E9
:1029400005EB82029569002DEBD099783A79914296
:10295000E2D05B79012BE4D14A4641463846A8478C
:10296000DFE76FF08500BDE8F88300BFE0040020DA
:10297000BC040020398EE338441600202DE9F843CA
:10298000814688461746104E104BF61AB310104E6B
:1029900006FB03F6002400E00134A6420FD904EB45
:1029A000C4030A4D05EB83035B69002BF4D03A4660
:1029B00041464846984703460028EDD101E06FF0B4
:1029C00085031846BDE8F883E0040020BC0400201D
:1029D000398EE33870B582B00D4604798DF8074022
:1029E0002046FFF7E9FE064630B134F0800306D0FA
:1029F000FFF7C6FE18B90646304602B070BD5DB19D
:102A0000204604F035FA0A4BDB69002BF4D00DF1B7
:102A1000070108209847EFE7204604F06FFA044BBF
:102A2000DB69002BE8D00DF1070109209847E3E7A7
:102A30004416002000B583B083788DF80030838879
:102A4000ADF80230C37803F003038DF80430684614
:102A500004F0D0F910F1780F00D070B99DF80000A3
:102A600004F096FA10F1780F00D0D0B90120174B7E
:102A700083F8B90003B05DF804FB154B154A9B1AA7
:102A8000DB084FF00002012161F302026FF3C5027F
:102A900063F38F129DF800100F48FFF789F90020AB
:102AA000E8E70B4B0B4A9B1ADB084FF000020121B1
:102AB00061F302026FF3C50263F38F129DF80010F9
:102AC0000648FFF775F90020D4E700BF4416002040
:102AD000E846010088460100B8490100DC490100D0
:102AE00008B50822002102480EF05CFD08BD00BFB9
:102AF000FF1600202DE9F0410546234B5C6A438810
:102B00001BB10027FF26B04610E0FFF7E9FF6A88F7
:102B10001D4B83F8BA20DB6913B11C490320984789
:102B2000012720E094F8038023781C442378CBB15C
:102B30006378042BF6D0052B08D0022BF4D16679EC
:102B4000B2B26B889A42EFD10127EDE7B3B26A883F
:102B50009342E9D1B8F1000FE6D12046FFF76AFFB2
:102B60000746E1E717B93846BDE8F081FFF7B8FF3F
:102B70006A88054B83F8BA20DB69002BF3D0034940
:102B800003209847EFE700BF44160020FE16002000
:102B900010B5146890F90030002B06DB4378052B44
:102BA00018D0092B1DD0002010BD4378062B07D06C
:102BB000082B08D00BB10020F6E70EF0A3F8F3E7DE
:102BC000FFF792FDF0E7084B93F8BA30237001202D
:102BD0000860E9E7807804F0B7F8B0FA80F04009BF
:102BE000E2E7FFF787FFDFE74416002010B584789F
:102BF000204600F0CBFD204604F0F8F910F1780FE4
:102C000015D008B9012010BD0A4B0B4A9B1ADB08EE
:102C10004FF00002012161F302026FF3C50263F37A
:102C20008F1221460548FFF7C3F80020EBE701208B
:102C3000E9E700BFE846010088460100004A0100BC
:102C40002DE9F84306461B4B5C6A0027FF25A84682
:102C5000B94608E094F80380A578ABB2B088834207
:102C600013D023781C442378DBB16378042BF1D094
:102C7000052BF6D1ABB2B2889342F2D1B27841467D
:102C800020460EF049F80746EBE71FFA88F37188F3
:102C90008B42E6D1C9B2C0B2FFF7ECFC0746A146B1
:102CA000DFE7044BDB6913B14946072098473846F4
:102CB000BDE8F8834416002070B504460D4616465C
:102CC000184B9B690BB1984748B1237803F01F0359
:102CD000012B0DD0022B13D013B16FF0150070BD76
:102CE000324629462046FFF753FF88B10020F6E719
:102CF0003246294620460EF018F860B10020EEE773
:102D00003246294620460EF05DF838B10020E6E74D
:102D10006FF01500E3E76FF01500E0E76FF01500C6
:102D2000DDE700BF44160020F8B5154F154BFF1A1C
:102D3000BB10154F07FB03F70025AF421BD905EB6E
:102D4000C503104A02EB83031E6A002405EBC5038A
:102D50000C4A02EB83031B7F9C420AD206EBC4039E
:102D600056F83410187904F05DFB30B90134E4B240
:102D7000ECE70135E1E7002001E04FF0FF30F8BD5E
:102D8000E0040020BC040020398EE338F8B5064684
:102D90000F461C4D1C4BED1AAB101C4D05FB03F5EB
:102DA000042805D0331FDBB2012B04D9002414E022
:102DB000FFF796FEF6E7164B93F8B930002BF5D0E7
:102DC00000F004FD042EF1D11248FFF735FD104B41
:102DD000002283F8B920E9E70134AC420BD204EBBE
:102DE000C400094B03EB8000C368002BF4D03A46C3
:102DF00031469847F0E7064B1B6A13B13946304617
:102E00009847F8BDE0040020BC040020398EE33868
:102E100044160020850D010010B582B0134B1B7DB8
:102E2000CBB9124CE268019201ABA16880200DF091
:102E3000ECFF0199A2680A44A260E3685B1AE360B0
:102E40008BB9E28823699A420DDD13F03F0F0AD156
:102E50000122227507E00021044B19750B460A4632
:102E6000802004F0EDF802B010BD00BF4416002031
:102E700010B584B000230393044600B931B3002C8D
:102E800040F09480504BDA68002A77DD03AB4E495E
:102E9000896800200EF00DFF00287CDB03984A4A69
:102EA000916801449160D3681B1AD360002B7FD1D5
:102EB000104602F1380342F8083F00F11001FFF715
:102EC000F1FB00286ED0FFF7A7FF71E0082201A9EF
:102ED0000EF0EFFE00282EDB9DF804003A4B187030
:102EE0009DF805205A70BDF806205A80BDF80820CC
:102EF0009A80BDF80A10D98003F138029A60002246
:102F00001A751A61DA6010F0800F02D1802916D884
:102F100061BB2D4800F1080200F11001FFF7C2FB70
:102F200040B3294BDA8819698A42A8BF0A46DA6099
:102F3000FFF772FF3CE0802003F09AFF38E0234B5C
:102F4000234A9B1ADB084FF00001012262F30201C1
:102F50006FF3C50163F38F111E48FEF7BDFF80209C
:102F600003F086FF002003F083FF21E0164B196178
:102F7000D9601DE0802003F07BFF19E003AB002245
:102F80001149896810460EF094FE002810DA80205E
:102F900003F06EFF0CE0802003F06AFF002003F0D6
:102FA00067FF05E0802003F063FF01E0802C01D083
:102FB00004B010BD044BDB681BB9034B1B7D002B19
:102FC000F6D0FFF729FFF3E744160020E84601009A
:102FD00088460100244A010008B5FFF77FFB084935
:102FE0000020FFF773FB07490120FFF76FFB06493D
:102FF0000220FFF76BFB0548FFF712FC002008BD1D
:10300000B92C00009D2800007D290000FD2800004B
:1030100008B5104B93F8B8300BB1002008BD00F094
:10302000D7F918B1FFF7D8FF0020F7E70A4B0B4A92
:103030009B1ADB084FF00001012262F302016FF3DB
:10304000C50163F38F110648FEF746FF4FF0FF30CE
:10305000E4E700BF44160020E8460100884601006E
:10306000404A010030B583B005464FF0FF324FF0C3
:10307000FF332D480BF068F82C4B93F8B830002B39
:103080004AD101200DF046FE041E46DB274B1D628F
:10309000274C2046FFF7CAFB204604F0D7F903F07F
:1030A0000BFE041E39DB00F0BDFB041E35DB4023A4
:1030B000ADF8023000238DF804308DF800306846FA
:1030C00003F098FE041E28DB80238DF8003068464C
:1030D00003F090FE041E20DB1649002004F0A2F944
:1030E000041E1ADB1349802004F09CF9041E14DB33
:1030F000FFF71AFE041E10DB002003F049FF041E38
:103100000BDB802003F044FF041E06DB074B01228B
:1031100083F8B820002400E0002403480BF09EF858
:10312000204603B030BD00BFC80300204416002075
:103130008D2D0000712E000010B40E4C0E4BE41AC1
:10314000A3100E4C04FB03F40023A3420ED203EBA6
:10315000C302094901EB82025268824201D0013365
:10316000F3E703EBC30301EB830000E0002010BC96
:10317000704700BFE0040020BC040020398EE33813
:1031800030B58BB001AC1B4D0FCD0FC42B68237035
:103190001022002106A80EF005FA1222002116487E
:1031A0000EF000FA102106A80EF0C3FE00281DDD67
:1031B000083820EAE074002216E0A3180AA90B449C
:1031C00013F8103C51000AA800EB131010F8245C0F
:1031D000094800F8125003F00F0301310AAD2B44E7
:1031E00013F8243C43540132072AE6DD02480BB0B1
:1031F00030BD00BF744A01000817002070B50446B6
:10320000FFF7BEFF20B105460EF05AF9064600B999
:1032100070BD0E480EF054F9864210D00C4B0D4A8A
:103220009B1ADB084FF00001012262F302016FF3E9
:10323000C50163F38F110848FEF74EFEE8E73246FA
:103240002946A01C0EF08AF9E2E700BF744A01008B
:10325000E046010088460100884A01002DE9F0415E
:1032600082B004464FF00113019300252F46A84673
:103270002E4662E0E378002B5DD1A3784BB920465F
:10328000FFF75AFF804638B1836813B139462046AC
:1032900098470137FFB24EE0464B474A9B1ADB087E
:1032A0004FF00002012161F302026FF3C50263F3E4
:1032B0008F1221464148FEF77BFD4FF0FF3073E04F
:1032C000B8F1000F18D001AA414620460DF0D0FDFC
:1032D00088B3384B384A9B1ADB084FF000010122B3
:1032E00062F302016FF3C50163F38F113448FEF7F7
:1032F000F3FD4FF0FF3057E02E4B2F4A9B1ADB08AF
:103300004FF00001012262F302016FF3C50163F384
:103310008F112C48FEF7E0FD4FF0FF3044E0032D05
:1033200020D01DBB36B3A31BB370C3F30723F370C8
:1033300037710135EDB223781C4423787BB3637871
:10334000052BF8D801A252F823F000BF1F3300006C
:10335000373300009B3300001F330000753200003C
:10336000C13200002046FFF749FFDAE720460DF0A2
:103370006BFDDEE70F4B104A9B1ADB084FF0000194
:10338000012262F302016FF3C50163F38F110E484E
:10339000FEF7A2FD4FF0FF3006E02646CBE7A01C6B
:1033A0000A4B984203D1002002B0BDE8F081FFF73C
:1033B00055FFF9E7E046010088460100D44A0100C4
:1033C000384B0100F44A0100584B0100BB040020B7
:1033D00008B50C48FFF742FF08B90A4808BD0A4B78
:1033E0000A4A9B1ADB084FF00001012262F3020136
:1033F0006FF3C50163F38F110548FEF76DFD0020E3
:10340000ECE700BFFC030020E04601008846010015
:10341000784B0100002300E00133032B0CDC9A0100
:1034200006498A5C8242F7D101EB83125268002A76
:10343000F2D001EB83107047002070471C1700206A
:103440002DE9F04182B0044610F82C5C50F8283C7D
:1034500013F1100F0CD1036913F0020F62D050F872
:10346000202C82BB13F0040F26D0002344F8283C04
:1034700054F8283C13F1100F1BD054F8186CC6B147
:1034800054F81C7C54F8148C10F0C6FB002840F053
:103490008F80002344F8183CA4F110000AF05EFF6E
:1034A00054F8283C13F18C0F03D042463946284685
:1034B000B04702B0BDE8F08100231A4619462846FD
:1034C0000DF0A3FCD1E701AB50F8241C28460DF009
:1034D0009CFC014680B954F8243C019A134444F8FA
:1034E000243C54F8203C9B1A44F8203C54F81C3CE3
:1034F000134444F81C3CBBE7304A314BD21AD20883
:103500004FF00003012060F302036FF3C50362F381
:103510008F132A462B48FEF781FC6FF0150344F801
:10352000283CA5E701AB50F8202C50F8241C284675
:1035300003F036FE0146A0B954F8243C019E334402
:1035400044F8243C54F8203C9B1B44F8203C54F89D
:103550001C3C334444F81C3CCEB9002344F8283CBE
:1035600086E7164A164BD21AD2084FF00003012004
:1035700060F302036FF3C50362F38F132A46114809
:10358000FEF74CFC6FF0150344F8283C70E7284622
:1035900003F062FFB6FBF0F300FB13600028DCD100
:1035A00054F8203C002BD8D0284603F073FE5FE788
:1035B0002146054810F036FC7BE700BFF8460100C5
:1035C00088460100A84B0100C805002070B582B0F4
:1035D00006460C46FFF71EFF631EDBB2012B0AD81E
:1035E000054650B110F018FB08B1012C22D105F1AD
:1035F0002C00FFF725FF02B070BD012CFBD101AB01
:1036000001220DF10301304603F0CAFD019B002B9E
:10361000F5D10B4B0B4A9B1ADB084FF0000101223E
:1036200062F302016FF3C50163F38F110648FEF7E1
:1036300053FCE0E705F12C01044810F0F3FBDAE756
:10364000F846010088460100C84B0100C80500206B
:103650002DE9F0470546884617461E460DF0B2FC98
:10366000002840F083804FF02003EFF3118983F3AB
:103670001288BFF36F8F0024032C10DCA00100F12F
:1036800018033C4818440430002200230AF08AFE44
:1036900008B10134F0E7374800EB841400E000245F
:1036A00044B3D4F804A01AF1100F36D02570C4F832
:1036B0000880E76000232361089B6361E663099B40
:1036C000A3616FF00F036360284603F0C5FE002876
:1036D00039D116F0020F44D004F12C01264810F025
:1036E000A1FB4FF0000A89F31188BFF36F8F50469A
:1036F000BDE8F087214B224A9B1ADB084FF00001FE
:10370000012262F302016FF3C50163F38F111D48BB
:10371000FEF7E2FB6FF00B0AE5E7184B184A9B1A1D
:10372000DB084FF00002012161F302026FF3C502D2
:1037300063F38F1229461448FEF73AFB04F11C008C
:103740000AF00CFECFE7284603F086FEB7FBF0F345
:1037500000FB13700028BCD0E36B43F00403E36369
:10376000B7E7284603F096FD8246BCE76FF00F0AE4
:10377000BDE700BF1C170020C8050020F846010067
:1037800088460100E44B0100004C010010B54FF0E9
:103790002003EFF3118483F31288BFF36F8FFFF7D9
:1037A00039FE20B10146436813F1100F04D084F3B1
:1037B0001188BFF36F8F10BD6FF08B0343602C3106
:1037C000014810F02FFBF2E7C805002038B50024AF
:1037D00011E0124BA10103EB84126FF08B005060DB
:1037E0002831194404310E4810F01CFB85F3118870
:1037F000BFF36F8F0134032C0FDC4FF02003EFF386
:10380000118583F31288BFF36F8F044B03EB84138E
:103810005B6813F1100FE9D1DBE738BD1C170020FE
:10382000C805002070B5002611E00B4CB50105F16C
:10383000280020440949043010F0EEFA05F1180080
:10384000204404300122114610F0D7FA0136032E2D
:10385000EBDD002070BD00BF1C17002041340000CC
:1038600070B504460E46154601791E480DF076FBEC
:1038700058B194F90020002A27DB6278202A18D05A
:10388000222A1DD06FF0850028E0174B174A9B1A9B
:10389000DB084FF00002022161F302026FF3C50260
:1038A00063F38F12A1881248FEF782FA6FF01200BC
:1038B00014E0072229680C380DF050FE00200DE0BE
:1038C000A27800F8052C002008E06278212A06D1B1
:1038D000A0F10C032B6007233360002070BD6FF054
:1038E0008500FBE71C180020D8460100884601002F
:1038F0003C4C010010B5044601460D480DF042FB5A
:1039000018B1012200F8032C10BD0A4B0A4A9B1A79
:10391000DB084FF00002022161F302026FF3C502DF
:1039200063F38F1221460548FEF742FAECE700BF29
:103930001C180020D846010088460100644C010094
:1039400008B50169012381F82B300B6813B191F898
:10395000293003B908BD0831014810F063FAF9E7CE
:10396000C805002008B50169012381F82A300B68D9
:1039700013B191F8283003B908BD0831014810F09F
:1039800051FAF9E7C805002010B50346002480F875
:103990007E4080F87F4080F8294080F828400A4A1D
:1039A00092E803005867A3F87810090C83F87A109E
:1039B00083F87C4083F87B404022214603F12C00B1
:1039C0000DF0F0FD10BD00BF9047010070B514462A
:1039D000066996F87E3013B196F87F3093B11A4B92
:1039E0001A4A9B1ADB084FF00002022161F302021F
:1039F0006FF3C50263F38F1221461548FEF7D8F91D
:103A0000002070BD002386F82830306F0CF080FD58
:103A10000546844206D806F118010E4810F002FA55
:103A20002846EEE7084B094A9B1ADB084FF00002D4
:103A3000022161F302026FF3C50263F38F12211AB0
:103A40000548FEF7B5F9E6E7D846010088460100CB
:103A50008C4C0100C8050020C04C010070B582B03C
:103A6000064614460D1E0FDD2A4604F12C01E06EB9
:103A70000CF04EFD854213D8012384F829302368C9
:103A800013B194F82B30EBB90194114B009301233F
:103A9000402204F12C013046FFF7DAFD02B070BD80
:103AA0000C4B0D4A9B1ADB084FF00002012161F319
:103AB00002026FF3C50263F38F12291A0748FEF75B
:103AC00077F9D9E704F10801054810F0ABF9DBE715
:103AD0005D3A0000D846010088460100C04C010054
:103AE000C805002038B50446D0F880305D6801393B
:103AF000052906D8DFE801F0030506374B5FFFF71D
:103B000043FF38BD454B464A9B1ADB084FF0000186
:103B1000032262F302016FF3C50163F38F11414881
:103B2000FEF7DAF994F87E309BB194F82830002B38
:103B3000E7D1012384F828302368002BE1D094F8E2
:103B40002A30002BDDD004F10801374810F06AF963
:103B5000D7E72B6A22460021187BFFF77FFF01235E
:103B600084F87E30E1E72D4B2D4A9B1ADB084FF09D
:103B70000001032262F302016FF3C50163F38F11A9
:103B80002A48FEF7A9F92046FFF7FEFEB9E7234BC6
:103B9000234A9B1ADB084FF00001032262F3020163
:103BA0006FF3C50163F38F112148FEF795F90123E7
:103BB00084F87F30A5E7194B194A9B1ADB084FF0B0
:103BC0000001032262F302016FF3C50163F38F1159
:103BD0001848FEF781F994F87F30002B91D00F4BF5
:103BE0000F4A9B1ADB084FF00001032262F3020127
:103BF0006FF3C50163F38F110F48FEF76DF90023D2
:103C000084F87F3094F87E30002B3FF47AAF2B6A33
:103C100022460021187BFFF721FF72E7D8460100FA
:103C200088460100E44C0100C8050020F84C010062
:103C30000C4D0100204D0100304D010070B50446CF
:103C40000D46164601460E480DF076F928B132466B
:103C500029468038FFF746FF70BD0A4B0A4A9B1A77
:103C6000DB084FF00002022161F302026FF3C5028C
:103C700063F38F1221460548FEF79AF8ECE700BF80
:103C80001C180020D846010088460100404D010064
:103C900030B585B005694368A1228DF80420202243
:103CA0008DF805200024ADF80640ADF8084002224A
:103CB000ADF80A20ADF80C1085F87D40186A23464F
:103CC0000A2201A900790DF0A0F895F87D304BB9D2
:103CD000012010F0EAFA0134044B9C42F5D96FF050
:103CE000040000E0002005B030BD00BFA086010048
:103CF00010B582B08DF80710046994F87E3013B1C6
:103D000094F87F308BB1284B284A9B1ADB084FF080
:103D10000001032262F302016FF3C50163F38F1107
:103D20002348FEF7D9F802B010BD002384F82830EC
:103D300001220DF10701206F0CF0EAFBE0B91A4BEC
:103D40001A4A9B1ADB084FF00001032262F30201BA
:103D50006FF3C50163F38F111648FEF7BDF801221A
:103D60000021206F0CF03EFC60B101220DF1070133
:103D7000206F0CF0CDFB28B104F118010E4810F0B3
:103D800051F8D0E7084B094A9B1ADB084FF00001B5
:103D9000012262F302016FF3C50163F38F1107483B
:103DA000FEF79AF8BFE700BFD84601008846010039
:103DB000644D0100844D0100C8050020A44D0100A0
:103DC00010B51446012382F82830136813B192F815
:103DD0002A3023B9206F0CF037FB30B110BD02F14F
:103DE0000801054810F01EF8F4E704F11801024834
:103DF00010F018F8F2E700BFC805002010B50469FC
:103E0000C4F8800004F184030022C4F884200B4A23
:103E1000526872B11360094A5360094904F10800FD
:103E20000FF0FAFF074904F118000FF0F5FF00202A
:103E300010BD024A53601360EFE700BF1C1800205A
:103E4000F50F0100493E0000F0B585B00446A0F131
:103E50001807836E5B681B6A1D7D28460DF0B2F85B
:103E600008B105B0F0BD4FF4806203A9A06D0CF05D
:103E70006FFB06460028F4D010F03F0F00D1461E1D
:103E80000197064B00930223324603992846FFF719
:103E9000DFFB3146A06D0CF087FBE2E7C13D00007F
:103EA00030B583B0084D002400944FF0FF334FF439
:103EB0008062064928460AF0BFFB054928460AF0F9
:103EC0005FF8204603B030BDC8050020C033002095
:103ED000284E010010B404460023084A12689A4292
:103EE00009DD1A010649096801EB03108A5CA24248
:103EF00002D00133F1E7002010BC7047984E01005A
:103F000004020020084B1B683BB110B50C46FFF7BC
:103F1000E1FF28B12060002010BD6FF00C00704759
:103F20006FF00100F8E700BF040200201B4B1B6884
:103F3000002B32D130B585B0184B01221A60184BD6
:103F400093E8070004AB03E90700164B63B10DF0DB
:103F500085FB4FF02003EFF3118583F31288BFF345
:103F60006F8F114B1C680AE0002383F31188BFF3A5
:103F70006F8FEEE723460CB1236843B11C4634B182
:103F8000A368002BF6D0064A10789847F2E785F32D
:103F90001188BFF36F8F05B030BD70470802002055
:103FA0002C1800205D1601002418002070B588B080
:103FB00006462A4C6D46014628460DF0CEF995E896
:103FC000070084E807002078002845D0244B002211
:103FD0001A60B6F1FF3F0CD10AF0EAFB4FF0200364
:103FE000EFF3118583F31288BFF36F8F1D4B1C68AD
:103FF00016E0A368590CD8031B4C1C4A0023001977
:104000004FF0000444EB0101FCF7AEF90121301A36
:1040100010F01CF9E0E723460CB1236843B11C46BD
:1040200034B16368002BF6D00C4A10789847F2E759
:1040300085F31188BFF36F8F084B93E8070008AB37
:1040400003E907000A4B0BB10DF0F5FAFFF76EFF1D
:104050000AF0ACFD014B187808B070BD2C18002098
:1040600008020020241800203F420F0040420F00A9
:104070003716010008B502480BF0F0F908BD00BF83
:10408000A44E0100D0B108B54268042A05D0D2B1CF
:1040900000680AF0E3F8002008BD03680022BFF3BF
:1040A0005B8F53E8001F012903D143E8002000285B
:1040B000F7D1BFF35B8F04D11046EDE76FF4E0401A
:1040C00070470248E8E70248E6E700BFE98FFFFFD4
:1040D000EA8FFFFF20B308B54268042A02D092B9E4
:1040E00011480FE003680122BFF35B8F53E8001F04
:1040F000002903D143E800200028F7D1BFF35B8FEC
:104100000CD1002008BD00684FF0FF324FF0FF33A4
:104110000AF01AF80028F5D00448F3E70348F1E75D
:104120006FF4E040704700BFEA8FFFFFE98FFFFFA9
:1041300010B5044688B16368042B0DD0082B0BD052
:1041400053B113F0020F0DD0214609480FF026FDA0
:10415000002323600023636010BD064B5B680648A4
:104160009847E8E71422002120680DF01BFAF1E7D8
:104170003818002068020020AC4E010010B504463B
:1041800078B16368042B0BD0082B09D00BB92368D6
:1041900063B120680FF0A1FD636843F00103636021
:1041A00010BD0F4B5B680F489847EAE74FF0FF32AE
:1041B0004FF0FF3321460C4809F08CFE08B9236804
:1041C0001BB9074B5B6809489847142200212068F7
:1041D0000DF0E8F9636843F002036360D9E700BFBC
:1041E00068020020AC4E010038180020D44E0100B7
:1041F00008B540231422044904480FF0C1FC0449C7
:1042000004480BF08DF908BD541800203818002020
:10421000144F0100044F0100014910220A60704749
:1042200010ED00E072B6404080F31188BFF36F8F4D
:10423000BFF34F8F30BF62B6BFF36F8F704700BFC1
:1042400072B6494081F3118820BF80F3118862B6AD
:10425000704700BF70B582B004461F4D1F4BED1A6A
:10426000ED0801264FF0000366F302036FF3C50368
:1042700065F38F13ADF80030836842680168184811
:10428000FDF758FD4FF0000366F302036FF3C5031B
:1042900065F38F13ADF8003063692269E168114856
:1042A000FDF748FD4FF0000266F302026FF3C5020E
:1042B00065F38F12E1690C48FDF77AFD4FF00002BB
:1042C00066F302026FF3C50265F38F12A169074816
:1042D000FDF76EFD02B070BDB846010088460100D2
:1042E000284F0100584F0100884F0100984F0100EE
:1042F00043B2002B08DB00F01F005B09012202FA29
:1043000000F0024A42F82300704700BF00E100E0DD
:1043100043B2002B0DDB00F01F005B09012202FA03
:1043200000F02033034A42F82300BFF34F8FBFF35E
:104330006F8F704700E100E04209054B53F82220DF
:1043400000F01F00012303FA00F01040704700BF87
:1043500000E100E0013143B2002B08DB4901C9B2A2
:1043600003F1604303F5614383F80013704700F0E5
:104370000F004901C9B2014B1954704714ED00E018
:1043800030BFFFF7FDBF00BF08B50B4B0B4A22F053
:104390007F029A60BFF34F8FBFF36F8FD3F88820EF
:1043A00022F47002C3F8882009F020FD0AF090FD85
:1043B00000F0B6FC09F026FD00ED00E00000000072
:1043C0000A4A9368C3F8A80009490968C3F8AC1001
:1043D00008494B6843F080534B60002383F31188F6
:1043E000BFF36F8F9368D3F8AC007047782E00202E
:1043F000C05D010000ED00E013498A684FF0300015
:104400001044EFF3098C80E8F01F202080F312881D
:10441000BFF36F8F0D4F4FF00066CA698A603E6030
:10442000D2F8A8000023C2F8A83080F3118804B5A0
:10443000104600F017FDBDE8044002F1300090E89E
:10444000F01F8CF309887047782E002004ED00E0FF
:104450001EF0040F0CBFEFF30880EFF309808169B1
:1044600011F8021C0229FFD001B50CF088FF01BD34
:1044700010B4A2F120040D4921F0010142F8081CFA
:1044800042F8203C019B42F81C3C029B42F8183C3D
:10449000039B42F8143C4FF0807342F8043C0465DF
:1044A0000023C0F8A83010BC704700BF07FC000014
:1044B000164B9A68DAB110F1160F1AD010B4D2F870
:1044C0009830A3F12004844205D8834208D98B4256
:1044D00008D8002100E0002131B9002010BC70474D
:1044E0000021F9E70121F7E7D2F89800F6E700206C
:1044F0007047D2F898308B4294BF0021012109B94E
:1045000000207047D2F89800704700BF782E002036
:1045100008B50D461446084B986000F0A3FC2046F1
:1045200085F30988002163B681F31188BFF36F8F8B
:10453000002200230BF067FB782E002001B572B635
:104540000B4A906900281EBF002191610FF09DFB6E
:1045500062B6EFF30580A0F110004FEAC0000549F4
:10456000014409C99847BDE80140034908470000D4
:10457000782E0020084501007D450000044B996815
:10458000D869884203D003494FF080520A607047CF
:10459000782E002004ED00E008B54E4B4E4A9B1AE1
:1045A000DB084FF00001012262F302016FF3C50145
:1045B00063F38F114948FDF78FFC494B9B6A13F059
:1045C000007F21D1464B9B6A13F0807F2DD1444B55
:1045D0009B6A13F4002F39D1414B9B6A13F4802F4F
:1045E00045D13F4B9B6A13F4003F51D13C4B9B6A32
:1045F00013F4803F5DD13A4A936A6FEA03436FEA4E
:1046000013439362002008BD324B334A9B1ADB08E8
:104610004FF00001012262F302016FF3C50163F361
:104620008F113048FDF758FCCCE72A4B2A4A9B1AD9
:10463000DB084FF00001012262F302016FF3C501B4
:1046400063F38F112848FDF747FCC0E7214B224A4E
:104650009B1ADB084FF00001012262F302016FF3A5
:10466000C50163F38F112148FDF736FCB4E7194B00
:10467000194A9B1ADB084FF00001012262F3020184
:104680006FF3C50163F38F111948FDF725FCA8E707
:10469000104B114A9B1ADB084FF00001012262F314
:1046A00002016FF3C50163F38F111248FDF714FC8B
:1046B0009CE7084B084A9B1ADB084FF000010122D7
:1046C00062F302016FF3C50163F38F110A48FDF72E
:1046D00003FC90E7B846010088460100C84F01007E
:1046E00000ED00E0E04F0100F44F01001050010028
:1046F00030500100585001007450010008B50022EC
:104700000A70084B08495B1ADB084FF000010120D2
:1047100060F3020162F3C50163F38F110348FDF7F3
:10472000DBFB08BDB846010088460100A05001002F
:1047300070B505460E4614465E4B5F4A9B1ADB0871
:104740004FF00001012262F302016FF3C50163F330
:104750008F115A48FDF7C0FB594B9B6A13F4805FD9
:1047600024D1574B9B6A13F4006F30D1544B9B6A92
:1047700013F4007F3CD1524B9B6A13F4806F65D1D8
:104780004F4B9B6A13F4807F71D14D4B9B6A13F49E
:10479000005F7DD14A4A936A43F47F4393620121CB
:1047A00028460CF0FEFD2070002070BD414B424AAF
:1047B0009B1ADB084FF00001012262F302016FF344
:1047C000C50163F38F113F48FDF786FBC9E7394BFD
:1047D000394A9B1ADB084FF00001012262F3020103
:1047E0006FF3C50163F38F113748FDF775FBBDE724
:1047F000304B314A9B1ADB084FF00001012262F373
:1048000002016FF3C50163F38F113048FDF764FBBC
:104810002B4B996B9B6A13F4004FACD0254B264A67
:104820009B1ADB084FF00002012060F302026FF3D5
:10483000C50263F38F122648FDF7BAFA002E9AD00C
:104840001F4A936A23F40043936294E7194B1A4A70
:104850009B1ADB084FF00001012262F302016FF3A3
:10486000C50163F38F111B48FDF736FB88E7114B39
:10487000114A9B1ADB084FF00001012262F302018A
:104880006FF3C50163F38F111348FDF725FB81E733
:10489000084B094A9B1ADB084FF00001012262F322
:1048A00002016FF3C50163F38F110C48FDF714FB90
:1048B00070E700BFB846010088460100C4500100FF
:1048C00000ED00E0DC500100F05001000451010057
:1048D0002051010038510100545101006C51010078
:1048E000F8B505460C461646644B654A9B1ADB082C
:1048F0004FF00001012262F302016FF3C50163F37F
:104900008F116048FDF7E8FA5F4B9B6A13F0100FB8
:1049100032D15D4B9B6A13F0080F3ED15A4B9B6A14
:1049200013F0020F4AD16FF01507574B9B6A13F033
:10493000010F75D1544B9B6A13F0200F40F081801A
:10494000514B9B6A13F0100F04D14F4B9C6A14F02B
:10495000020405D04C4B5C6814F4006440F0828083
:10496000494A936A43F0FF039362012128460CF001
:1049700018FD30702046F8BD404B414A9B1ADB08B9
:104980004FF00001012262F302016FF3C50163F3EE
:104990008F113E48FDF7A0FABBE7384B384A9B1A07
:1049A000DB084FF00001012262F302016FF3C50141
:1049B00063F38F113648FDF78FFAAFE72F4B304A7C
:1049C0009B1ADB084FF00001012262F302016FF332
:1049D000C50163F38F112F48FDF77EFA2A4B5F6BF9
:1049E0009B6A13F0800F02D16FF015079DE7234BF0
:1049F000234A9B1ADB084FF00002012161F30202F7
:104A00006FF3C50263F38F1239462348FDF7D0F9DF
:104A1000002C8AD01C4A936A23F08003936284E7B7
:104A2000164B174A9B1ADB084FF00001012262F374
:104A300002016FF3C50163F38F111848FDF74CFABB
:104A400078E70E4B0E4A9B1ADB084FF0000101225B
:104A500062F302016FF3C50163F38F111048FDF794
:104A60003BFA6DE729463846FFF722FD0446002849
:104A70003FF476AF80F30988022471E7B84601005D
:104A8000884601009C51010000ED00E0B451010096
:104A9000F0500100E85101000052010018520100DD
:104AA0006C51010070B505460C46474B474A9B1AAE
:104AB000DB084FF00001012262F302016FF3C50130
:104AC00063F38F114248FDF707FA00232370414B2F
:104AD000DE6A16F0020609D13E4BDB6A002B17DBBB
:104AE0003C4BD86A10F0804024D170BD364B374A19
:104AF0009B1ADB084FF00001012262F302016FF301
:104B0000C50163F38F113448FDF7E6F90020ECE7A7
:104B10002D4B2E4A9B1ADB084FF00001012262F355
:104B200002016FF3C50163F38F112C48FDF7D4F92F
:104B30003046DAE7244B254A9B1ADB084FF0000188
:104B4000012262F302016FF3C50163F38F11244860
:104B5000FDF7C2F9AB6933F8022C4DF602739A42A5
:104B60000ED003F1604303F626631B78DBB91D4BBF
:104B70001B78F3B91C4B1B889BB203BB3046B4E7D0
:104B8000114B124A9B1ADB084FF00002012161F31E
:104B900002026FF3C50263F38F1229681348FDF711
:104BA00007F92868A1E7224601212846FFF798FE69
:104BB0009BE7224601212846FFF7BAFD95E72846E4
:104BC000FFF7EAFC91E700BFB84601008846010004
:104BD0003852010000ED00E0505201007452010013
:104BE0008452010029ED00E02AED00E0A45201000A
:104BF00008B50A460B480C4BC01AC0084FF000031A
:104C0000012161F302036FF3C50360F38F130F2AD1
:104C100005DC0649103A0648FDF700F908BD0549CC
:104C2000F8E700BFB846010088460100C052010005
:104C3000F4520100D852010070B58AB02B4B5D6868
:104C4000C5F30805002383F31188BFF36F8F02F0CB
:104C50007F43B3F17F4F2AD102F00C03082B10D011
:104C600012F0080F20D00C4600260DF1270229462D
:104C700020460CF098FB05469DF82730D3B10AB0CA
:104C800070BD1B4B1B4A9B1ADB084FF00001012231
:104C900062F302016FF3C50163F38F111648FDF74C
:104CA0001BF900263446E0E704460126DDE700262E
:104CB0003446DAE72022214601A80CF04FFC4EB121
:104CC000089BC3F308025AB96FEA53236FEA4323E0
:104CD000089305E0089B23F4FF7323F00103089376
:104CE00001A928460CF03FFBC9E700BF00ED00E03A
:104CF000B84601008846010008530100024A536982
:104D000043F010035361704700ED00E0EFF30880BB
:104D1000EFF3098101B57246FFF78EFF01BD00BFB9
:104D2000002206E002F00F01094B0B442021197606
:104D300001322F2A0ADC53B2002BF3DB03F160436C
:104D400003F56143202183F80013F1E7704700BFAA
:104D5000FCEC00E0002080F31488BFF36F8F0FF0AD
:104D600025FB00200D490860BFF34F8F0C4880F3EE
:104D7000088800F029F8202080F3118809484FF4B2
:104D80000261401880F30988EFF314800221084380
:104D900080F31488BFF36F8FFFF7F6FA94ED00E00D
:104DA0000044002080450020064B1868C0F307200F
:104DB0000023834205DA034A936000211161013325
:104DC000F7E7704790ED00E010B572B6002484F369
:104DD0001388FFF7E9FF234608E003F120010E4A9C
:104DE0004FF0FF3042F821000133DBB2072BF4D93A
:104DF000002308E003F16001074A4FF0FF3042F85A
:104E000021000133DBB2072BF4D962B6BFF34F8F19
:104E1000BFF36F8F10BD00BF00E100E008B5084B85
:104E20009B68834202D00AF019F808BDEFF30583AE
:104E3000002BF8D0034A536843F080535360F2E7E5
:104E4000782E002000ED00E008B5034B034A012155
:104E500003480CF0FDFA08BD00000420000000200B
:104E60003853010008B5D0F89830203B044803605F
:104E700020234360034B836001210CF0EDFA08BD51
:104E8000541D002000000B15064A90600B6823F0AB
:104E90001F03034343F01003D3608B6843F0010307
:104EA0001361704790ED00E010B50446072803D861
:104EB000FFF7EAFF204610BD094B0A4A9B1ADB08A0
:104EC0004FF00002012161F302026FF3C50263F3A8
:104ED0008F1201460448FCF76BFF6FF01500EAE7FC
:104EE000B046010088460100445301002DE9F04717
:104EF00080460F469A461646002409E02946F0B23D
:104F00000CF087FA064610F1160F25D00136013451
:104F1000BC4221DA04EB440508EB85056A68002AE7
:104F2000F5D0BAF1000FE9D028460CF061FA00285C
:104F3000E4D10B4B0B4A9B1ADB084FF00002012116
:104F400061F302026FF3C50263F38F122146064834
:104F5000FCF72EFF6FF015063046BDE8F08700BF66
:104F6000B0460100884601006C53010010B5034CA7
:104F700001232278FFF7BAFF207010BDDA2E00203F
:104F800008B50023084A1278FFF7B0FF10F1160F9A
:104F900008D00346072B05DC044A93600021116109
:104FA0000133F7E708BD00BFDA2E002090ED00E0E6
:104FB000034B05225A60BFF34F8FBFF36F8F7047CB
:104FC00090ED00E0BFF35F8F014B00225A60704705
:104FD00090ED00E038B50E4B1D68082D15D8FFF791
:104FE000F1FF0024A5420AD9094B596804EB440299
:104FF000930019442046FFF747FF0134F2E7054BC1
:105000001D70FFF7D5FF002038BD4FF0FF30FBE7E4
:10501000CC530100DA2E002008B50B4B0B4A9B1A2B
:10502000DB084FF00001012262F302016FF3C501BA
:1050300063F38F110648FCF74FFF08F06FFD0C2358
:105040000360002008BD00BFB8460100884601008B
:1050500090530100014B1860704700BF2C020020E4
:105060000CB400B585B00B4609B90DF103000190F1
:10507000029307AB0393069A01A90548FBF7F2FEDA
:10508000019B00221A7005B05DF804EB02B0704776
:105090001D1601004FF02003EFF3118283F31288F5
:1050A000BFF36F8F01230649C1F840354FF08041AF
:1050B000C1F8783582F31188BFF36F8F00207047F5
:1050C00000E0014030B108B58001034B43F001031B
:1050D000984708BD704700BFB04701000023012B6F
:1050E0000ED8094A02EBC30252680AB10133F6E74F
:1050F000054A42F8330002EBC303596000207047B1
:105100006FF01B00704700BF7C1D0020014600238C
:1051100000E00133012B0BD8064800EBC3004268C6
:10512000002AF6D0034A52F833208A42F1D100E037
:10513000002070477C1D00202DE9F84F83460F4664
:10514000924608460CF0BCF980464FF0FF324FF013
:10515000FF33204808F0F8FF1F4B1C689C421DD00D
:105160000026B1460CE02A46E16838460CF0C4F946
:1051700008B92E46A146184B5B689C4210D02468A3
:1051800084B1A569AE42F6D8A845F4D3012DEAD979
:105190007B5D2F2BE7D0002BE5D0ECE70024DFE789
:1051A0000024EDE70B4809F059F8B9F1000F0BD0D6
:1051B000CBF80090BAF1000F09D0D9F81830CAF82E
:1051C00000300020BDE8F88F6FF00100FAE7002002
:1051D000F8E700BF681D0020601D002008B50448E6
:1051E0000EF07BFD034B1B605B60002008BD00BF21
:1051F000681D0020601D0020F0B583B005460272D6
:1052000061B316460F4608460CF05AF9012825D915
:105210003B782F2B22D16B68002B57D100223946C7
:1052200001A8FFF789FF041E2BDB019B93F82020C8
:1052300012F0020F02D016F0120F4AD1DA6912688A
:10524000002A49D06B60DB691B6832463946284624
:105250009847041E26DB204603B0F0BD204B214AB0
:105260009B1ADB084FF00001012262F302016FF389
:10527000C50163F38F111C48FCF72EFE6FF0150477
:10528000E9E7174B174A9B1ADB084FF00001012290
:1052900062F302016FF3C50163F38F111348FCF74A
:1052A0001BFED8E70E4B0F4A9B1ADB084FF000029B
:1052B000012161F302026FF3C50263F38F122146ED
:1052C0000B48FCF775FD00236B60C4E76FF00F041B
:1052D000C1E76FF01D04BEE76FF08504BBE700BFB8
:1052E0009846010088460100F05301000454010073
:1052F0001C54010038B54368E3B10446DB69DB693F
:10530000D3B19847051E03DB00236360284638BDF0
:105310000B4B0C4A9B1ADB084FF00002012161F392
:1053200002026FF3C50263F38F1229460648FCF7A9
:105330003FFDEBE70025E9E76FF08505E6E700BFF5
:1053400098460100884601003454010010B54368B6
:10535000CBB1DB695B68CBB19847041E01DB20460B
:1053600010BD0C4B0C4A9B1ADB084FF000020121C8
:1053700061F302026FF3C50263F38F1221460748FF
:10538000FCF716FDEBE76FF00804E8E76FF0850423
:10539000E5E700BF98460100884601004C54010033
:1053A00010B54368CBB1DB699B68CBB19847041E4D
:1053B00001DB204610BD0C4B0C4A9B1ADB084FF05A
:1053C0000002012161F302026FF3C50263F38F1241
:1053D00021460748FCF7ECFCEBE76FF00804E8E730
:1053E0006FF08504E5E700BF98460100884601009C
:1053F0006454010010B54368CBB1DB69DB68CBB105
:105400009847041E01DB204610BD0C4B0C4A9B1A2A
:10541000DB084FF00002012161F302026FF3C502C5
:1054200063F38F1221460748FCF7C2FCEBE76FF0ED
:105430000804E8E76FF08504E5E700BF984601003F
:10544000884601007C54010070B582B000B30E465E
:1054500005460CF035F801281AD92B782F2B17D1D7
:105460000022294601A8FFF767FE041E23DB0198EE
:10547000C3691B6C002B41D032462946984704462D
:1054800010F1020F01D0002826DB204602B070BDCB
:105490001C4B1D4A9B1ADB084FF00001012262F3EE
:1054A00002016FF3C50163F38F111848FCF714FD77
:1054B0006FF01504E9E7134B134A9B1ADB084FF012
:1054C0000001012262F302016FF3C50163F38F1142
:1054D0000F48FCF701FDD8E70A4B0B4A9B1ADB0883
:1054E0004FF00002012161F302026FF3C50263F382
:1054F0008F1201460748FCF75BFCC6E76FF0850496
:10550000C3E700BF9846010088460100F053010040
:10551000045401009454010070B582B0D8B10E4615
:1055200005460BF0CDFF012815D92B782F2B12D172
:105530000022294601A8FFF7FFFD041E1EDB01988B
:10554000C3695B6C23B1324629469847041E26DBAB
:10555000204602B070BD1B4B1B4A9B1ADB084FF064
:105560000001012262F302016FF3C50163F38F11A1
:105570001648FCF7B1FC6FF01504E9E7114B124A2D
:105580009B1ADB084FF00001012262F302016FF366
:10559000C50163F38F110E48FCF79EFCD8E7094B59
:1055A000094A9B1ADB084FF00002012161F3020255
:1055B0006FF3C50263F38F1221460648FCF7F8FB30
:1055C000C6E700BF9846010088460100F05301007D
:1055D0000454010094540100F8B5C0B10646C068F7
:1055E000A8B10BF06DFF0546012823D9F3681B789D
:1055F0002F2B1FD14FF0FF324FF0FF335E4808F0E2
:10560000A3FD5E4B1C689C422CD100242AE05C4B1D
:105610005C4A9B1ADB084FF00001012262F3020191
:105620006FF3C50163F38F115748FCF755FC6FF01A
:10563000150450E0524B534A9B1ADB084FF000010F
:10564000012262F302016FF3C50163F38F114F482A
:10565000FCF742FC6FF015043DE0484B5B68A34249
:105660001ED02468E4B1A369AB42F6D12A46E168B2
:10567000F0680BF041FF0028EFD1414B414A9B1AE3
:10568000DB084FF00001012262F302016FF3C50154
:1056900063F38F113E48FCF71FFC6FF00F0417E017
:1056A000B46820460BF0E5FF0746B0B1C36A3BB3D0
:1056B000036B002B38D0FB6A30469847041E49DB49
:1056C000B561F7612D4B5A683360726016605E6099
:1056D000294808F0C3FD2046F8BD294B294A9B1AEA
:1056E000DB084FF00001012262F302016FF3C501F4
:1056F00063F38F112748FCF7EFFB6FF00104E7E736
:105700001F4B204A9B1ADB084FF00002012161F376
:1057100002026FF3C50263F38F1221461E48FCF7A5
:1057200047FB6FF08504D3E7154B164A9B1ADB083D
:105730004FF00004022262F302046FF3C50463F326
:105740008F14F068FCF7BAF9014622461348FCF7BB
:105750002FFBB0E70A4B0B4A9B1ADB084FF0000205
:10576000012161F302026FF3C50263F38F12214638
:105770000B48FCF71DFBABE7681D0020601D0020F7
:105780009846010088460100B8540100D854010031
:10579000F0540100105501003C5501006455010012
:1057A0008855010038B504460D464FF0FF324FF0E2
:1057B000FF330A4808F0C8FC20460BF05AFF48B9EE
:1057C00029462046FFF78AFC0446044808F046FDB7
:1057D000204638BD6FF07704F7E700BF681D002052
:1057E000034628B129B18A6910449B5C13B1704704
:1057F0007047704700487047A055010008B502493E
:105800000120FFF7CFFF08BD1057010000B583B09E
:105810000090002301930BF09BFD6A4603490CF0B6
:105820000FFC019803B05DF804FB00BF8117010075
:105830002DE9F04F8DB0054604694769C34BC44A52
:105840009B1ADB084FF0000C032262F3020C6FF38B
:10585000C50C63F38F1CBF4B07AE0FCB86E80F0060
:10586000634604223146BC48FCF714FBD4F8E83008
:10587000002B40F0678104F1EC0630460EF02DFA63
:105880004FF0FF324FF0FF33304608F05DFC04F17B
:10589000E801F8B2FEF736FB002826DBD4F8E80072
:1058A00018B30BF055FD049000283BD0D4F81490A9
:1058B000B9F1000F01D14FF01009D4F81880B8F1F8
:1058C000000F01D14FF01008E769002F44D0002FDE
:1058D00000F03581D4F824B0BBF1000F42D0BBF109
:1058E000000F41DC4FF0FF3B3EE0984B984A9B1A7B
:1058F000DB084FF00002012161F302026FF3C502E1
:1059000063F38F1239469548FCF752FA6FF012078D
:105910000023C4F8E830304608F0A0FC38460DB04B
:10592000BDE8F08F894B8A4A9B1ADB084FF00005CF
:10593000012262F302056FF3C50563F38F15D4F8F6
:10594000E830D868FCF7BAF801462A468448FCF7E4
:105950002FFA6FF01207DBE7D4F8E800FFF756FFE5
:105960000746B4E74FF4007BA36A02930BB94023C8
:105970000293E36A01930BB920230193D4F8E83032
:105980009B68B3FBF7F30393704B714A9B1ADA08D9
:105990004FF0000A032161F3020A6FF3C50A059272
:1059A00062F38F1A04980068FCF788F80790D4F81F
:1059B000E8305B680893039B09930A97CDF82CB0F5
:1059C000534605220DF11C0C61466648FCF762FA4D
:1059D0004FF00003032060F302036FF3C503059942
:1059E00061F38F13CDF81C90CDF82080029A0992B4
:1059F00001990A91042207A801465B48FCF74AFA7C
:105A0000D4F8E8302360594B6360594BA360594B7D
:105A1000E360594B2361C4F81490C4F81880E7611F
:105A2000039B2362C4F824B0029AA2620199E16246
:105A300004F170082146404606F06EF9071E04DAAC
:105A400095F8203013F0010F18D0404B404A9B1AB4
:105A5000DB084FF00008032262F302086FF3C50869
:105A600063F38F18E868FCF729F80146424643487B
:105A7000FCF79EF9002FBFF64EAF49E7334B344A8F
:105A80009B1ADB084FF00002022161F302026FF360
:105A9000C50263F38F1239463948FCF789F995F846
:105AA000203013F0020F37D12146404607F0A6FE02
:105AB000071E1BDB2146404606F02EF9071EC4DAFE
:105AC000224B234A9B1ADB084FF00002012161F3AD
:105AD00002026FF3C50263F38F1239462948FCF7BF
