:10000000A04400205D5B0000FB280100155B0000A0
:10001000155B0000155B0000155B00000000000090
:100020000000000000000000000000005952000025
:10003000155B000000000000015200006B3A010057
:100040004553000045530000455300004553000050
:100050004553000045530000455300004553000040
:100060004553000045530000455300004553000030
:100070004553000045530000455300004553000020
:100080004553000045530000455300004553000010
:100090004553000045530000455300004553000000
:1000A00045530000455300004553000045530000F0
:1000B00045530000455300004553000045530000E0
:1000C00045530000455300004553000045530000D0
:1000D00045530000455300004553000045530000C0
:1000E00045530000455300004553000045530000B0
:1000F00045530000455300004553000045530000A0
:1001000081F0004102E000BF83F0004330B54FEAC8
:1001100041044FEA430594EA050F08BF90EA020F35
:100120001FBF54EA000C55EA020C7FEA645C7FEAC8
:10013000655C00F0E2804FEA5454D4EB5555B8BFEB
:100140006D420CDD2C4480EA020281EA030382EA5C
:10015000000083EA010180EA020281EA0303362DEE
:1001600088BF30BD11F0004F4FEA01314FF4801CC1
:100170004CEA113102D0404261EB410113F0004FD3
:100180004FEA03334CEA133302D0524263EB43038A
:1001900094EA050F00F0A780A4F10104D5F1200E28
:1001A0000DDB02FA0EFC22FA05F2801841F1000183
:1001B00003FA0EF2801843FA05F359410EE0A5F157
:1001C00020050EF1200E012A03FA0EFC28BF4CF088
:1001D000020C43FA05F3C01851EBE37101F000453E
:1001E00007D54FF0000EDCF1000C7EEB00006EEB4B
:1001F0000101B1F5801F1BD3B1F5001F0CD34908D5
:100200005FEA30004FEA3C0C04F101044FEA44522B
:1002100012F5800F80F09A80BCF1004F08BF5FEAB2
:10022000500C50F1000041EB045141EA050130BD92
:100230005FEA4C0C404141EB0101013C28BFB1F5A4
:10024000801FE9D291F0000F04BF01460020B1FAEF
:1002500081F308BF2033A3F10B03B3F120020CDAC2
:100260000C3208DD02F1140CC2F10C0201FA0CF0A0
:1002700021FA02F10CE002F11402D8BFC2F1200C05
:1002800001FA02F120FA0CFCDCBF41EA0C019040BB
:10029000E41AA2BF01EB0451294330BD6FEA040404
:1002A0001F3C1CDA0C340EDC04F11404C4F12002EF
:1002B00020FA04F001FA02F340EA030021FA04F301
:1002C00045EA030130BDC4F10C04C4F1200220FA58
:1002D00002F001FA04F340EA0300294630BD21FA96
:1002E00004F0294630BD94F0000F83F4801306BF5C
:1002F00081F480110134013D4EE77FEA645C18BF50
:100300007FEA655C29D094EA050F08BF90EA020FE6
:1003100005D054EA000C04BF1946104630BD91EADE
:10032000030F1EBF0021002030BD5FEA545C05D1E1
:100330004000494128BF41F0004130BD14F5800420
:100340003CBF01F5801130BD01F0004545F0FE4194
:1003500041F470014FF0000030BD7FEA645C1ABFC9
:10036000194610467FEA655C1CBF0B46024650EA00
:10037000013406BF52EA033591EA030F41F400212C
:1003800030BD00BF90F0000F04BF0021704730B5B2
:100390004FF4806404F132044FF000054FF0000187
:1003A00050E700BF90F0000F04BF0021704730B548
:1003B0004FF4806404F1320410F0004548BF40421D
:1003C0004FF000013EE700BF42004FEAE2014FEA72
:1003D00031014FEA02701FBF12F07F4393F07F4F4D
:1003E00081F06051704732F07F4208BF704793F050
:1003F0007F4F04BF41F40021704730B54FF4607463
:1004000001F0004521F000411CE700BF50EA010265
:1004100008BF704730B54FF000050AE050EA01020E
:1004200008BF704730B511F0004502D5404261EB7E
:1004300041014FF4806404F132045FEA915C3FF4BF
:10044000D8AE4FF003025FEADC0C18BF03325FEA5C
:10045000DC0C18BF033202EBDC02C2F1200300FA0D
:1004600003FC20FA02F001FA03FE40EA0E0021FA32
:1004700002F11444BDE600BF70B54FF0FF0C4CF420
:10048000E06C1CEA11541DBF1CEA135594EA0C0FD2
:1004900095EA0C0F00F0DEF82C4481EA030621EA0D
:1004A0004C5123EA4C5350EA013518BF52EA033548
:1004B00041F4801143F4801338D0A0FB02CE4FF0FA
:1004C0000005E1FB02E506F00042E0FB03E54FF02A
:1004D0000006E1FB03569CF0000F18BF4EF0010E22
:1004E000A4F1FF04B6F5007F64F5407404D25FEA1E
:1004F0004E0E6D4146EB060642EAC62141EA5551D1
:100500004FEAC52040EA5E504FEACE2EB4F1FD0C12
:1005100088BFBCF5E06F1ED8BEF1004F08BF5FEA90
:10052000500E50F1000041EB045170BD06F0004642
:1005300046EA010140EA020081EA0301B4EB5C04EF
:10054000C2BFD4EB0C0541EA045170BD41F48011E7
:100550004FF0000E013C00F3AB8014F1360FDEBF0C
:10056000002001F0004170BDC4F10004203C35DAE8
:100570000C341BDC04F11404C4F1200500FA05F36B
:1005800020FA04F001FA05F240EA020001F000420C
:1005900021F0004110EBD37021FA04F642EB060182
:1005A0005EEA430E08BF20EAD37070BDC4F10C04AC
:1005B000C4F1200500FA04F320FA05F001FA04F270
:1005C00040EA020001F0004110EBD37041F100015C
:1005D0005EEA430E08BF20EAD37070BDC4F1200567
:1005E00000FA05F24EEA020E20FA04F301FA05F2CF
:1005F00043EA020321FA04F001F0004121FA04F277
:1006000020EA020000EBD3705EEA430E08BF20EA46
:10061000D37070BD94F0000F0FD101F00046400080
:1006200041EB010111F4801F08BF013CF7D041EA02
:10063000060195F0000F18BF704703F00046520006
:1006400043EB030313F4801F08BF013DF7D043EAD7
:100650000603704794EA0C0F0CEA135518BF95EA8D
:100660000C0F0CD050EA410618BF52EA4306D1D114
:1006700081EA030101F000414FF0000070BD50EA33
:10068000410606BF1046194652EA430619D094EABD
:100690000C0F02D150EA013613D195EA0C0F05D1A7
:1006A00052EA03361CBF104619460AD181EA0301FB
:1006B00001F0004141F0FE4141F470014FF00000B3
:1006C00070BD41F0FE4141F4780170BD70B54FF04E
:1006D000FF0C4CF4E06C1CEA11541DBF1CEA1355CE
:1006E00094EA0C0F95EA0C0F00F0A7F8A4EB0504B0
:1006F00081EA030E52EA03354FEA013100F08880A7
:100700004FEA03334FF0805545EA131343EA12636F
:100710004FEA022245EA111545EA10654FEA002624
:100720000EF000419D4208BF964244F1FD0404F5DD
:10073000407402D25B084FEA3202B61A65EB030539
:100740005B084FEA32024FF480104FF4002CB6EBF6
:10075000020E75EB030E22BFB61A754640EA0C0076
:100760005B084FEA3202B6EB020E75EB030E22BFB6
:10077000B61A754640EA5C005B084FEA3202B6EBF7
:10078000020E75EB030E22BFB61A754640EA9C00B6
:100790005B084FEA3202B6EB020E75EB030E22BF86
:1007A000B61A754640EADC0055EA060E18D04FEA44
:1007B000051545EA16754FEA06164FEAC30343EAE4
:1007C00052734FEAC2025FEA1C1CC0D111F4801FB1
:1007D0000BD141EA00014FF000004FF0004CB6E7AA
:1007E00011F4801F04BF01430020B4F1FD0C88BF49
:1007F000BCF5E06F3FF6AFAEB5EB030C04BFB6EB54
:10080000020C5FEA500C50F1000041EB045170BD46
:100810000EF0004E4EEA113114EB5C04C2BFD4EB73
:100820000C0541EA045170BD41F480114FF0000EF7
:10083000013C90E645EA060E8DE60CEA135594EA73
:100840000C0F08BF95EA0C0F3FF43BAF94EA0C0F76
:100850000AD150EA01347FF434AF95EA0C0F7FF4EB
:1008600025AF104619462CE795EA0C0F06D152EA3F
:1008700003353FF4FDAE1046194622E750EA410623
:1008800018BF52EA43067FF4C5AE50EA41047FF434
:100890000DAF52EA43057FF4EBAE12E74FF0FF3C99
:1008A00006E000BF4FF0010C02E000BF4FF0010C6A
:1008B0004DF804CD4FEA410C7FEA6C5C4FEA430CE3
:1008C00018BF7FEA6C5C1BD001B050EA410C0CBF32
:1008D00052EA430C91EA030F02BF90EA020F002094
:1008E000704710F1000F91EA030F58BF994208BFFB
:1008F00090422CBFD8176FEAE37040F001007047B8
:100900004FEA410C7FEA6C5C02D150EA013C07D10E
:100910004FEA430C7FEA6C5CD6D152EA033CD3D059
:100920005DF8040B704700BF8446104662468C4653
:100930001946634600E000BF01B5FFF7B7FF002886
:1009400048BF10F1000F01BD4DF808EDFFF7F4FFAF
:100950000CBF012000205DF808FB00BF4DF808ED3A
:10096000FFF7EAFF34BF012000205DF808FB00BF5D
:100970004DF808EDFFF7E0FF94BF012000205DF87F
:1009800008FB00BF4DF808EDFFF7CEFF94BF012034
:1009900000205DF808FB00BF4DF808EDFFF7C4FF2D
:1009A00034BF012000205DF808FB00BF4FEA410280
:1009B000B2F1E04324BFB3F5001CDCF1FE5C0DD9BD
:1009C00001F0004C4FEAC0024CEA5070B2F1004F07
:1009D00040EB830008BF20F00100704711F0804F0A
:1009E00021D113F13872BCBF01F00040704741F4CF
:1009F00080114FEA5252C2F11802C2F1200C10FAD3
:100A00000CF320FA02F018BF40F001004FEAC123B6
:100A10004FEAD32303FA0CFC40EA0C0023FA02F35A
:100A20004FEA4303CCE77FEA625307D150EA013330
:100A30001EBF4FF0FE4040F44000704701F0004000
:100A400040F0FE4040F40000704700BF4FF0FF0C44
:100A50001CEAD0521EBF1CEAD15392EA0C0F93EA53
:100A60000C0F6FD01A4480EA010C400218BF5FEAF5
:100A700041211ED04FF0006343EA501043EA511168
:100A8000A0FB01310CF00040B1F5000F3EBF490062
:100A900041EAD3715B0040EA010062F17F02FD2A66
:100AA0001DD8B3F1004F40EBC25008BF20F0010049
:100AB000704790F0000F0CF0004C08BF49024CEA60
:100AC000502040EA51207F3AC2BFD2F1FF0340EAF2
:100AD000C250704740F400004FF00003013A5DDC63
:100AE00012F1190FDCBF00F000407047C2F10002A4
:100AF000410021FA02F1C2F1200200FA02FC5FEA91
:100B0000310040F1000053EA4C0308BF20EADC70DA
:100B1000704792F0000F00F0004C02BF400010F44C
:100B2000000F013AF9D040EA0C0093F0000F01F0F9
:100B3000004C02BF490011F4000F013BF9D041EA1B
:100B40000C018FE70CEAD15392EA0C0F18BF93EA1D
:100B50000C0F0AD030F0004C18BF31F0004CD8D147
:100B600080EA010000F00040704790F0000F17BFCE
:100B700090F0004F084691F0000F91F0004F14D014
:100B800092EA0C0F01D142020FD193EA0C0F03D16C
:100B90004B0218BF084608D180EA010000F000406F
:100BA00040F0FE4040F40000704740F0FE4040F44A
:100BB000400070474FF0FF0C1CEAD0521EBF1CEAE9
:100BC000D15392EA0C0F93EA0C0F69D0A2EB030207
:100BD00080EA010C49024FEA402037D04FF08053A1
:100BE00043EA111143EA10130CF000408B4238BF66
:100BF0005B0042F17D024FF4000C8B4224BF5B1A74
:100C000040EA0C00B3EB510F24BFA3EB510340EAC1
:100C10005C00B3EB910F24BFA3EB910340EA9C006F
:100C2000B3EBD10F24BFA3EBD10340EADC001B01DF
:100C300018BF5FEA1C1CE0D1FD2A3FF650AF8B4283
:100C400040EBC25008BF20F0010070470CF0004C90
:100C50004CEA50207F32C2BFD2F1FF0340EAC250BB
:100C6000704740F400004FF00003013A37E792F07C
:100C7000000F00F0004C02BF400010F4000F013ADA
:100C8000F9D040EA0C0093F0000F01F0004C02BFD5
:100C9000490011F4000F013BF9D041EA0C0195E73E
:100CA0000CEAD15392EA0C0F08D142027FF47DAFD7
:100CB00093EA0C0F7FF470AF084676E793EA0C0FC7
:100CC00004D14B023FF44CAF08466EE730F0004CC5
:100CD00018BF31F0004CCAD130F000427FF45CAF55
:100CE00031F000437FF43CAF5FE700BF4FEA4002C2
:100CF000B2F1FE4F0FD34FF09E03B3EB12620DD94A
:100D00004FEA002343F0004310F0004F23FA02F0B3
:100D100018BF404270474FF00000704712F1610F5A
:100D200001D1420205D110F0004008BF6FF0004031
:100D300070474FF00000704753B94AB9002908BF07
:100D400000281CBF4FF0FF314FF0FF3000F080B99A
:100D5000ADF1080C6DE904CE00F01AF8DDF804E0FE
:100D6000DDE9022304B07047430803F05533C01A8D
:100D7000830803F0333300F03330184400EB1010D5
:100D800000F00F3000EB002000EB0040000E704739
:100D90002DE9F047089E0D4604468E46002B40F094
:100DA00082808A42174646D9B2FA82F24AB1C2F12B
:100DB000200105FA02F320FA01F1974041EA030EFF
:100DC00094404FEA1748230CBEFBF8FCB9B208FB6D
:100DD0001CEE43EA0E430CFB01F098420AD9FB18C3
:100DE0000CF1FF3580F01681984240F21381ACF18E
:100DF000020C3B441B1AA4B2B3FBF8F008FB1033FF
:100E000044EA034400FB01F1A14209D93C1900F175
:100E1000FF3380F00181A14240F2FE8002383C4461
:100E2000641A40EA0C4000211EB1D4400023C6E9F8
:100E30000043BDE8F08702B9FFDEB2FA82F2002A71
:100E40004FD1CB1B4FEA174E1FFA87F80121B3FB96
:100E5000FEFC250C0EFB1C3345EA034508FB0CF396
:100E6000AB4207D97D190CF1FF3002D2AB4200F240
:100E7000E7808446ED1AA3B2B5FBFEF00EFB1055D9
:100E800043EA054408FB00F8A04507D93C1900F1E6
:100E9000FF3302D2A04500F2D7801846A4EB080425
:100EA00040EA0C40C0E78B4208D9002E00F0AF802A
:100EB0000021C6E900050846BDE8F087B3FA83F1D2
:100EC00000294BD1AB4202D3824200F2B780841A90
:100ED00065EB030301209E46002EAAD0C6E9004E12
:100EE000A7E7C2F1200C01FA02F3974020FA0CF0B8
:100EF0004FEA174E21FA0CFC1843BCFBFEF1050C1F
:100F00000EFB11CC1FFA87F845EA0C4501FB08F3EC
:100F1000AB4204FA02F409D97D1901F1FF3C80F0DB
:100F20008B80AB4240F2888002393D44EB1A85B297
:100F3000B3FBFEF00EFB103345EA034500FB08F35C
:100F4000AB4207D97D1900F1FF3C71D2AB426FD99A
:100F500002383D44EB1A40EA014178E7C1F1200C28
:100F60008B4022FA0CF71F4320FA0CF405FA01F328
:100F70004FEA174E25FA0CF51C43230CB5FBFEF97E
:100F80001FFA87F80EFB195543EA054509FB08FAD5
:100F9000AA4502FA01F200FA01F308D97D1909F114
:100FA000FF3047D2AA4545D9A9F102093D44A5EB36
:100FB0000A05A4B2B5FBFEF00EFB105544EA054449
:100FC00000FB08F8A04507D93C1900F1FF352DD2E8
:100FD000A0452BD902383C4440EA0940A4EB080460
:100FE000A0FB02894C45C6464D4619D316D05EB1CA
:100FF000B3EB0E0264EB050404FA0CFCCA404CEAA5
:101000000202CC40C6E900240021BDE8F087314649
:1010100030460EE7AC46EDE6184601E74345E6D21A
:10102000B8EB020E69EB07050138E0E72846D3E785
:1010300060468FE78146BAE7614677E708464BE7A7
:10104000ACF1020C3D4415E702383C4426E700BFF2
:10105000704700BF00000000F0B585B006238DF892
:10106000083043788DF8093083788DF80A300023F2
:101070008DF80B308DF80C30514A1288ADF80420F1
:101080008DF80630ADF8003000234E4A13604E4A0A
:1010900013604E4A13608378122B01D005B0F0BD67
:1010A00000251F2D60DC0322212101A800F0DCF9BE
:1010B0004FF4FA700FF03AF99DF80440240224B27C
:1010C0009DF805301C43424B1868FFF76BF900226E
:1010D000404BFFF7D1F906460F462046FFF762F96D
:1010E00032463B46FFF7F2FA06460F46364C20687A
:1010F000FFF76AF932463B46FFF708F8FFF756FC60
:10110000206002227821684600F0AEF94FF4FA70B0
:101110000FF00CF99DF80000000200F47C509DF8DF
:1011200001301843A0F26660FFF73CF91EA3D3E933
:101130000023FFF7A1F91EA3D3E90023FFF7C6FAA6
:101140001DA3D3E90023FEF7DFFF06460F461D4C23
:101150002068FFF739F932463B46FEF7D7FFFFF725
:1011600025FC206001359CE7174C4FF07451206836
:10117000FFF76CFC2060022000F0F4FB114C4FF0F4
:1011800074512068FFF762FC2060012000F0EAFB48
:10119000052102A800F022FA05220F4B1A7002A9BD
:1011A0000E4811F08DFC79E72A3A92CB7FE838405F
:1011B000000000008099C9402A3A92CB7FE828407D
:1011C000C05F0100BC14002068150020101400202E
:1011D0000400002000005940742F0020200A002045
:1011E0002DE9F04385B0064606238DF80830437894
:1011F0008DF8093082788DF80A2000258DF80B5083
:101200008DF80C507E4B1B88ADF804308DF80650DD
:10121000ADF8005000237B4941F8223081787A4AAA
:1012200042F821301F2D66DC0322212101A800F0A5
:101230001BF94FF4FA700FF079F89DF8044024027E
:1012400024B29DF805301C43B778704B1868FFF73F
:10125000A9F800226E4BFFF70FF980468946204619
:10126000FFF7A0F842464B46FFF730FA8046894622
:10127000654C54F82700FFF7A7F842464B46FEF7A7
:1012800045FFFFF793FB44F82700022278216846C8
:1012900000F0EAF84FF4FA700FF048F8B4789DF8CF
:1012A0000000000200F47C509DF801301843A0F2C9
:1012B0006660FFF777F84CA3D3E90023FFF7DCF86B
:1012C0004BA3D3E90023FFF701FA4BA3D3E9002393
:1012D000FEF71AFF804689464A4F57F82400FFF769
:1012E00073F842464B46FEF711FFFFF75FFB47F8E6
:1012F0002400013596E7B778DFF80C8158F827000D
:10130000FFF762F80022434BFFF7B6F804460D469C
:10131000D8F80000FFF758F802460B462046294649
:10132000FEF7F2FE05460C46002200232846214621
:10133000FFF732FB00284ED028462146FFF736FB48
:10134000314B43F82700022000F00CFBB778DFF8A0
:10135000B48058F82700FFF737F800222D4BFFF72D
:101360008BF804460D46D8F80000FFF72DF802462A
:101370000B4620462946FEF7C7FE05460C460022CE
:10138000002328462146FFF707FB38B328462146AD
:10139000FFF70CFB1B4C44F82700012000F0E2FA99
:1013A000B3781D4954F82300FFF750FBFFF79EFC6C
:1013B00003128DF80B308DF80C00052102A800F007
:1013C0000DF90522154B1A7002A9154811F078FB8A
:1013D00005B0BDE8F08304F10044ADE704F100443A
:1013E000D4E700BFAFF300802A3A92CB7FE83840C1
:1013F000000000008099C9402A3A92CB7FE828403B
:10140000C05F0100BC14002068150020040000200B
:10141000000059400000A03F00007A44742F0020D3
:10142000200A002008B500F077F800F021FA00F05B
:1014300043F8012000F0E0FA022000F0DDFA06E0B7
:1014400000F0B8F940F6CD4000210EF043FF054B07
:10145000186883685B6B002BF2D098470028F1D0A6
:10146000EEE700BFC00E002010B584B004460B4666
:10147000064908680194029203228DF80C208268C4
:101480005468012201A9A04704B010BD000000204B
:1014900010B584B004460B460649086801940292D0
:1014A00002228DF80C2082685468012201A9A0470D
:1014B00004B010BD0000002000B585B000230193EA
:1014C00002938DF80C3041F63663ADF800300222FD
:1014D00021216846FFF7DCFF4FF4247000210EF055
:1014E000F9FE0922212101A8FFF7BEFF4FF4FA708F
:1014F0000EF01CFF9DF80A209DF80B3043EA0223F2
:10150000044A13604FF4FA700EF010FF05B05DF856
:1015100004FB00BF0400002010B582B02A482B4B0A
:1015200018600023009313F082FE18B1002002F02F
:101530009DFC08B102B010BD254C1C2200212046A4
:1015400011F0E2FA4FF480632361224B636140F2B1
:10155000FF33A3611C4B9B681B6D1BB16A460421C2
:1015600019489847009B2BB940F6CD4000210EF05A
:10157000B1FEEFE7144B9B68DB6C1BB10122082125
:1015800011489847104B9B68DB6C1BB1012210215E
:101590000D489847104814F087FA0B4B9B681B6D59
:1015A0001BB101AA012108489847074B9B689B6A19
:1015B0000BB105489847044B9B68DB69002BB9D0F9
:1015C00001489847B6E700BF685C0100C00E0020E4
:1015D000A40E0020A40A002040420F0010B5A2B0C3
:1015E0000C460A4669460FF09BFB054B186883685A
:1015F0005B6913B1221D6946984722B010BD00BF38
:10160000C00E002000B583B006238DF80430437867
:101610008DF8053083788DF80630032101A8FFF797
:10162000DDFF0322044B1A7001A9044811F048FAA7
:1016300003B05DF804FB00BF742F0020200A0020D7
:1016400000B583B006238DF8043043788DF805305B
:1016500083788DF80630032101A8FFF7BFFF03222E
:10166000044B1A7001A9044811F02AFA03B05DF87E
:1016700004FB00BF742F0020200A002030B5A1B069
:101680000546002400947C22214601A811F03CFA72
:1016900006238DF800306B788DF8013013E01B497C
:1016A0001B4B53F82400FFF7D1F9FFF71FFB021281
:1016B000013404EB440320A90B4403F8802C0435C7
:1016C0000D4405F8800C2A2C13DC04EB4405AB1CFC
:1016D000104A125D20A90B4403F8802C1C2CDEDC80
:1016E0000A490D4B53F82400FFF7B0F9FFF7FEFA53
:1016F000DDE780216846FFF771FF8022074B1A70F3
:101700006946074811F0DCF921B030BD00007A4489
:10171000BC1400200800002068150020742F002051
:10172000200A002010B582B015238DF804304378CC
:101730008DF805301A468DF806300378202B19D025
:101740000AD8062B21D0152B24D1164B1B78FBB1C0
:101750001548FFF7E7FF1BE0402B1BD1114B197811
:10176000B1B11148FFF73AFF12E0104B53F82430A3
:1017700098470DE00023052B0AD81C460C49C95C8C
:101780008A42F2D00133DBB2F5E7064B00221A7031
:1017900002B010BD032101A8FFF720FF014B00227A
:1017A0001A70F5E7742F0020200A0020F85F01006E
:1017B0001060010030B597B02A4810F01AF93F28A0
:1017C0000ED94022284B186883689B696BB106A923
:1017D000984704469DF818307E2B09D017B030BDCD
:1017E000204810F006F90246ECE76FF05704F1E7E5
:1017F000631E16AA134413F8403CFF2BEED1062CAF
:10180000ECDD251F2A460DF1190102A811F058F947
:10181000E11E022206AB194401A811F051F9294634
:1018200002A80FF05FFA9DF804209DF8053043EA06
:101830000223984211D015238DF800309DF809300D
:101840008DF801300A238DF8023003216846FFF736
:10185000C5FE064B00221A70C0E702A8FFF762FF20
:10186000BCE700BFA40E0020C00E0020742F002093
:1018700070B586B02B4C6569E3682B4AFF212B4875
:1018800004F0F2FAE3682A4AFF212A4804F0ECFA4D
:10189000E368294AFF21294804F0E6FAE368284A68
:1018A000FF21284804F0E0FA01A9E8B203F02EFA7B
:1018B000002834DB019810F07BFF204604F090FDF7
:1018C00000282CDB02A9E06804F02AFD1E4B1C60F6
:1018D0001E4B00241C605C609C601D4E314613480A
:1018E00004F0B6FC1B4D28601B4B1C605C609C60C8
:1018F0003146104804F0ACFC6860184B1C605C601A
:101900009C6031460D4804F0A3FCA860144B1C6099
:101910005C609C6031460B4804F09AFCE86006B0BD
:1019200070BD00BF340000201860010010120020BC
:101930002860010010110020346001001013002005
:101940004060010010100020F00F0020E40F002084
:10195000C40E002000100020D80F0020F40F00203B
:10196000CC0F0020F8B503282DD8DFE800F00216D0
:101970000C11154F01261549154D1322284604F068
:101980003FFB002415E0134F2B261349134DF4E7BA
:10199000134F02261349144DEFE7144F2B26144919
:1019A000144DEAE7042207EB8401284604F0FCFB0F
:1019B0000134A642F6DC00221146284604F01EFC43
:1019C000284604F09BFBF8BD1014002010120020E4
:1019D000E40F00206815002010130020F40F0020F1
:1019E000B414002010100020CC0F0020BC140020E4
:1019F00010110020D80F0020F8B5032831D8DFE8F7
:101A000000F002180E131C4F01261C491C4D132216
:101A1000284604F0F5FA002810DB002417E0194FDF
:101A20002B261949194DF2E7194F022619491A4D6B
:101A3000EDE71A4F2B261A491A4DE8E7002418E063
:101A4000042207EB8401284604F084FB0134A642FB
:101A5000F6DC00221146284604F0D0FB284604F0AC
:101A60004DFBF8BD042207EB8401284604F09CFBE3
:101A70000134A642F6DCECE710140020101200201E
:101A8000E40F00206815002010130020F40F002040
:101A9000B414002010100020CC0F0020BC14002033
:101AA00010110020D80F002008B50B6801330B601F
:101AB000014B1B68984708BD58010020014B186076
:101AC000704700BF5801002000B583B002460B46A6
:101AD0000021019101A9034800F0C8F803B05DF8A6
:101AE00004FB00BFA91A000010B584B004460190A1
:101AF00002910021039101A9054800F0B7F8039B6A
:101B0000029A934201DA0022E254039804B010BD15
:101B10009D0D01002DE9F04383B0044608461546AB
:101B2000238B13F0080F05D103F007060023009361
:101B3000019369E0012909D043F02003238385F351
:101B40001188BFF36F8F03B0BDE8F08343F010033B
:101B50002383F4E720460FF07CF957E0D4F8149083
:101B60004A46694620460FF08DF900275AE023695E
:101B70001F68062120460FF045F94FF0000951E09B
:101B800023695F68042120460FF03CF94FF00009FB
:101B900048E023699F68052120460FF033F94FF094
:101BA00000093FE0002246E0002244E043F0080341
:101BB000238385F31188BFF36F8F002944D1009BE5
:101BC0002BB14B464246694620460FF0D1F917B17A
:101BD00025492046B8474FF02003EFF3118583F3E2
:101BE0001288BFF36F8F238B23F008032383238B8B
:101BF00013F0100F2ED023F0100323830120268B27
:101C000006F0070600289AD00228A3D0002896D014
:101C10000128A3D00328AAD00428B1D00528B8D021
:101C20000027B946238B03F00708B045BAD0A26855
:101C3000002AB9D001221146002AB7D1009A002A01
:101C4000B4D1002FB2D1D2E74A46414620460FF028
:101C5000E1F8B4E713F0200F04D023F0200323832E
:101C60000220CCE70020CAE79F0F01002DE9F04FCA
:101C700093B006460D469246039300249AF800005E
:101C8000002800F0D684252808D00AF1010A294648
:101C9000B0470028C0F2CE840134EFE7002306935A
:101CA00007930B93089309930A930AF101089AF892
:101CB0000130252B01D001272CE00AF102088DF814
:101CC0002330A8E19DF8203043F004038DF8203044
:101CD000FFB108F101081CE09DF8203043F0080333
:101CE0008DF82030F4E79DF8203043F010038DF894
:101CF0002030EDE79DF8203043F020038DF82030B0
:101D0000E6E79DF8203043F040038DF82030DFE710
:101D100000274FB398F80030203B102BF8D801A2D1
:101D200052F823F0E71C0000111D0000111D0000F7
:101D3000F51C0000111D0000111D0000111D000008
:101D4000111D0000111D0000111D0000111D0000DB
:101D5000D91C0000111D0000C51C0000111D000051
:101D6000111D0000031D00009DF8203003F0440306
:101D7000442B6DD0CDF814809DF8203043F08003C3
:101D80008DF8203098F800302A2B68D005A80FF085
:101D900063FD059B984512D09DF8203043F08003E9
:101DA0008DF820300990C3F34003002860DB002247
:101DB00013439DF8202063F341028DF82020059BFA
:101DC00005931B782E2B14BF002301239DF821209F
:101DD00063F341028DF82120002B4BD0059B5A1C48
:101DE00005925B782A2B48D005A80FF035FD0A90A4
:101DF0009DF82030C3F34003002847DB0022134343
:101E00009DF8202063F341028DF82020DDF8148036
:101E100098F800304C3B2E2B00F2DC80DFE803F01A
:101E2000CADADADADADADADADADADADADADADADA22
:101E3000DADADADADADADADADADADADA38DA6ADA14
:101E400051DADADADADADADAC0DADADADADAB60093
:101E50009DF820306FF386138DF820308AE79DF8C7
:101E6000213043F001038DF8213043460133A7E7C9
:101E700001229DE7DDF81480CAE79DF8213043F088
:101E800004038DF8213002F10108C1E70122B6E711
:101E900008F1010298F80130682B08D09DF8213034
:101EA000022161F3C6038DF8213090462BE09DF8A6
:101EB0002130012262F3C6038DF8213008F10208B7
:101EC00021E008F1010298F801306C2B08D09DF850
:101ED0002130032161F3C6038DF82130904612E0D2
:101EE0009DF82130042262F3C6038DF8213008F1F9
:101EF000020808E09DF82130052262F3C6038DF840
:101F0000213008F1010818F8013B8DF82330A3F1C6
:101F10004102372A00F25081DFE812F026014E011B
:101F20004E014E012601260126014E014E014E01B1
:101F30004E014E014E014E014E014E014E014E0129
:101F40004E014E014E014E014E0113014E014E0154
:101F50004E014E014E014E014E014E0126014E0131
:101F6000130163002601260126014E0163004E0184
:101F70004E014E014E012F0113013F014E014E0152
:101F80003F014E0113014E014E0113019DF8213016
:101F9000062262F3C6038DF8213008F10108B2E78A
:101FA0009DF82130072262F3C6038DF8213008F135
:101FB0000108A8E79DF82130082262F3C6038DF8D6
:101FC000213008F101089DF8203043F002038DF81C
:101FD000203098E79DF821306FF3C6038DF821304B
:101FE00091E79DF82220012161F302028DF8222061
:101FF0009DF8212002F07802402A00F0AA80632B8D
:1020000000F0AE809DF82030C3F34002174367F321
:1020100041038DF820309DF8213013F0010F00F0BE
:10202000DA80039B1A1D03921F68002FC0F2CB8039
:102030009DF8213013F0040F00F0DF80039B1A1D80
:102040000392D3F800B0BBF1000FC0F2CD800023A3
:1020500009930A939DF8223003F007039DF821109D
:10206000C1F3C301012B00F0D180022B00F01681D7
:10207000042B00F06781032B00F07E819DF82090F7
:1020800019F00303029340F07D819DF82330253B36
:10209000532B00F23382DFE813F081013102310269
:1020A0003102310231023102310231023102310298
:1020B0003102310231023102310231023102310288
:1020C0003102310231023102310231023102310278
:1020D0003102310231023102310231023102310268
:1020E0003102310231023102310231023102310258
:1020F0003102310231023102310231023102310248
:10210000C7013102310231023102310231023102A2
:10211000310231023102A101AB013102310231023F
:102120003102AB0131023102310231020802C70132
:10213000EA01310231028F013102C701310231025D
:10214000C7019DF82220022161F302028DF82220AE
:102150004EE79DF8201041F001018DF820104EE768
:10216000171E18BF01274DE79DF82230042262F3A5
:1021700002038DF82230012744E79DF82230032224
:1021800062F302038DF822309DF8213003F07803CA
:10219000402B7FF437AF012734E79DF8223003222C
:1021A00062F302038DF822309DF8213013F0780F8E
:1021B0003FF428AF012725E79DF8203043F00103C5
:1021C0008DF820301EE79DF8203043F004038DF891
:1021D00020307F422CE79DF92030002B02DB4FF0AE
:1021E000FF3725E7099F23E79DF821306FF341036F
:1021F0008DF821304FF0FF3B29E713F0020F02D09A
:10220000DDF828B023E74FF0FF3B20E7CB1E042B7F
:1022100004D8DFE803F00B1D29353500039B1A1D98
:1022200003921A68D317CDE9062306E0039B1A1D13
:1022300003921A68D317CDE90623012928D0022971
:102240007FF41CAFBDF91820D317CDE9062315E79D
:10225000039B073323F0070303F108020392D3E93A
:102260000023CDE90623E8E7039B073323F00703A8
:1022700003F108020392D3E90023CDE90623DCE74A
:10228000039B1A1D03921A68D317CDE90623D4E7DE
:102290009DF81830069300230793EFE6CB1E042B1E
:1022A00004D8DFE803F00B1F35414100039B1A1DE2
:1022B00003921B680693002307931EE09DF82330CA
:1022C000632B07D0039B1A1D03921B680693002300
:1022D000079312E0039B1A1D03921B6806930023C9
:1022E00007930AE0039B073323F0070303F1080277
:1022F0000392D3E90023CDE9062301291CD002294A
:102300007FF4BCAEBDF81830069300230793B5E602
:10231000039B073323F0070303F108020392D3E979
:102320000023CDE90623E8E7039B1A1D03921B68EF
:10233000069300230793E0E79DF8183006930023E7
:1023400007939BE608290BD0039B073323F0070371
:1023500003F108020392D3E90023CDE906238DE6B9
:10236000039B073323F0070303F108020392D3E929
:102370000023CDE9062381E6039B1A1D03921B6807
:1023800006937BE643465246294630460FF0E1FA73
:102390000028C0F24F810444C2466FE4294625203C
:1023A000B0470028C0F246810134DDF808900DF1F5
:1023B000460B4FF0000AA7E0DDF818A0BBF1000FB4
:1023C00008DB5946504610F035FB0AEB000BDDF8F0
:1023D000089099E0504610F025FBF6E7069B8DF833
:1023E0003030DDF808900DF1310B0DF1300A8BE043
:1023F00019F0080F05D119F0100904D04FF0200989
:1024000001E04FF02B09DDE90623002A73F10001FA
:1024100002DBCDE9062309E0524263EB4303CDE939
:1024200006234FF02D0901E0DDF808900DF1460379
:1024300000930CAB08AADDE906010FF020FA8246F2
:10244000BBF1000FC0F290800DF14603A3EB0A032D
:102450009DF820206FF386128DF820209B4540F2D6
:102460008680ABEB030309930DF1460B4CE0069815
:1024700030B9DDF80890DFF8C4B1ABF1050A43E0EC
:102480000DF1460300930CAB08AA00210FF0F7F9F9
:1024900082469DF8223043F010038DF822307823D5
:1024A0008DF82330DDF80890CAE7069A9DF82130B0
:1024B000C3F3C303072B06D8DFE803F0040C0E10A8
:1024C00012171C1E1460DDF808900DF1460B4FF03A
:1024D000000A19E01470F6E71480F4E71460F2E7DC
:1024E0002046E117C2E90001EDE72046E117C2E905
:1024F0000001E8E71460E6E71460E4E7DDF808901F
:102500000DF1460B4FF0000ABAF1000F00F08E807B
:10251000ABEB0A02B9F1000F00D001329DF8221096
:1025200011F0100F26D00232099B134411F0400F16
:1025300001D00A9A1344002F32DDFF1A9DF8203093
:1025400013F0040F2CD113F0400F18D0B9F1000F85
:1025500018D029464846B04700286BDB0134DDF827
:102560000890302302930FE00DF1460BCCE70DF1FC
:10257000460BC9E711F0080FD6D00132D4E720236B
:10258000029301E0302302933B465F1E002B07DDE0
:1025900029460298B04700284CDB01343B46F4E75B
:1025A000B9F1000F05D029464846B047002841DB65
:1025B00001349DF82230C3F30012C3F3C003134368
:1025C00005D029463020B047002833DB01349DF880
:1025D000223013F0100F06D029469DF82300B04793
:1025E000002827DB0134099B03F1FF39002B07DDAD
:1025F00029463020B04700281CDB01344B46F3E766
:102600005B465246294630460FF0A3F9002811DBFD
:102610000444002F07DD29462020B047002809DBAD
:102620000134013FF5E7C246FFF728BBC246FFF77A
:1026300025BB204613B0BDE8F08F00BF5D600100F0
:10264000054B984204D3054B984203D300207047B2
:102650000020704701207047B85B0100A878010096
:1026600008B5064B186018B1054B1B68092B00DC38
:1026700008BD04480DF0F0F8FAE700BF441600204A
:10268000141600203C04002008B502480DF0E4F8C0
:1026900008BD00BF3C04002008B503480FF086FACF
:1026A000003818BF012008BD2016002030B589B0C1
:1026B00000220F490F4813F02DFA0F4D002200237E
:1026C000CDE90623002404940E230393029401947D
:1026D00000940A4B4FF440720949284612F0B2FEAA
:1026E000084928460CF0CAFE204609B030BD00BF9C
:1026F000892600004005002078050020992D000063
:10270000403100206060010008B500230B4A1370BF
:102710000B4A13600B4B0C4A1A604FF4004000F058
:10272000BBFD00F09FFB09480FF032FA042328227A
:102730000749084812F023FE08BD00BF762F00208D
:10274000181600205C010020C51B01002016002087
:10275000C057002028160020184BBFF35B8F53E8AA
:10276000002F511C43E800100028F8D1BFF35B8F05
:102770001ABB70B5002409E0114B03EB06135B682C
:1027800004221968284600F04BFB01340D4B0C4A1B
:102790009B1AB4EB231F0FDA2646094D05EB0415EF
:1027A0002B7B002BF1D02301054AD3589B69002BCA
:1027B000E2D028469847DFE770BD70471C1600201E
:1027C000305F0100505F010010B54FF02003EFF3C0
:1027D000118483F31288BFF36F8F04480FF0E8F978
:1027E00084F31188BFF36F8F10BD00BF2016002047
:1027F00008B5054B1B781BB1034B01221A7008BDAD
:1028000002480DF029F8F7E7752F00203C0400205E
:102810000C4BBFF35B8F53E8002F013243E80021DC
:102820000029F8D1BFF35B8F074BBFF35B8F53E8F1
:10283000002F013A43E800210029F8D1BFF35B8F54
:10284000704700BF1816002014160020064B002009
:102850000246BFF35B8F53E8000F43E800210029D5
:10286000F9D1BFF35B8F70471816002038B5FFF71A
:10287000EDFF0546002400E001340B4B0B4A9B1A88
:10288000B4EB231F0FDA094800EB041043685B79AF
:10289000002BF1D02301054AD3581B69002BEBD044
:1028A00029469847E8E738BD505F0100305F0100D6
:1028B000034B18680028D4BF00200120704700BFD8
:1028C0001816002010B582B00446FFF7B9FE10BB01
:1028D0000022002301A911480CF07AFD08B1104C28
:1028E00019E0019B0122BFF35B8F53E8001F43E80F
:1028F00000200028F9D1BFF35B8F1F2221460198E9
:10290000043010F069F8019C7E2384F82330002302
:1029100084F824300434204602B010BD281600206C
:102920006860010038B1074A904206D3A032904255
:1029300005D3002070470020704700207047012019
:10294000704700BFC0570020037A13F0010F00D07A
:1029500070472DE9F04383B006460FF014FA07469E
:1029600030460FF0FBF9014638460FF02FF90546C7
:1029700004E0012303FA04F425EA04056DB3B5FA73
:1029800085F4C4F11F04214630460FF0EAF9814670
:10299000FFF756FE0028ECD14846FFF7C3FF00289A
:1029A000E7D10F4B9945E4D07189C1F3891100F04B
:1029B00027FA02460B4B0C495B1ADB08012161F335
:1029C00002086FF3C50863F38F18ADF800803B462B
:1029D0002146064800F0B2F8CBE703B0BDE8F0832B
:1029E00068600100D85E0100A85E010084600100FB
:1029F000F8B5064619BB144B1B780BB1002403E055
:102A0000FFF7A2FFFAE70134104B114A9B1AB4EB0F
:102A1000231F14DA0E4D05EB04156B685B79002B50
:102A2000F1D0314628460FF0CBF80028EBD0270133
:102A3000074BDB595B68314628469847E3E7304649
:102A40000FF0A3F9F8BD00BF762F0020505F010002
:102A5000305F010010B50446104B1B7803B9C8B1B4
:102A6000FFF7B2FE024678B10D4BBFF35B8F53E820
:102A7000001F013943E800100028F8D1BFF35B8F35
:102A800021461046FFF7B4FF14B9FFF711FF10B944
:102A9000FFF702FE10BDFFF7E9FEF9E7752F0020F2
:102AA0001416002010B582B01F4BBFF35B8F53E8A4
:102AB000002F013243E800210029F8D1BFF35B8FDA
:102AC0001A4B1B7863B91A4B1B681BB1164A126864
:102AD000012A15D0144A12680A2A1CD002B010BD6F
:102AE0004FF02003EFF3118483F31288BFF36F8F4D
:102AF0000020FFF7AFFF84F31188BFF36F8FEDE77E
:102B000000220023CDE900234FF4004200230948AE
:102B10000DF05AFEE2E7002BE0D0064813F006F86D
:102B200005480CF099FED9E714160020762F0020F6
:102B300044160020400500203C0400202DE9F0410F
:102B400080460F4616461D4600F0B0F9044640B1D7
:102B500001234360002202814FF0000362F300036F
:102B600003724CB1C4F81080637A032262F3071336
:102B700063726761A661E561C4B1BDF81830638115
:102B80000B4B1B689847E0604FF02003EFF3118573
:102B900083F31288BFF36F8F214606480EF0FCFFC7
:102BA00085F31188BFF36F8FFFF77CFFBDE8F081DD
:102BB0005C01002020160020F8B506460D46174699
:102BC00000F074F9044640B1012343600021018103
:102BD0004FF0000361F30003037234B12661637A9E
:102BE000012262F3071363726561B4B167810B4B15
:102BF0001B689847E0604FF02003EFF3118583F3E3
:102C00001288BFF36F8F214605480EF0C5FF85F38C
:102C10001188BFF36F8FFFF745FFF8BD5C010020FF
:102C2000201600202DE9F04107460E46154698462D
:102C300000F03CF9044640B10123436000220281C8
:102C40004FF0000362F3000303723CB12761637A23
:102C5000022262F3071363726661A561BCB1A4F836
:102C60000A800C4B1B689847E0604FF02003EFF39D
:102C7000118583F31288BFF36F8F214606480EF04B
:102C80008BFF85F31188BFF36F8FFFF70BFFBDE854
:102C9000F08100BF5C0100202016002038B51C46E2
:102CA0000FF0B7F8B8B1054644810B4B1B68984745
:102CB000E8604FF02003EFF3118483F31288BFF331
:102CC0006F8F294605480EF067FF84F31188BFF324
:102CD0006F8FFFF7E7FE38BD5C0100202016002053
:102CE00070B505460E4600F0E1F8044640B10123F8
:102CF0004360002202814FF0000362F3000303727D
:102D000004B12561B4B166810B4B1B689847E06044
:102D10004FF02003EFF3118583F31288BFF36F8F19
:102D2000214606480EF038FF85F31188BFF36F8FF8
:102D3000FFF7B8FE70BD00BF5C0100202016002028
:102D4000124B1B7803B1704710B5FFF705FD002447
:102D500000E001340E4B0F4A9B1AB4EB231F0CDA30
:102D60000C4800EB041043685B79002BF1D0230181
:102D7000084AD3585B699847EBE70020FFF76AFEE3
:102D80000028FAD1014B01221A7010BD762F0020C5
:102D9000505F0100305F010008B5FFF7DDFC0DF06A
:102DA000F9FAFFF75DFC06E04FF0FF324FF0FF331A
:102DB00004480CF075FD0020FFF74CFE0028FAD106
:102DC000F2E700BF3C04002000B583B00438019056
:102DD000BFF35B8F50E8003F5A1E40E800210029F6
:102DE000F8D1BFF35B8F012B02D003B05DF804FB79
:102DF00001A9024812F0D1FAF7E700BF2816002017
:102E0000054B064A9B1AB1EBD30F02D252F83100A0
:102E100070470020704700BF305F0100A85E0100CE
:102E200008B5074BC31A1B1101334268137143687D
:102E30001960436801225A71FFF7DAFC08BD00BF30
:102E4000305F010010B582B00190019B33B11C6866
:102E500001A9034812F0A1FA0194F6E702B010BDEF
:102E60004816002008B520231A460249024812F0ED
:102E700086FA08BD605800204816002010B582B0C0
:102E8000002301930120FFF7E5FD0446FFF7C0FC96
:102E90000022002301A904480CF09AFA08B1002C82
:102EA000F0D1019802B010BD4816002000B583B0E3
:102EB000002301930EF0ABFE50B10022002301A9C4
:102EC00007480CF085FA30B9019803B05DF804FBAF
:102ED00000220023F3E7FFF7D1FF0190F4E700BFE2
:102EE00048160020F0B583B0019004460EF036FF7E
:102EF000237A13F0010F01D1064650BB019B1A7AC9
:102F000012F0020F28D101A9154812F046FA03B0B9
:102F1000F0BD01980EF037FF31460EF057FE074620
:102F200088B9EBE72846FFF74FFF0134B442E5D2FA
:102F3000214601980EF015FF0546FFF7F3FC002827
:102F4000F3D0002FE5D027FA04F313F0010FECD0F3
:102F5000E8E700273C46E9E75869FFF773FFD2E747
:102F6000481600200EB400B582B0014603AB53F8FA
:102F7000042B01930348FEF779FE02B05DF804EBE1
:102F800003B07047B3210100F0B585B011F0440FD4
:102F900005D01A4B1C6834B9002005B0F0BD1849A3
:102FA000FFF7E0FFF9E7174B1968B2FBF1F1B1FB4E
:102FB000F4F5154AA2FB0532D20A4FF4616606FB0E
:102FC0001256124BA3FB06735B0904FB15114FF459
:102FD0007A7505FB01F1B1FBF4F707FB141105FB52
:102FE00001F1B1FBF4F402940197C3EB0311A6EBDA
:102FF000810100910649FFF7B5FFCEE76416002076
:10300000C860010068160020C5B3A291898888882D
:10301000D460010061B108B52AB1064A52F82320F4
:1030200012B9054A00E0044A0449FFF79BFF08BDB6
:10303000704700BF44610100F06001005C6E010058
:1030400011F0100F0BD108B511F0200F03D0044977
:10305000FFF788FF08BD0349FFF784FFFAE77047D1
:10306000C06B0100847801002DE9F04105460F4650
:10307000164698460699FFF7E3FF0024444505DA13
:1030800023492846FFF76EFF0134F7E7002409E0E3
:103090001F492846FFF766FF0BE01E492846FFF749
:1030A00061FF01340F2C0CDC002C02DD14F0070F43
:1030B000EED0B442F1D23A5D17492846FFF752FFED
:1030C000EFE716492846FFF74DFF002409E01049B5
:1030D0002846FFF747FF0BE011492846FFF742FF5C
:1030E00001340F2C12DC002C02DD14F0070FEED09F
:1030F000B44206D23A5DA2F120035E2BECD92E2217
:10310000EAE703492846FFF72DFFE9E7BDE8F0812C
:103110001C61010000610100F86001000461010010
:10312000086101002DE9F041804616461D46BDF9B3
:10313000187059B90024002F1CDB86B10123079AAF
:10314000934013F0100F18D10D4E09E00D4B079A64
:1031500053F822200C49FFF705FF0446EBE7084E21
:1031600039462846FFF74CFE024631464046FFF7F7
:10317000F9FE04442046BDE8F081044EF0E700BFAC
:103180000C610100806101001861010014610100FF
:103190002DE9F04389B007460E46914698460EF059
:1031A000F2FD02460E493046FFF7DCFE00241025F2
:1031B0000395234603AA0DEB050138460EF03DFEAC
:1031C000039A52B1CDF800804B460DEB0501304615
:1031D000FFF74AFF039D2C44E9E709B0BDE8F083FF
:1031E0005C6E0100F0B583B006460C4600273D46F4
:1031F0000DE0A268134413F8017C0A2F14BF0027C6
:10320000012720460EF0C8FF019B1D4473B1E368FF
:1032100001932B4601AAA16830460EF00EFE6368AA
:10322000019A1A60019B002BEBD0E2E70FB903B0C3
:10323000F0BD02492046FFF795FEF8E72061010046
:1032400070B582B00446056842F20F738B4228BF06
:103250000B460E4A052168460DF0C6FD064663681A
:103260005B680B220A4928460EF0EFFD63685B6835
:103270003246694628460EF0E8FD63685B681B220B
:10328000044928460EF0E1FD02B070BDAC700100AB
:103290007461010058610100074B01221A60074B5D
:1032A000984205D94008044A13685B001360F6E7AA
:1032B000034B1860704700BF6816002040420F00A3
:1032C0006416002070B506460D460024AC4207D2B5
:1032D000044B1868315D83685B6898470134F5E7F3
:1032E000284670BD80160020014B024A1A607047C4
:1032F00080160020985C010008B502480EF04CFFD3
:1033000008BD00BFC461010008B50248FFF798FF7F
:1033100008BD00BFC461010010B50C4608460EF0A0
:1033200010FD0F22214603480EF05FFF20460EF0ED
:103330002CFD10BDC4610100014B01221A707047C1
:10334000782F002008B518B9084B00221A7008BD64
:10335000074B1B7823B141F2883012F0A5FBF6E74A
:10336000A42000210CF0B6FFF1E700BF782F002069
:10337000792F002038B504460A4B01221A700A4BF7
:103380001B7803B938BD00200BF0D0FD0028F9D020
:10339000044B1B78002BF5D0651E2046FFF7D2FFAB
:1033A0002C46F0E7782F0020792F00202DE9F041FE
:1033B00006460D4604270DE02A46314600200BF054
:1033C00051FD04461CE03846FFF7D4FF1CBB164BEA
:1033D0001B7803B3154B1B78002BEDD1DFF8508021
:1033E0004FF0FF324FF0FF3340460CF02BF92A46E6
:1033F000314600200BF036FD044640460CF0ACF997
:10340000002CE0D1084B1B78002BDFD0013F384661
:10341000FFF798FFDAE714B9034B1B7803B92C4682
:103420002046BDE8F08100BF782F0020792F0020D2
:103430000004002008B5034B01221A7002480EF068
:10344000ABFE08BD792F00200062010008B50248DC
:10345000FFF7F6FE08BD00BF0062010010B50C4684
:1034600008460EF06EFC0F22214603480EF0BDFE0A
:1034700020460EF08AFC10BD00620100072801D929
:1034800000207047024B184480F8BB1001207047A1
:10349000A8160020072801D900207047024B1844C5
:1034A00090F8BB00704700BFA816002010B5037845
:1034B000C3F341130A33064C54F8233023B1984721
:1034C000002803DB012010BD0020FCE70020FAE704
:1034D000A81600200A30024B43F82010704700BFA6
:1034E000A8160020014B5862704700BFA8160020A4
:1034F000F0B447883D0A2B1FDBB2012B1ED9FFB267
:10350000072D1ED8104B5B6A002600E00344187894
:1035100038B15C78AC42F9D1B74201D00136F5E759
:10352000012060B11360022D02D01B780B6006E011
:103530009A78DB7842EA03230B6000E00020F0BCBD
:1035400070470020FBE700BFA8160020F8B58446AE
:103550000E460C4B5B6A176800E013441A7872B190
:103560005C78042CF9D1987885B2BCF80440A54267
:10357000F3D1FFF78FFF38700120306000E00020AA
:10358000F8BD00BFA8160020034B93F8BA0000381E
:1035900018BF0120704700BFA8160020074B5B6AC8
:1035A00000E013441A783AB159780229F9D119790F
:1035B0008142F6D90120704700207047A8160020EC
:1035C00070B4164B164A9B1A9B10164E06FB03F658
:1035D00030F080031DD00024B44218D204EBC402A2
:1035E0000F4B03EB8202156A002304EBC4020C4963
:1035F00001EB8202127F9A4207D905EBC3021279CE
:10360000824208D00133DBB2EFE70134E4E7002067
:1036100002E0012000E0012070BC7047400500205E
:103620001C050020398EE338014B9861704700BFBC
:10363000A8160020014BD861704700BFA8160020D3
:103640002DE9F0410646144B144AA3EB02084FEA59
:10365000A803134A02FB03F80025454518D205EBE1
:10366000C5030E4A02EB83031F6A002405EBC50362
:103670000A4A02EB83031B7FA34207D907EBC4006E
:10368000B047002805DB0134E4B2EFE70135E4E799
:103690000020BDE8F08100BF400500201C0500208F
:1036A000398EE338F8B5134F134BFF1ABB10134F85
:1036B00007FB03F7002300E00133BB4216D203EB04
:1036C000C3040D4D05EB840466680D4C646AA64284
:1036D000F2D303EBC30405EB84042469002CEBD084
:1036E000B6780579AE42E7D1A04701E06FF08500DA
:1036F000F8BD00BF400500201C050020398EE338CE
:10370000A81600202DE9F843074688469146194E31
:10371000194BF61AB310194E06FB03F6002405E008
:103720004A4641463846A84721E00134A6421CD902
:1037300004EBC403104D05EB83035B68104A526A27
:103740009342F2D304EBC40205EB82029569002D8B
:10375000EBD099783A799142E2D05B79012BE4D1B0
:103760004A4641463846A847DFE76FF08500BDE886
:10377000F88300BF400500201C050020398EE33887
:10378000A81600202DE9F843814688461746104EBA
:10379000104BF61AB310104E06FB03F6002400E09F
:1037A0000134A6420FD904EBC4030A4D05EB830391
:1037B0005B69002BF4D03A46414648469847034699
:1037C0000028EDD101E06FF085031846BDE8F883CD
:1037D000400500201C050020398EE33870B582B00A
:1037E0000D4604798DF807402046FFF7E9FE0646AE
:1037F00030B134F0800306D0FFF7C6FE18B9064694
:10380000304602B070BD5DB1204604F035FA0A4B77
:10381000DB69002BF4D00DF1070108209847EFE792
:10382000204604F06FFA044BDB69002BE8D00DF161
:10383000070109209847E3E7A816002000B583B0E8
:1038400083788DF800308388ADF80230C37803F0B8
:1038500003038DF80430684604F0D0F910F1780FB6
:1038600000D070B99DF8000004F096FA10F1780FBE
:1038700000D0D0B90120174B83F8B90003B05DF830
:1038800004FB154B154A9B1ADB084FF0000201217F
:1038900061F302026FF3C50263F38F129DF800100B
:1038A0000F48FFF789F90020E8E70B4B0B4A9B1AFA
:1038B000DB084FF00002012161F302026FF3C50241
:1038C00063F38F129DF800100648FFF775F900208A
:1038D000D4E700BFA8160020185F0100A85E010011
:1038E000106201003462010008B50822002102487C
:1038F0000FF00AF908BD00BF631700202DE9F04161
:103900000546234B5C6A43881BB10027FF26B0465F
:1039100010E0FFF7E9FF6A881D4B83F8BA20DB69E6
:1039200013B11C4903209847012720E094F8038035
:1039300023781C442378CBB16378042BF6D0052B75
:1039400008D0022BF4D16679B2B26B889A42EFD1DB
:103950000127EDE7B3B26A889342E9D1B8F1000FCD
:10396000E6D12046FFF76AFF0746E1E717B9384678
:10397000BDE8F081FFF7B8FF6A88054B83F8BA20ED
:10398000DB69002BF3D0034903209847EFE700BF22
:10399000A81600206217002010B5146890F90030B6
:1039A000002B06DB4378052B18D0092B1DD00020F7
:1039B00010BD4378062B07D0082B08D00BB1002090
:1039C000F6E70EF051FCF3E7FFF792FDF0E7084B46
:1039D00093F8BA30237001200860E9E7807804F09A
:1039E000B7F8B0FA80F04009E2E7FFF787FFDFE7BA
:1039F000A816002010B58478204600F0CBFD2046A4
:103A000004F0F8F910F1780F15D008B9012010BDB5
:103A10000A4B0B4A9B1ADB084FF00002012161F3AD
:103A200002026FF3C50263F38F1221460548FFF7C8
:103A3000C3F80020EBE70120E9E700BF185F0100B1
:103A4000A85E0100586201002DE9F84306461B4BB1
:103A50005C6A0027FF25A846B94608E094F8038071
:103A6000A578ABB2B088834213D023781C44237866
:103A7000DBB16378042BF1D0052BF6D1ABB2B28861
:103A80009342F2D1B278414620460EF0F7FB07464A
:103A9000EBE71FFA88F371888B42E6D1C9B2C0B256
:103AA000FFF7ECFC0746A146DFE7044BDB6913B1E7
:103AB0004946072098473846BDE8F883A8160020F5
:103AC00070B504460D461646184B9B690BB19847D6
:103AD00048B1237803F01F03012B0DD0022B13D024
:103AE00013B16FF0150070BD324629462046FFF72E
:103AF00053FF88B10020F6E73246294620460EF0F3
:103B0000C6FB60B10020EEE73246294620460EF0A3
:103B10000BFC38B10020E6E76FF01500E3E76FF02B
:103B20001500E0E76FF01500DDE700BFA8160020E4
:103B3000F8B5154F154BFF1ABB10154F07FB03F7D0
:103B40000025AF421BD905EBC503104A02EB8303E6
:103B50001E6A002405EBC5030C4A02EB83031B7F9E
:103B60009C420AD206EBC40356F83410187904F0CC
:103B70005DFB30B90134E4B2ECE70135E1E7002048
:103B800001E04FF0FF30F8BD400500201C0500208B
:103B9000398EE338F8B506460F461C4D1C4BED1A1E
:103BA000AB101C4D05FB03F5042805D0331FDBB219
:103BB000012B04D9002414E0FFF796FEF6E7164B1C
:103BC00093F8B930002BF5D000F004FD042EF1D1AC
:103BD0001248FFF735FD104B002283F8B920E9E7C2
:103BE0000134AC420BD204EBC400094B03EB800060
:103BF000C368002BF4D03A4631469847F0E7064BAD
:103C00001B6A13B1394630469847F8BD400500207D
:103C10001C050020398EE338A8160020E922010097
:103C200010B582B0134B1B7DCBB9124CE2680192E8
:103C300001ABA16880200EF09AFB0199A2680A44AA
:103C4000A260E3685B1AE3608BB9E28823699A4259
:103C50000DDD13F03F0F0AD10122227507E000218C
:103C6000044B19750B460A46802004F0EDF802B0AB
:103C700010BD00BFA816002010B584B00023039328
:103C8000044600B931B3002C40F09480504BDA6800
:103C9000002A77DD03AB4E49896800200FF0BBFA9C
:103CA00000287CDB03984A4A916801449160D368FC
:103CB0001B1AD360002B7FD1104602F1380342F863
:103CC000083F00F11001FFF7F1FB00286ED0FFF76D
:103CD000A7FF71E0082201A90FF09DFA00282EDB52
:103CE0009DF804003A4B18709DF805205A70BDF8F5
:103CF00006205A80BDF808209A80BDF80A10D980A5
:103D000003F138029A6000221A751A61DA6010F025
:103D1000800F02D1802916D861BB2D4800F108021E
:103D200000F11001FFF7C2FB40B3294BDA88196993
:103D30008A42A8BF0A46DA60FFF772FF3CE08020A3
:103D400003F09AFF38E0234B234A9B1ADB084FF01D
:103D50000001012262F302016FF3C50163F38F11C9
:103D60001E48FEF7BDFF802003F086FF002003F011
:103D700083FF21E0164B1961D9601DE0802003F01C
:103D80007BFF19E003AB00221149896810460FF050
:103D900042FA002810DA802003F06EFF0CE0802049
:103DA00003F06AFF002003F067FF05E0802003F0C6
:103DB00063FF01E0802C01D004B010BD044BDB6830
:103DC0001BB9034B1B7D002BF6D0FFF729FFF3E750
:103DD000A8160020185F0100A85E01007C620100A7
:103DE00008B5FFF77FFB08490020FFF773FB074981
:103DF0000120FFF76FFB06490220FFF76BFB054828
:103E0000FFF712FC002008BDC13A0000A5360000F3
:103E1000853700000537000008B5104B93F8B8301F
:103E20000BB1002008BD00F0D7F918B1FFF7D8FF9B
:103E30000020F7E70A4B0B4A9B1ADB084FF0000102
:103E4000012262F302016FF3C50163F38F1106488B
:103E5000FEF746FF4FF0FF30E4E700BFA816002052
:103E6000185F0100A85E01009862010030B583B0C0
:103E700005464FF0FF324FF0FF332D480BF0E2FBC9
:103E80002C4B93F8B830002B4AD101200EF0F4F9F6
:103E9000041E46DB274B1D62274C2046FFF7CAFB5A
:103EA000204604F0D7F903F00BFE041E39DB00F0C6
:103EB000BDFB041E35DB4023ADF8023000238DF836
:103EC00004308DF80030684603F098FE041E28DBAD
:103ED00080238DF80030684603F090FE041E20DB3E
:103EE0001649002004F0A2F9041E1ADB13498020B1
:103EF00004F09CF9041E14DBFFF71AFE041E10DB0D
:103F0000002003F049FF041E0BDB802003F044FF78
:103F1000041E06DB074B012283F8B820002400E0D2
:103F2000002403480BF018FC204603B030BD00BF4E
:103F300028040020A8160020953B0000793C0000D2
:103F400010B40E4C0E4BE41AA3100E4C04FB03F4F9
:103F50000023A3420ED203EBC302094901EB820204
:103F60005268824201D00133F3E703EBC30301EB54
:103F7000830000E0002010BC704700BF4005002017
:103F80001C050020398EE33830B58BB001AC1B4DD9
:103F90000FCD0FC42B6823701022002106A80EF04D
:103FA000B3FD1222002116480EF0AEFD102106A826
:103FB0000FF07CFA00281DDD083820EAE0740022AA
:103FC00016E0A3180AA90B4413F8103C51000AA8E4
:103FD00000EB131010F8245C094800F8125003F0AD
:103FE0000F0301310AAD2B4413F8243C4354013232
:103FF000072AE6DD02480BB030BD00BFCC620100ED
:104000006C17002070B50446FFF7BEFF20B10546CF
:104010000EF008FD064600B970BD0E480EF002FD18
:10402000864210D00C4B0D4A9B1ADB084FF0000162
:10403000012262F302016FF3C50163F38F11084897
:10404000FEF74EFEE8E732462946A01C0EF038FD8A
:10405000E2E700BFCC620100105F0100A85E010032
:10406000E06201002DE9F04182B004464FF00113F7
:10407000019300252F46A8462E4662E0E378002BE8
:104080005DD1A3784BB92046FFF75AFF804638B17F
:10409000836813B13946204698470137FFB24EE096
:1040A000464B474A9B1ADB084FF00002012161F39F
:1040B00002026FF3C50263F38F1221464148FEF7F7
:1040C0007BFD4FF0FF3073E0B8F1000F18D001AA6C
:1040D000414620460EF07EF988B3384B384A9B1A89
:1040E000DB084FF00001012262F302016FF3C5010A
:1040F00063F38F113448FEF7F3FD4FF0FF3057E0C4
:104100002E4B2F4A9B1ADB084FF00001012262F36D
:1041100002016FF3C50163F38F112C48FEF7E0FD38
:104120004FF0FF3044E0032D20D01DBB36B3A31B5E
:10413000B370C3F30723F37037710135EDB2237801
:104140001C4423787BB36378052BF8D801A252F87E
:1041500023F000BF274100003F410000A3410000C1
:10416000274100007D400000C94000002046FFF7C5
:1041700049FFDAE720460EF019F9DEE70F4B104A47
:104180009B1ADB084FF00001012262F302016FF37A
:10419000C50163F38F110E48FEF7A2FD4FF0FF300B
:1041A00006E02646CBE7A01C0A4B984203D100202C
:1041B00002B0BDE8F081FFF755FFF9E7105F01009D
:1041C000A85E01002C630100906301004C630100B4
:1041D000B06301001B05002008B50C48FFF742FF43
:1041E00008B90A4808BD0A4B0A4A9B1ADB084FF077
:1041F0000001012262F302016FF3C50163F38F1125
:104200000548FEF76DFD0020ECE700BF5C040020D0
:10421000105F0100A85E0100D0630100002300E0F0
:104220000133032B0CDC9A0106498A5C8242F7D1E8
:1042300001EB83125268002AF2D001EB8310704721
:1042400000207047801700202DE9F04182B004461D
:1042500010F82C5C50F8283C13F1100F0CD10369B6
:1042600013F0020F62D050F8202C82BB13F0040F21
:1042700026D0002344F8283C54F8283C13F1100FB2
:104280001BD054F8186CC6B154F81C7C54F8148C2C
:1042900011F0C1F8002840F08F80002344F8183C4A
:1042A000A4F110000BF0D8FA54F8283C13F18C0F4D
:1042B00003D0424639462846B04702B0BDE8F081F7
:1042C00000231A46194628460EF051F8D1E701ABF3
:1042D00050F8241C28460EF04AF8014680B954F8DC
:1042E000243C019A134444F8243C54F8203C9B1A83
:1042F00044F8203C54F81C3C134444F81C3CBBE7F5
:10430000304A314BD21AD2084FF00003012060F33B
:1043100002036FF3C50362F38F132A462B48FEF79F
:1043200081FC6FF0150344F8283CA5E701AB50F879
:10433000202C50F8241C284603F036FE0146A0B974
:1043400054F8243C019E334444F8243C54F8203C67
:104350009B1B44F8203C54F81C3C334444F81C3C60
:10436000CEB9002344F8283C86E7164A164BD21AE9
:10437000D2084FF00003012060F302036FF3C5037E
:1043800062F38F132A461148FEF74CFC6FF01503B9
:1043900044F8283C70E7284603F062FFB6FBF0F3D0
:1043A00000FB13600028DCD154F8203C002BD8D04F
:1043B000284603F073FE5FE72146054811F031F906
:1043C0007BE700BF285F0100A85E010000640100D8
:1043D0002806002070B582B006460C46FFF71EFF87
:1043E000631EDBB2012B0AD8054650B111F013F859
:1043F00008B1012C22D105F12C00FFF725FF02B0F6
:1044000070BD012CFBD101AB01220DF1030130463F
:1044100003F0CAFD019B002BF5D10B4B0B4A9B1AF5
:10442000DB084FF00001012262F302016FF3C501C6
:1044300063F38F110648FEF753FCE0E705F12C010A
:10444000044811F0EEF8DAE7285F0100A85E0100E9
:1044500020640100280600202DE9F0470546884623
:1044600017461E460EF060F8002840F083804FF09B
:104470002003EFF3118983F31288BFF36F8F0024B9
:10448000032C10DCA00100F118033C481844043050
:10449000002200230BF004FA08B10134F0E737489A
:1044A00000EB841400E0002444B3D4F804A01AF113
:1044B000100F36D02570C4F80880E7600023236110
:1044C000089B6361E663099BA3616FF00F03636060
:1044D000284603F0C5FE002839D116F0020F44D05B
:1044E00004F12C01264811F09CF84FF0000A89F3E2
:1044F0001188BFF36F8F5046BDE8F087214B224AE9
:104500009B1ADB084FF00001012262F302016FF3F6
:10451000C50163F38F111D48FEF7E2FB6FF00B0A34
:10452000E5E7184B184A9B1ADB084FF000020121FF
:1045300061F302026FF3C50263F38F122946144838
:10454000FEF73AFB04F11C000BF086F9CFE7284692
:1045500003F086FEB7FBF0F300FB13700028BCD01D
:10456000E36B43F00403E363B7E7284603F096FDEB
:104570008246BCE76FF00F0ABDE700BF801700203E
:1045800028060020285F0100A85E01003C640100AD
:104590005864010010B54FF02003EFF3118483F34A
:1045A0001288BFF36F8FFFF739FE20B101464368D1
:1045B00013F1100F04D084F31188BFF36F8F10BD77
:1045C0006FF08B0343602C31014811F02AF8F2E7B9
:1045D0002806002038B5002411E0124BA10103EB9E
:1045E00084126FF08B0050602831194404310E485A
:1045F00011F017F885F31188BFF36F8F0134032C86
:104600000FDC4FF02003EFF3118583F31288BFF323
:104610006F8F044B03EB84135B6813F1100FE9D128
:10462000DBE738BD801700202806002070B5002683
:1046300011E00B4CB50105F1280020440949043074
:1046400010F0E9FF05F11800204404300122114662
:1046500010F0D2FF0136032EEBDD002070BD00BF4D
:10466000801700204942000070B504460E461546EA
:1046700001791E480DF024FF58B194F90020002A5A
:1046800027DB6278202A18D0222A1DD06FF08500FF
:1046900028E0174B174A9B1ADB084FF00002022153
:1046A00061F302026FF3C50263F38F12A18812480F
:1046B000FEF782FA6FF0120014E0072229680C3826
:1046C0000EF0FEF900200DE0A27800F8052C002085
:1046D00008E06278212A06D1A0F10C032B600723A1
:1046E0003360002070BD6FF08500FBE7801800206C
:1046F000085F0100A85E01009464010010B5044643
:1047000001460D480DF0F0FE18B1012200F8032C0F
:1047100010BD0A4B0A4A9B1ADB084FF00002022127
:1047200061F302026FF3C50263F38F12214605485D
:10473000FEF742FAECE700BF80180020085F010096
:10474000A85E0100BC64010008B50169012381F87D
:104750002B300B6813B191F8293003B908BD08312B
:10476000014810F05EFFF9E72806002008B501694E
:10477000012381F82A300B6813B191F8283003B96E
:1047800008BD0831014810F04CFFF9E72806002069
:1047900010B50346002480F87E4080F87F4080F802
:1047A000294080F828400A4A92E803005867A3F895
:1047B0007810090C83F87A1083F87C4083F87B40EA
:1047C0004022214603F12C000EF09EF910BD00BFDF
:1047D000C45F010070B51446066996F87E3013B1C7
:1047E00096F87F3093B11A4B1A4A9B1ADB084FF0A8
:1047F0000002022161F302026FF3C50263F38F121C
:1048000021461548FEF7D8F9002070BD002386F830
:104810002830306F0DF02EF90546844206D806F197
:1048200018010E4810F0FDFE2846EEE7084B094A35
:104830009B1ADB084FF00002022161F302026FF3C2
:10484000C50263F38F12211A0548FEF7B5F9E6E7B2
:10485000085F0100A85E0100E46401002806002052
:104860001865010070B582B0064614460D1E0FDDB6
:104870002A4604F12C01E06E0DF0FCF8854213D8B5
:10488000012384F82930236813B194F82B30EBB955
:104890000194114B00930123402204F12C01304676
:1048A000FFF7DAFD02B070BD0C4B0D4A9B1ADB0816
:1048B0004FF00002012161F302026FF3C50263F3BE
:1048C0008F12291A0748FEF777F9D9E704F1080192
:1048D000054810F0A6FEDBE765480000085F010010
:1048E000A85E0100186501002806002038B50446BE
:1048F000D0F880305D680139052906D8DFE801F07D
:10490000030506374B5FFFF743FF38BD454B464A6B
:104910009B1ADB084FF00001032262F302016FF3E0
:10492000C50163F38F114148FEF7DAF994F87E3040
:104930009BB194F82830002BE7D1012384F828306C
:104940002368002BE1D094F82A30002BDDD004F14D
:104950000801374810F065FED7E72B6A2246002190
:10496000187BFFF77FFF012384F87E30E1E72D4BB2
:104970002D4A9B1ADB084FF00001032262F302016B
:104980006FF3C50163F38F112A48FEF7A9F920469A
:10499000FFF7FEFEB9E7234B234A9B1ADB084FF0D3
:1049A0000001032262F302016FF3C50163F38F116B
:1049B0002148FEF795F9012384F87F30A5E7194BCC
:1049C000194A9B1ADB084FF00001032262F302012F
:1049D0006FF3C50163F38F111848FEF781F994F85E
:1049E0007F30002B91D00F4B0F4A9B1ADB084FF002
:1049F0000001032262F302016FF3C50163F38F111B
:104A00000F48FEF76DF9002384F87F3094F87E306C
:104A1000002B3FF47AAF2B6A22460021187BFFF768
:104A200021FF72E7085F0100A85E01003C650100FC
:104A300028060020506501006465010078650100CA
:104A40008865010070B504460D46164601460E48BD
:104A50000DF024FD28B1324629468038FFF746FF85
:104A600070BD0A4B0A4A9B1ADB084FF00002022174
:104A700061F302026FF3C50263F38F12214605480A
:104A8000FEF79AF8ECE700BF80180020085F0100ED
:104A9000A85E01009865010030B585B005694368DE
:104AA000A1228DF8042020228DF805200024ADF8E5
:104AB0000640ADF808400222ADF80A20ADF80C100F
:104AC00085F87D40186A23460A2201A900790DF075
:104AD0004EFC95F87D304BB9012010F0E5FF013414
:104AE000044B9C42F5D96FF0040000E0002005B0B3
:104AF00030BD00BFA086010010B582B08DF8071050
:104B0000046994F87E3013B194F87F308BB1284B50
:104B1000284A9B1ADB084FF00001032262F30201CE
:104B20006FF3C50163F38F112348FEF7D9F802B084
:104B300010BD002384F8283001220DF10701206FF9
:104B40000CF098FFE0B91A4B1A4A9B1ADB084FF099
:104B50000001032262F302016FF3C50163F38F11B9
:104B60001648FEF7BDF801220021206F0CF0ECFF83
:104B700060B101220DF10701206F0CF07BFF28B11D
:104B800004F118010E4810F04CFDD0E7084B094A1B
:104B90009B1ADB084FF00001012262F302016FF360
:104BA000C50163F38F110748FEF79AF8BFE700BF0E
:104BB000085F0100A85E0100BC650100DC65010022
:104BC00028060020FC65010010B51446012382F878
:104BD0002830136813B192F82A3023B9206F0CF0F3
:104BE000E5FE30B110BD02F10801054810F019FDD5
:104BF000F4E704F11801024810F013FDF2E700BFDA
:104C00002806002010B50469C4F8800004F184036C
:104C10000022C4F884200B4A526872B11360094A1A
:104C20005360094904F1080010F0F5FC074904F14C
:104C3000180010F0F0FC002010BD024A5360136011
:104C4000EFE700BF8018002059250100514C0000FB
:104C5000F0B585B00446A0F11807836E5B681B6A47
:104C60001D7D28460DF060FC08B105B0F0BD4FF485
:104C7000806203A9A06D0CF01DFF06460028F4D049
:104C800010F03F0F00D1461E0197064B0093022300
:104C9000324603992846FFF7DFFB3146A06D0CF042
:104CA00035FFE2E7C94B000030B583B0084D002462
:104CB00000944FF0FF334FF48062064928460AF013
:104CC00039FF054928460AF0D9FB204603B030BD1C
:104CD00028060020603400208066010010B40446DD
:104CE0000023084A12689A4209DD1A010649096838
:104CF00001EB03108A5CA24202D00133F1E70020ED
:104D000010BC7047F066010038020020084B1B6899
:104D10003BB110B50C46FFF7E1FF28B12060002041
:104D200010BD6FF00C0070476FF00100F8E700BF96
:104D3000380200201B4B1B68002B32D130B585B0E8
:104D4000184B01221A60184B93E8070004AB03E9E3
:104D50000700164B63B10DF033FF4FF02003EFF364
:104D6000118583F31288BFF36F8F114B1C680AE023
:104D7000002383F31188BFF36F8FEEE723460CB156
:104D8000236843B11C4634B1A368002BF6D0064A11
:104D900010789847F2E785F31188BFF36F8F05B05D
:104DA00030BD70473C02002090180020C12B01004C
:104DB0008818002070B588B006462A4C6D4601461A
:104DC00028460DF07CFD95E8070084E80700207870
:104DD000002845D0244B00221A60B6F1FF3F0CD1C9
:104DE0000AF064FF4FF02003EFF3118583F312887C
:104DF000BFF36F8F1D4B1C6816E0A368590CD803D6
:104E00001B4C1C4A002300194FF0000444EB010125
:104E1000FBF792FF0121301A10F017FEE0E723465E
:104E20000CB1236843B11C4634B16368002BF6D043
:104E30000C4A10789847F2E785F31188BFF36F8F1B
:104E4000084B93E8070008AB03E907000A4B0BB1D6
:104E50000DF0A3FEFFF76EFF0BF026F9014B18785B
:104E600008B070BD901800203C0200208818002077
:104E70003F420F0040420F009B2B010008B5024843
:104E80000BF09EFD08BD00BFFC660100D0B108B567
:104E90004268042A05D0D2B100680AF05DFC002007
:104EA00008BD03680022BFF35B8F53E8001F012990
:104EB00003D143E800200028F7D1BFF35B8F04D172
:104EC0001046EDE76FF4E04070470248E8E702481B
:104ED000E6E700BFE98FFFFFEA8FFFFF20B308B5C9
:104EE0004268042A02D092B911480FE003680122F7
:104EF000BFF35B8F53E8001F002903D143E8002074
:104F00000028F7D1BFF35B8F0CD1002008BD0068EB
:104F10004FF0FF324FF0FF330AF094FB0028F5D03A
:104F20000448F3E70348F1E76FF4E040704700BF3F
:104F3000EA8FFFFFE98FFFFF10B5044688B1636871
:104F4000042B0DD0082B0BD053B113F0020F0DD052
:104F50002146094810F021FA0023236000236360F2
:104F600010BD064B5B6806489847E8E7142200210D
:104F700020680DF0C9FDF1E79C180020C402002054
:104F80000467010010B5044678B16368042B0BD0A8
:104F9000082B09D00BB9236863B1206810F09CFA84
:104FA000636843F00103636010BD0F4B5B680F48FB
:104FB0009847EAE74FF0FF324FF0FF3321460C48A5
:104FC0000AF006FA08B923681BB9074B5B68094861
:104FD00098471422002120680DF096FD636843F085
:104FE00002036360D9E700BFC40200200467010028
:104FF0009C1800202C67010008B5402314220449A6
:10500000044810F0BCF9044904480BF03BFD08BD0E
:10501000B81800209C1800206C6701005C67010034
:10502000014910220A60704710ED00E072B640405E
:1050300080F31188BFF36F8FBFF34F8F30BF62B61D
:10504000BFF36F8F704700BF72B6494081F311887C
:1050500020BF80F3118862B6704700BF70B582B080
:1050600004461F4D1F4BED1AED0801264FF00003BB
:1050700066F302036FF3C50365F38F13ADF80030D9
:105080008368426801681848FDF758FD4FF0000337
:1050900066F302036FF3C50365F38F13ADF80030B9
:1050A00063692269E1681148FDF748FD4FF000028D
:1050B00066F302026FF3C50265F38F12E1690C48D3
:1050C000FDF77AFD4FF0000266F302026FF3C502AE
:1050D00065F38F12A1690748FDF76EFD02B070BD40
:1050E000E85E0100A85E010080670100B067010072
:1050F000E0670100F067010043B2002B08DB00F01D
:105100001F005B09012202FA00F0024A42F8230064
:10511000704700BF00E100E043B2002B0DDB00F060
:105120001F005B09012202FA00F02033034A42F813
:105130002300BFF34F8FBFF36F8F704700E100E094
:105140004209054B53F8222000F01F00012303FA07
:1051500000F01040704700BF00E100E0013143B2B1
:10516000002B08DB4901C9B203F1604303F5614339
:1051700083F80013704700F00F004901C9B2014BDA
:105180001954704714ED00E030BFFFF7FDBF00BFBA
:1051900008B50B4B0B4A22F07F029A60BFF34F8F8A
:1051A000BFF36F8FD3F8882022F47002C3F88820F1
:1051B0000AF09AF80BF03EF900F0B6FC0AF0A0F8FD
:1051C00000ED00E0000000000A4A9368C3F8A80060
:1051D00009490968C3F8AC1008494B6843F080538B
:1051E0004B60002383F31188BFF36F8F9368D3F86C
:1051F000AC007047182F0020E876010000ED00E0B9
:1052000013498A684FF030001044EFF3098C80E8AE
:10521000F01F202080F31288BFF36F8F0D4F4FF0E7
:105220000066CA698A603E60D2F8A8000023C2F80E
:10523000A83080F3118804B5104600F017FDBDE8D2
:10524000044002F1300090E8F01F8CF309887047A9
:10525000182F002004ED00E01EF0040F0CBFEFF348
:105260000880EFF30980816911F8021C0229FFD040
:1052700001B50DF036FB01BD10B4A2F120040D49BB
:1052800021F0010142F8081C42F8203C019B42F841
:105290001C3C029B42F8183C039B42F8143C4FF024
:1052A000807342F8043C04650023C0F8A83010BCA9
:1052B000704700BF6B110100164B9A68DAB110F10C
:1052C000160F1AD010B4D2F89830A3F120048442FB
:1052D00005D8834208D98B4208D8002100E000217C
:1052E00031B9002010BC70470021F9E70121F7E730
:1052F000D2F89800F6E700207047D2F898308B4239
:1053000094BF0021012109B900207047D2F898000C
:10531000704700BF182F002008B50D461446084BF3
:10532000986000F0A3FC204685F30988002163B64D
:1053300081F31188BFF36F8F002200230BF015FF5C
:10534000182F002001B572B60B4A906900281EBFC5
:105350000021916110F098F862B6EFF30580A0F19A
:1053600010004FEAC0000549014409C99847BDE84B
:105370000140034908470000182F0020285D010064
:1053800085530000044B9968D869884203D00349CB
:105390004FF080520A607047182F002004ED00E0A3
:1053A00008B54E4B4E4A9B1ADB084FF00001012214
:1053B00062F302016FF3C50163F38F114948FDF7F2
:1053C0008FFC494B9B6A13F0007F21D1464B9B6AAF
:1053D00013F0807F2DD1444B9B6A13F4002F39D1F9
:1053E000414B9B6A13F4802F45D13F4B9B6A13F4CA
:1053F000003F51D13C4B9B6A13F4803F5DD13A4A48
:10540000936A6FEA03436FEA13439362002008BD77
:10541000324B334A9B1ADB084FF00001012262F342
:1054200002016FF3C50163F38F113048FDF758FC9B
:10543000CCE72A4B2A4A9B1ADB084FF000010122D5
:1054400062F302016FF3C50163F38F112848FDF782
:1054500047FCC0E7214B224A9B1ADB084FF00001B2
:10546000012262F302016FF3C50163F38F1121483A
:10547000FDF736FCB4E7194B194A9B1ADB084FF0CD
:105480000001012262F302016FF3C50163F38F1182
:105490001948FDF725FCA8E7104B114A9B1ADB08B9
:1054A0004FF00001012262F302016FF3C50163F3C3
:1054B0008F111248FDF714FC9CE7084B084A9B1A11
:1054C000DB084FF00001012262F302016FF3C50116
:1054D00063F38F110A48FDF703FC90E7E85E0100D3
:1054E000A85E01002068010000ED00E038680100BE
:1054F0004C6801006868010088680100B06801001C
:10550000CC68010008B500220A70084B08495B1AF4
:10551000DB084FF00001012060F3020162F3C501D6
:1055200063F38F110348FDF7DBFB08BDE85E010064
:10553000A85E0100F868010070B505460E461446E5
:105540005E4B5F4A9B1ADB084FF00001012262F3B9
:1055500002016FF3C50163F38F115A48FDF7C0FBD9
:10556000594B9B6A13F4805F24D1574B9B6A13F409
:10557000006F30D1544B9B6A13F4007F3CD1524BE7
:105580009B6A13F4806F65D14F4B9B6A13F4807F45
:1055900071D14D4B9B6A13F4005F7DD14A4A936AE7
:1055A00043F47F439362012128460DF0ACF920704B
:1055B000002070BD414B424A9B1ADB084FF00001AE
:1055C000012262F302016FF3C50163F38F113F48BB
:1055D000FDF786FBC9E7394B394A9B1ADB084FF0C8
:1055E0000001012262F302016FF3C50163F38F1121
:1055F0003748FDF775FBBDE7304B314A9B1ADB0896
:105600004FF00001012262F302016FF3C50163F361
:105610008F113048FDF764FB2B4B996B9B6A13F499
:10562000004FACD0254B264A9B1ADB084FF00002F6
:10563000012060F302026FF3C50263F38F12264864
:10564000FDF7BAFA002E9AD01F4A936A23F400435A
:10565000936294E7194B1A4A9B1ADB084FF000013A
:10566000012262F302016FF3C50163F38F111B483E
:10567000FDF736FB88E7114B114A9B1ADB084FF008
:105680000001012262F302016FF3C50163F38F1180
:105690001348FDF725FB81E7084B094A9B1ADB08F5
:1056A0004FF00001012262F302016FF3C50163F3C1
:1056B0008F110C48FDF714FB70E700BFE85E010096
:1056C000A85E01001C69010000ED00E034690100E2
:1056D000486901005C690100786901009069010076
:1056E000AC690100C4690100F8B505460C461646D0
:1056F000644B654A9B1ADB084FF00001012262F3FC
:1057000002016FF3C50163F38F116048FDF7E8FAFA
:105710005F4B9B6A13F0100F32D15D4B9B6A13F005
:10572000080F3ED15A4B9B6A13F0020F4AD16FF01B
:105730001507574B9B6A13F0010F75D1544B9B6AA9
:1057400013F0200F40F08180514B9B6A13F0100F33
:1057500004D14F4B9C6A14F0020405D04C4B5C689A
:1057600014F4006440F08280494A936A43F0FF03D6
:105770009362012128460DF0C6F830702046F8BD2E
:10578000404B414A9B1ADB084FF00001012262F3B3
:1057900002016FF3C50163F38F113E48FDF7A0FAD4
:1057A000BBE7384B384A9B1ADB084FF00001012257
:1057B00062F302016FF3C50163F38F113648FDF701
:1057C0008FFAAFE72F4B304A9B1ADB084FF00001EE
:1057D000012262F302016FF3C50163F38F112F48B9
:1057E000FDF77EFA2A4B5F6B9B6A13F0800F02D1A4
:1057F0006FF015079DE7234B234A9B1ADB084FF0F8
:105800000002012161F302026FF3C50263F38F12FC
:1058100039462348FDF7D0F9002C8AD01C4A936AF8
:1058200023F08003936284E7164B174A9B1ADB0828
:105830004FF00001012262F302016FF3C50163F32F
:105840008F111848FDF74CFA78E70E4B0E4A9B1A59
:10585000DB084FF00001012262F302016FF3C50182
:1058600063F38F111048FDF73BFA6DE72946384680
:10587000FFF722FD044600283FF476AF80F3098845
:10588000022471E7E85E0100A85E0100F4690100EE
:1058900000ED00E00C6A010048690100406A010067
:1058A000586A0100706A0100C469010070B50546BC
:1058B0000C46474B474A9B1ADB084FF00001012278
:1058C00062F302016FF3C50163F38F114248FDF7E4
:1058D00007FA00232370414BDE6A16F0020609D155
:1058E0003E4BDB6A002B17DB3C4BD86A10F0804044
:1058F00024D170BD364B374A9B1ADB084FF00001AC
:10590000012262F302016FF3C50163F38F11344882
:10591000FDF7E6F90020ECE72D4B2E4A9B1ADB0839
:105920004FF00001012262F302016FF3C50163F33E
:105930008F112C48FDF7D4F93046DAE7244B254A7D
:105940009B1ADB084FF00001012262F302016FF3A2
:10595000C50163F38F112448FDF7C2F9AB6933F831
:10596000022C4DF602739A420ED003F1604303F607
:1059700026631B78DBB91D4B1B78F3B91C4B1B88C6
:105980009BB203BB3046B4E7114B124A9B1ADB08AB
:105990004FF00002012161F302026FF3C50263F3CD
:1059A0008F1229681348FDF707F92868A1E72246F6
:1059B00001212846FFF798FE9BE722460121284651
:1059C000FFF7BAFD95E72846FFF7EAFC91E700BF2D
:1059D000E85E0100A85E0100906A010000ED00E0B1
:1059E000A86A0100CC6A0100DC6A010029ED00E030
:1059F0002AED00E0FC6A010008B50A460B480C4B92
:105A0000C01AC0084FF00003012161F302036FF3D5
:105A1000C50360F38F130F2A05DC0649103A0648C8
:105A2000FDF700F908BD0549F8E700BFE85E010091
:105A3000A85E0100186B01004C6B0100306B010087
:105A400070B58AB02B4B5D68C5F30805002383F35E
:105A50001188BFF36F8F02F07F43B3F17F4F2AD1DC
:105A600002F00C03082B10D012F0080F20D00C46C7
:105A700000260DF12702294620460CF046FF054678
:105A80009DF82730D3B10AB070BD1B4B1B4A9B1A3F
:105A9000DB084FF00001012262F302016FF3C50140
:105AA00063F38F111648FDF71BF900263446E0E733
:105AB00004460126DDE700263446DAE720222146A7
:105AC00001A80CF0FDFF4EB1089BC3F308025AB9C0
:105AD0006FEA53236FEA4323089305E0089B23F4FE
